:020000040800F2
:10000000180400209D0100084D140008FD1200088E
:1000100049140008090200087915000800000000D2
:100020000000000000000000000000008B14000829
:100030000D02000800000000891400088D1400085B
:10004000B7010008B7010008B7010008B7010008B0
:10005000B7010008B7010008B7010008B7010008A0
:10006000B7010008B7010008B7010008B701000890
:10007000B7010008B7010008B7010008B701000880
:10008000B7010008B7010008B7010008B701000870
:10009000B7010008B7010008B7010008B701000860
:1000A000B7010008B7010008B7010008B701000850
:1000B000B7010008B7010008B7010008B701000840
:1000C000B7010008B7010008B7010008B701000830
:1000D000B7010008B7010008B7010008B701000820
:1000E000B7010008B7010008B7010008B701000810
:1000F000B7010008B7010008B7010008B701000800
:10010000000000000000000000000000B70100082F
:10011000B7010008B7010008B7010008B7010008DF
:10012000B7010008B7010008B7010008B7010008CF
:10013000B7010008B701000800000000000000003F
:10014000B7010008B7010008B7010008000000006F
:10015000000000000000000000000000000000009F
:100160000000000000000000B7010008B70100080F
:10017000B7010008000000000000000000000000BF
:1001800000000000B7010008DFF80CD000F02AF8EA
:10019000004800479D1500081804002006488047C5
:1001A00006480047FEE7FEE7FEE7FEE7FEE7FEE75C
:1001B000FEE7FEE7FEE7FEE7FD1400088901000800
:1001C000D2B201E000F8012B491EFBD27047002299
:1001D000F6E710B513460A4604461946FFF7F0FF46
:1001E000204610BD064C074D06E0E06840F00103D4
:1001F00094E8070098471034AC42F6D3FFF7C8FFE5
:10020000D8160008F816000800BFFEE770477047D0
:1002100070B5044600F0FCF806462546681C10B18F
:1002200004480078054400BF00F0F2F8801BA842A3
:10023000FAD370BD0C00002078B5034600220024DC
:100240000020CBE0012696400D6805EA0604002C4C
:1002500072D04D68022D02D04D68122D13D1D608F0
:1002600003F1200555F826005507EE0E0F25B54081
:10027000A8435607F60E0D69B5402843D60803F18A
:10028000200545F82600186856000325B540A84308
:100290000D7905F003055600B540284318604D68F8
:1002A000012D08D04D68022D05D04D68112D02D0CA
:1002B0004D68122D13D1986856000325B540A84308
:1002C0005600CD68B5402843986058680125954090
:1002D000A8430D79C5F30015954028435860D868A8
:1002E00056000325B540A84356008D68B540284305
:1002F000D8604D6805F08055B5F1805F6DD100BFC5
:10030000394DAD6945F00105374EB5613546AD69EA
:1003100005F00105009500BF00BF4FEAB63596080D
:1003200055F8260095072E0F0F25B540A843B3F1C9
:10033000904F02D1002515E04FE02C4DAB4201D18A
:1003400001250FE02A4DAB4201D102250AE0294DDB
:10035000AB4201D1032505E0274DAB4201D1042575
:1003600000E005259607360FB5402843234D960833
:1003700045F82600224D2868A0434D6805F48035D5
:10038000B5F5803F00D120431D4D28602D1D286804
:10039000A0434D6805F40035B5F5003F00D120437A
:1003A000174D2D1D28602D1D2868A0434D6805F4AC
:1003B0008015B5F5801F00D12043114D0835286008
:1003C0002D1D2868A0434D6805F40015B5F5001FE4
:1003D00000D120430A4D0C352860521C0D68D540D1
:1003E000002D7FF42FAF78BD0010024000040048BC
:1003F00000080048000C00480010004808000140B8
:10040000000401400AB1816100E081627047000090
:10041000014800687047000004000020034800689D
:100420000349097808440149086070470400002026
:100430000C00002010B50848006840F01000064984
:100440000860032000F090F8002000F007F800F0AA
:100450002BF8002010BD00000020024070B50446BB
:100460000E4800784FF47A71B1FBF0F00C4909683E
:10047000B1FBF0F5284600F027FF08B1012070BD60
:10048000102C07D200222146501E00F02FF80548FC
:10049000046001E00120F2E70020F0E70C000020FA
:1004A000100000200800002008B500BF0E48806939
:1004B00040F001000C4988610846806900F00100A5
:1004C000009000BF00BF00BF0846C06940F08050E8
:1004D000C8610846C06900F08050009000BF00BFAE
:1004E000072000F041F808BD001002402DE9F05F40
:1004F00080460D461646002700F0AAFF07463946FB
:100500002A46334601F00700C0F1070ABAF1040F8A
:1005100002D94FF0040A01E0C0F1070AD14600F108
:10052000040ABAF1070F02D24FF0000A01E0A0F16D
:10053000030AD4464FF0010A0AFA09FAAAF1010A9D
:100540000AEA020A0AFA0CFA4FF0010B0BFA0CFB4A
:10055000ABF1010B0BEA030B4AEA0B0421464046C0
:1005600000F07EFFBDE8F09F00BF00F00702064BE1
:1005700019684FF6FF031940044B0B4343EA02216D
:10058000014B196000BF70470CED00E00000FA0558
:1005900070B504460D4600260CB9012070BDA24876
:1005A000006800F00700A8420ED29F48006820F0C3
:1005B000070028439C4908600846006800F00700CF
:1005C000A84201D00120E9E7207800F002000228CB
:1005D00007D19648406820F0F000A168084393498D
:1005E0004860207800F0010000287CD06068012875
:1005F0003BD12020010391FAA1F1B1FA81F1084326
:100600000121B1EB601F02D1884800681DE0202065
:10061000010391FAA1F1B1FA81F108430221B1EB92
:10062000601F02D18148006A0FE02020010391FA87
:10063000A1F1B1FA81F108430421B1EB601F02D1AD
:100640007A48406801E07948406A20210A0392FA1A
:10065000A2F2B2FA82F2114301F01F02012191408D
:10066000084000287CD1012098E7606802283BD12F
:100670002020010591FAA1F1B1FA81F1084301218D
:10068000B1EB601F02D1694800681DE02020010520
:1006900091FAA1F1B1FA81F108430221B1EB601F97
:1006A00002D16248006A0FE02020010591FAA1F111
:1006B000B1FA81F108430421B1EB601F02D15B481C
:1006C000406801E05948406A20210A0592FAA2F2E6
:1006D000B2FA82F2114301F01F0201219140084059
:1006E000E8BB01205AE758E02020022191FAA1F14D
:1006F000B1FA81F108430121B1EB601F02D14B48EF
:1007000000681DE02020022191FAA1F1B1FA81F1E7
:1007100008430221B1EB601F02D14448006A0FE098
:100720002020022191FAA1F1B1FA81F108430421BC
:10073000B1EB601F02D13D48406801E03B48406A90
:100740002021022292FAA2F2B2FA82F2114301F0BF
:100750001F0201219140084008B901201EE7FFE770
:100760003248406820F00300616808432F49486020
:10077000FFF74EFE064608E0FFF74AFE801B41F2F7
:100780008831884201D9032008E72848406800F0F2
:100790000C006168B0EB810FEED12348006800F0D7
:1007A0000700A8420ED92048006820F0070028431F
:1007B0001D4908600846006800F00700A84201D003
:1007C0000120EBE6207800F00400042807D1174848
:1007D000406820F4E060E1680843144948602078EC
:1007E00000F00800082808D11048406820F4605044
:1007F000216940EAC1000D49486000F01DF80B492D
:10080000496801F0F001F02292FAA2F2B2FA82F203
:10081000D140074A515CC840064908600020FFF7F4
:100820001DFE0020BAE60000002002400010024039
:10083000C01600081000002070B50021002400221E
:10084000002300201A4D696801F00C0565B3042DE2
:1008500002D0082D27D101E0164827E001F47015D9
:100860004FF4701696FAA6F6B6FA86F6F540124ED2
:10087000735D0F4DED6A05F00F050F2696FAA6F68B
:10088000B6FA86F6F5400D4E745D01F480352DB153
:10089000084DB5FBF4F505FB03F202E0084D03FB40
:1008A00005F2104602E000BF024800BF00BF70BD65
:1008B0000010024000127A00A0160008B0160008CE
:1008C00000093D00F8B504460CB90120F8BD2078B8
:1008D00000F0010000287BD0FA48406800F00C00CE
:1008E00004280CD0F748406800F00C00082845D1D7
:1008F000F448406800F48030B0F5803F3ED12020BD
:10090000010391FAA1F1B1FA81F108430121B1EBA0
:10091000601F02D1EB4800681DE02020010391FA1E
:10092000A1F1B1FA81F108430221B1EB601F02D1BC
:10093000E448006A0FE02020010391FAA1F1B1FA26
:1009400081F108430421B1EB601F02D1DD4840680A
:1009500001E0DC48406A20210A0392FAA2F2B2FACE
:1009600082F2114301F01F0201219140084000284A
:10097000B1D0606800282BD10120A7E700BF6068D4
:10098000B0F5803F06D1CF48006840F48030CD49B3
:10099000086029E0606858B9CA48006820F48030CF
:1009A000C84908600846006820F4802008601BE001
:1009B0006068B0F5A02F0CD1C248006840F48020D8
:1009C000C04908600846006840F4803008600BE0C9
:1009D000A1E0BC48006820F48030BA4908600846AD
:1009E000006820F48020086000BFB648C06A20F08C
:1009F0000F00A1680843B349C8626068A0B3FFF75D
:100A000007FD054606E0FFF703FD401B642801D9FA
:100A100003205BE72020010391FAA1F1B1FA81F1F3
:100A200008430121B1EB601F02D1A64800681EE017
:100A30002020010391FAA1F1B1FA81F108430221CA
:100A4000B1EB601F02D19F48006A10E02020010333
:100A500091FAA1F1B1FA81F108430421B1EB601FD1
:100A600003D19848406802E010E09648406A20218F
:100A70000A0392FAA2F2B2FA82F2114301F01F02C3
:100A80000121914008400028BDD044E0FFF7C0FCA0
:100A9000054606E0FFF7BCFC401B642801D9032093
:100AA00014E72020010391FAA1F1B1FA81F1084382
:100AB0000121B1EB601F02D1824800681DE02020B7
:100AC000010391FAA1F1B1FA81F108430221B1EBDE
:100AD000601F02D17B48006A0FE02020010391FAD9
:100AE000A1F1B1FA81F108430421B1EB601F02D1F9
:100AF0007448406801E07348406A20210A0392FA72
:100B0000A2F2B2FA82F2114301F01F0201219140D8
:100B100008400028BED1207800F0020002285CD1F5
:100B20006848406800F00C0050B16648406800F02A
:100B30000C00082852D16348406800F48030E8BBBC
:100B40002020022191FAA1F1B1FA81F1084301219B
:100B5000B1EB601F02D15B4800681DE0202002213C
:100B600091FAA1F1B1FA81F108430221B1EB601FC2
:100B700002D15448006A0FE02020022191FAA1F12D
:100B8000B1FA81F108430421B1EB601F02D14D4855
:100B9000406801E04B48406A2021022292FAA2F20A
:100BA000B2FA82F2114301F01F0201219140084084
:100BB00028B12069012802D0012087E60EE04148D3
:100BC000006820F0F800F82292FAA2F2B2FA82F25B
:100BD0006169914008433B490860B1E0206970B306
:100BE000012191FAA1F0B0FA80F0374A42F82010C2
:100BF000FFF70EFC054606E0FFF70AFC401B022843
:100C000001D9032062E62020022191FAA1F1B1FA74
:100C100081F108430121B1EB601F02D1294800682E
:100C20001EE02020022191FAA1F1B1FA81F10843DE
:100C30000221B1EB601F03D12248006A10E02CE0D2
:100C40002020022191FAA1F1B1FA81F10843042197
:100C5000B1EB601F02D11B48406801E01948406AAF
:100C60002021022292FAA2F2B2FA82F2114301F09A
:100C70001F020121914008400028BDD011480068A2
:100C800020F0F800F82292FAA2F2B2FA82F2616938
:100C9000914008430B49086052E00020012191FA7D
:100CA000A1F1B1FA81F1084A42F82100FFF7B0FB47
:100CB00005460BE0FFF7ACFB401B022806D90320DA
:100CC00004E6000000100240000042422020022101
:100CD00091FAA1F1B1FA81F108430121B1EB601F52
:100CE00002D1FB4800681DE02020022191FAA1F109
:100CF000B1FA81F108430221B1EB601F02D1F4483F
:100D0000006A0FE02020022191FAA1F1B1FA81F1ED
:100D100008430421B1EB601F02D1ED48406801E0B7
:100D2000EB48406A2021022292FAA2F2B2FA82F241
:100D3000114301F01F020121914008400028B9D160
:100D4000207800F00800082851D1A06980B3012064
:100D500090FAA0F1B1FA81F1DE4A02EB8101C1F80B
:100D60008004FFF755FB054606E0FFF751FB401BEB
:100D7000022801D90320A9E56020022191FAA1F1FE
:100D8000B1FA81F108430121B1EB601F02D1D048D3
:100D900000681EE06020022191FAA1F1B1FA81F110
:100DA00008430221B1EB601F03D1C948006A10E07B
:100DB0001EE06020022191FAA1F1B1FA81F108430D
:100DC0000421B1EB601F02D1C148406801E0C04876
:100DD000406A6021022292FAA2F2B2FA82F2114330
:100DE00001F01F020121914008400028BDD04FE0D2
:100DF0000020012191FAA1F1B1FA81F1B54A02EB8B
:100E00008101C1F88004FFF703FB054606E0FFF708
:100E1000FFFA401B022801D9032057E56020022178
:100E200091FAA1F1B1FA81F108430121B1EB601F00
:100E300002D1A74800681DE06020022191FAA1F1CB
:100E4000B1FA81F108430221B1EB601F02D1A04841
:100E5000006A0FE06020022191FAA1F1B1FA81F15C
:100E600008430421B1EB601F02D19948406801E0BA
:100E70009748406A6021022292FAA2F2B2FA82F204
:100E8000114301F01F020121914008400028BED10A
:100E9000207800F00400042873D100268C48C06933
:100EA00000F0805070B900BF8948C06940F08050A0
:100EB0008749C8610846C06900F08050009000BFB3
:100EC00000BF01268448006800F48070B0B98248F1
:100ED000006840F4807080490860FFF799FA054681
:100EE00006E0FFF795FA401B642801D90320EDE4E2
:100EF0007948006800F480700028F2D000BFE068F4
:100F0000012806D17248006A40F001007049086269
:100F100027E0E06858B96E48006A20F001006C498B
:100F200008620846006A20F00400086219E0E068E0
:100F300005280BD16648006A40F004006449086245
:100F40000846006A40F0010008620AE06048006A52
:100F500020F001005E4908620846006A20F00400A3
:100F6000086200BFE068B8B3FFF752FA054609E02F
:100F7000FFF74EFA401B41F28831884202D9032024
:100F8000A4E48BE04020022191FAA1F1B1FA81F1B1
:100F900008430121B1EB601F02D14D4800681EE0FB
:100FA0004020022191FAA1F1B1FA81F10843022116
:100FB000B1EB601F02D14648006A10E040200221D8
:100FC00091FAA1F1B1FA81F108430421B1EB601F5C
:100FD00003D13F48406802E010E03D48406A4021AC
:100FE000022292FAA2F2B2FA82F2114301F01F0237
:100FF0000121914008400028BAD046E0FFF708FAE6
:10100000054608E0FFF704FA401B41F288318842A8
:1010100001D903205AE44020022191FAA1F1B1FA4A
:1010200081F108430121B1EB601F02D1284800681B
:101030001DE04020022191FAA1F1B1FA81F10843AB
:101040000221B1EB601F02D12148006A0FE040206D
:10105000022191FAA1F1B1FA81F108430421B1EB27
:10106000601F02D11A48406801E01948406A4021D7
:10107000022292FAA2F2B2FA82F2114301F01F02A6
:101080000121914008400028BCD1012E05D1104813
:10109000C06920F080500E49C86100BFE069002897
:1010A00074D00B48406800F00C0008286FD0E0694D
:1010B00002286DD100204FF0807191FAA1F1B1FAB0
:1010C00081F1044A42F82100FFF7A2F905460CE03D
:1010D000001002400000424200700040FFF798F903
:1010E000401B022801D9032047E42020010591FA82
:1010F000A1F1B1FA81F108430121B1EB601F02D1E6
:101100006F4800681DE02020010591FAA1F1B1FAB5
:1011100081F108430221B1EB601F02D16848006AE7
:101120000FE02020010591FAA1F1B1FA81F1084305
:101130000421B1EB601F02D16148406801E06048C2
:10114000406A20210A0592FAA2F2B2FA82F2114311
:1011500001F01F020121914008400028BED1D4E9CE
:10116000081008435649496821F47411084354494A
:1011700048600121080690FAA0F0B0FA80F0514AC8
:1011800042F82010FFF744F9054609E095E092E0A7
:1011900041E0FFF73DF9401B022801D9032038E464
:1011A0002020010591FAA1F1B1FA81F10843012152
:1011B000B1EB601F02D1424800681DE0202001050C
:1011C00091FAA1F1B1FA81F108430221B1EB601F5C
:1011D00002D13B48006A0FE02020010591FAA1F1FD
:1011E000B1FA81F108430421B1EB601F02D1344808
:1011F000406801E03248406A20210A0592FAA2F2D2
:10120000B2FA82F2114301F01F020121914008401D
:101210000028BED051E000214FF0807090FAA0F07D
:10122000B0FA80F0274A42F82010FFF7F1F805469F
:1012300006E0FFF7EDF8401B022801D903202FE458
:101240002020010591FAA1F1B1FA81F108430121B1
:10125000B1EB601F02D11A4800681DE02020010593
:1012600091FAA1F1B1FA81F108430221B1EB601FBB
:1012700002D11348006A0FE02020010591FAA1F184
:10128000B1FA81F108430421B1EB601F02D10C488F
:10129000406801E00A48406A20210A0592FAA2F259
:1012A000B2FA82F2114301F01F020121914008407D
:1012B0000028BED101E001207FE400207DE4000091
:1012C000001002400000424270B504462546681EE8
:1012D000B0F1807F01D301200FE0681E4FF0E021C4
:1012E00048610F214FF0FF3000F0BAF800204FF0B6
:1012F000E021886107200861002070BD00BFFEE783
:1013000000B587B0142102A8FEF761FF00BF4A486C
:10131000406940F40010484948610846406900F4BB
:101320000010019000BF00BF00BF0846406940F4B4
:10133000002048610846406900F40020019000BF89
:1013400000BF00BF0846406940F48000486108467D
:10135000406900F48000019000BF00BF00BF084654
:10136000406940F4003048610846406900F40030AC
:10137000019000BF00BF00BF0846406940F48020D4
:1013800048610846406900F48020019000BF00BF1A
:1013900000224FF608712948FFF734F837200290F1
:1013A000274803900020049002A92448FEF744FF38
:1013B0004FF60870029001200390002004900590E1
:1013C00002A91E48FEF738FF01200290002003907A
:1013D000049002A94FF09040FEF72EFFE02002900B
:1013E000022003900020049005900520069002A999
:1013F0004FF09040FEF720FF4FF4C05002900220C3
:10140000039000200490032005900E20069002A96E
:101410004FF09040FEF710FFC02002901220039082
:1014200001200490002005900420069002A90548A0
:10143000FEF702FF07B000BD001002400010004898
:10144000000012100004004800BFFEE770470000D3
:1014500002480068C0F30220704700000CED00E075
:1014600010B5002807DA0A07140E054A00F00F032A
:101470001B1FD45403E00A07130E024A135410BD75
:1014800018ED00E000E400E07047704710B5FEF78B
:10149000C5FF10BD00B58FB0282105A8FEF797FE47
:1014A00014216846FEF793FE012005904FF4A0201A
:1014B0000690002007900120099002200C90C103A3
:1014C0000D914FF4E0110E9105A8FFF7FBF908B15B
:1014D000FEF79DFE0F200090022001900020029058
:1014E0004FF4806003900020049002216846FFF7CB
:1014F0004FF808B1FEF78BFE0FB000BD1948006829
:1015000040F47000174908601748006840F0010077
:101510001549086008464068144908401249486067
:1015200008460068124908400F49086008460068EC
:1015300020F4802008600846406820F4FE004860DF
:101540000846C06A20F00F00C8620846006B0949CF
:1015500008400549086300208860C80301498039B4
:101560000860704788ED00E0001002400CC07FF872
:10157000FFFFF6FECCFC00FF00BFFEE702E008C85C
:10158000121F08C1002AFAD170477047002001E0FD
:1015900001C1121F002AFBD170470000FEF74AFF6D
:1015A000FFF778FFFFF7ACFE75E000224FF6FF7102
:1015B0003948FEF727FF012211023748FEF722FFC4
:1015C0003220FEF725FE00224FF6FF713248FEF76B
:1015D00019FF012251023048FEF714FF3220FEF7B6
:1015E00017FE00224FF6FF712B48FEF70BFF01227A
:1015F00091022948FEF706FF3220FEF709FE00227D
:101600004FF6FF712448FEF7FDFE0122D102224869
:10161000FEF7F8FE3220FEF7FBFD00224FF6FF71C9
:101620001D48FEF7EFFE012211031B48FEF7EAFEFC
:101630003220FEF7EDFD00224FF6FF711648FEF74F
:10164000E1FE012251031448FEF7DCFE3220FEF7D2
:10165000DFFD00224FF6FF710F48FEF7D3FE012297
:1016600091030D48FEF7CEFE3220FEF7D1FD002299
:101670004FF6FF710848FEF7C5FE0122D103064868
:10168000FEF7C0FE3220FEF7C3FD04480078401C80
:1016900040B20249087088E70010004800000020AE
:1016A00002030405060708090A0B0C0D0E0F1010A3
:1016B0000102030405060708090A0B0C0D0E0F10A2
:1016C00000000000000000000102030406070809F2
:1016D0000000000001020304F816000800000020CA
:1016E000140000007C1500080C17000814000020EE
:1016F000040400008C150008000000000000000039
:0C170000100000000100000000127A0040
:040000050800018965
:00000001FF
