:020000040800F2
:10000000200500209D0100085B1D00089F1B0008C3
:10001000591D0008410A000885250008000000005D
:100020000000000000000000000000007F1D00082C
:10003000430A0008000000007D1D0008811D000823
:10004000B7010008B7010008B7010008B7010008B0
:10005000B7010008B7010008B7010008B7010008A0
:10006000B7010008B7010008B7010008B701000890
:10007000B7010008B7010008B7010008B701000880
:10008000B7010008B7010008B7010008B701000870
:10009000B7010008B7010008B7010008B701000860
:1000A000B7010008B7010008B7010008B701000850
:1000B000B7010008B7010008B7010008B701000840
:1000C000B7010008B7010008B7010008B701000830
:1000D000B7010008B7010008B7010008B701000820
:1000E000B7010008B7010008B7010008B701000810
:1000F000B7010008B7010008B7010008B701000800
:10010000000000000000000000000000B70100082F
:10011000B7010008B7010008B7010008B7010008DF
:10012000B7010008B7010008B7010008B7010008CF
:10013000B7010008B701000800000000000000003F
:10014000B7010008B7010008B7010008000000006F
:10015000000000000000000000000000000000009F
:100160000000000000000000B7010008B70100080F
:10017000B7010008000000000000000000000000BF
:1001800000000000B7010008DFF80CD000F080F993
:1001900000480047492600082005002006488047FF
:1001A00006480047FEE7FEE7FEE7FEE7FEE7FEE75C
:1001B000FEE7FEE7FEE7FEE7E91D0008890100080B
:1001C000202A04DB203A21FA02F00021704721FAAC
:1001D00002F3D040C2F12002914008431946704713
:1001E000D2B201E000F8012B491EFBD27047002279
:1001F000F6E710B513460A4604461946FFF7F0FF26
:10020000204610BD10B5002200E0521C835C8C5CBF
:10021000A34201D1002BF8D1D8B2E1B2401A10BDEF
:100220002DE9FE4F81EA030404F0004421F000416F
:1002300000944FF0000B23F0004350EA01045ED01D
:1002400052EA03045BD0C3F30A54C1F30A552C44A9
:10025000A4F2F3340194A0FB0254C1F3130141F45E
:100260008011C3F3130343F4801301FB024400FB2A
:10027000034E840A970A44EA815447EA8357A4FB51
:10028000076802958D0A05FB07854FEA932C04FB4E
:100290000C542705029D4FEA065847EA1637B5EB7E
:1002A00008056EEB070C870E920E47EA811742EAAB
:1002B0008312A7FB0201B6EB0B0164EB00042B0DCC
:1002C00043EA0C335E1844EB1C50DA465146E7FB18
:1002D0000201C5F313044FEA0B3343EA14534FEA08
:1002E0000432019C43EA0603A4F10C040294009C2E
:1002F000CDE900B400F07DF803B0BDE8F08F002038
:100300000146F9E7C1F30A5210B5C1F3130140F2F7
:10031000FF3341F480119A4201DA002010BD40F20F
:1003200033439A42A2F2334203DC5242FFF748FFC2
:1003300010BD904010BD00000FB4002300B589B07F
:100340000CA900910B996FF00042CB601E4B0693F5
:100350001E4B07930423CDE901321D4A0892024641
:100360006B46002000F04EF909B05DF814FB70B543
:1003700086B006464FF0FF300091CDE90101002024
:1003800015460C4604903246694604A8FFF7D4FF90
:1003900002460498211825B108B1084600E020461D
:1003A0002860049800280DD0002A02DD00988842B9
:1003B00008D0081B0094CDE901043246694604A820
:1003C000FFF7BAFF06B070BD3D0800085B080008E3
:1003D000D304000810B5141E73F1000408DA401CA1
:1003E00041F1000192185B411A4301D120F0010054
:1003F00010BD2DE9F04D92469B4611B1B1FA81F244
:1004000002E0B0FA80F22032904600F053F8044641
:100410000F4640EA0A0041EA0B0153465A46084398
:1004200013D0114653EA010019D0C8F140025046DA
:10043000FFF7C6FE05460E4650465946424600F0B6
:1004400039F8084305D0012004E020463946BDE8CC
:10045000F08D0020054346EAE0762C4337430A98A6
:100460006305E40AA0EB08000022FD0A44EA4754B1
:100470000A3002D500200146E9E70105101969415B
:10048000DDE9084500196941BDE8F04DA2E700002B
:10049000064C074D06E0E06840F0010394E80700D1
:1004A00098471034AC42F6D3FFF772FEA02800083C
:1004B000C0280008202A04DB203A00FA02F10020BC
:1004C00070479140C2F1200320FA03F31943904092
:1004D0007047C0B24FF4F05100F0D0B92DE9FF4F92
:1004E000087883B09946FF2805D0491C2D2804D0F0
:1004F0000024002008E000200BE00124F9E700EBD5
:10050000800003EB4000491C0B78FF2BF7D104B1AE
:10051000404200230293147819461D462D2C01D029
:100520002B2C04D1521C2D2C13D000240294AA464B
:100530001478FF2C0FD00A25A3FB057801FB058159
:100540004FF0000C03FB0C11521CE3194AEB0101A4
:10055000EEE70124EAE7814453EA010002D019F5ED
:10056000C87F06DA03980021C0E9001107B0BDE892
:10057000F08F0025AE4E2F46DFF8B882184600F007
:1005800000FACDE90001B9F1000002DAC9F1000476
:1005900000E004460023A74A1AEB030B42EB045A7F
:1005A00012E0E00707D02A46334638464146FFF7B7
:1005B00037FE074688462A46334610461946FFF757
:1005C0002FFE05460E466410002CEAD1DDE900013D
:1005D000B9F1000F5A46534606DA00F063F93A467D
:1005E000434600F05FF905E0FFF71AFE3A4643463E
:1005F000FFF716FE029A0AB181F00041039AC2E9A0
:100600000001B3E72DE9FF4F1F468DB0D7E9014642
:100610004FF0FF382E2045464FF000090B90B96986
:100620006D1C0E988847396A824688470028F6D1A3
:10063000BAF1FF3F0AD024F4D064002E11DDBAF1E4
:100640002B0F08D0BAF12D0F0BD102E0404611B0AC
:100650008DE744F48064B9696D1C0E988847824622
:10066000761E6946600501D52D2000E02B208DF80F
:10067000000001F1010B0DF1200809E0B9696D1CC2
:100680000E98884782460F9844F40074761E0560E1
:10069000002E02DDBAF1300FF0D00B998A453ED121
:1006A00044F0800406E00F99681CA9F1010944F4A4
:1006B00000740860B9696D1C761E0E9888478246E2
:1006C0003028F0D02BE00B998A4505D1200603D4C1
:1006D00044F08004761E18E0504601F078FF08B31D
:1006E0000DF11301761E44F400748B4508D2AAF173
:1006F00030000BF8010B200607D5A9F1010003E03B
:10070000200602D409F101008146A00502D50F9907
:10071000681C0860B9696D1C0E9888478246002ED7
:10072000D1DC53E0002E51DDBAF1650F02D0BAF1F1
:10073000450F4BD1A00549D5B9696D1C24F440740F
:10074000761E0E9888478246002E0CDD2B2804D09A
:10075000BAF12D0F07D144F48074B9696D1C0E985D
:1007600088478246761EE00501D52D2100E02B2129
:1007700008F8011BCDF82C8021E00DF12901761E2F
:1007800044F4007488450CD2AAF1300010F0FF0048
:1007900088F8000002D10B99884509D908F10108B1
:1007A00006E0E00501D5244801E042F20F708146E1
:1007B000B9696D1C0E98884782460F980560002E17
:1007C00004DD504601F003FF0028D6D1F9690E98E8
:1007D0008847FF208BF8000088F800000020069072
:1007E00007904B466A4608A906A8FFF777FEA005C2
:1007F00002D46FF001002AE714F0240F0AD0E007BA
:1008000014D1DDE906123868031D3B600068C0E9B9
:1008100000120BE0DDE9060100F0BFF80146E00739
:1008200004D13868021D3A600068016028460EE76E
:10083000000014400000F03FF1D8FFFF426842B1D1
:10084000016811F8013B23B1521EC0E9001218469D
:1008500070470121C160881E704742685AB1C36861
:10086000016843B983688B4205D0491E521CC0E918
:100870000012002070474FF0FF3070477F2801D9E9
:10088000002208E0064A02EB5002C007127800D1AD
:10089000120902F00F02012090400840704700004A
:1008A000602800082DE9F04D81EA030404F0004BB4
:1008B00021F0004514464FF0000A23F0004150EAB1
:1008C000050220D054EA01021DD0C5F30A570246A2
:1008D000C5F31303C1F31300C1F30A5640F48015A6
:1008E00043F48013A7EB0608101BD64608F2FD3828
:1008F00073EB050002D308F1010801E092185B4197
:10090000B8F1000F03DA00200146BDE8F08D0020A9
:100910004FF48011064684460EE0171B73EB050763
:1009200005D3121B63EB050306434CEA010C49088F
:100930004FEA300092185B4150EA0107EDD152EACC
:10094000030012D082EA040083EA0501084305D0BF
:10095000101BAB4106D20122002306E000224FF01B
:10096000004302E06FF0010253101AEB06004CEB5B
:10097000085110EB0A0041EB0B01BDE8F04DFFF709
:1009800029BD0EB540F2334202920022CDE9002289
:100990001346FFF72EFD03B000BD01F0004330B455
:1009A00021F0004150EA010206D00A0DA2F5607262
:1009B000C1F31301002A02DC30BC00207047440F51
:1009C00044EAC104C100E01830BC00EBC250AFF3F0
:1009D00000800029A8BF7047401C490008BF20F0D4
:1009E0000100704710B4B0FA80FC00FA0CF050EA35
:1009F000010404BF10BC704749B1CCF1200421FAB6
:100A000004F411FA0CF118BF012121430843A3EBB0
:100A10000C01CB1D4FEA00614FEA102042BF0020BD
:100A200010BC704700EBC35010440029A4BF10BC99
:100A30007047401C490008BF20F0010010BC7047FF
:100A4000FEE770472DE9F84FDFF864B100234FF05F
:100A5000010C4FF0030A4FF00F090BF1040EA0E058
:100A60000CFA03F6324072D04C68022C01D0122CE2
:100A70000ED1DC0800EB8408D8F820405D07EF0EAB
:100A800009FA07F5AC430D69BD402543C8F820506D
:100A900007685D0091F804800AFA05F408F003087D
:100AA000A74308FA05F848EA0708C0F800804F682D
:100AB000012F05D0022F03D0112F01D0122F11D1F9
:100AC0008768D1F80C80A74308FA05F848EA0708B8
:100AD000C0F808804768B7430E79C6F300169E40F9
:100AE0003E434660C668A6438C68AC403443C4604D
:100AF0004C68E40054D52F4CA56945F00105A5616B
:100B0000A46923F0030504F0010400942A4C2E1973
:100B1000B4689D072F0F09FA07F5AC43B0F1904F69
:100B200004D0264DA84203D1012512E0002510E093
:100B3000234DA84201D102250BE0224DA84201D14C
:100B4000032506E0204DA84202D1042501E027E05C
:100B50000525BD402543B560DBF800405D464E6885
:100B60009443F60300D514432C60DEF8004075462C
:100B70004E689443B60300D514432C600C4D0835E1
:100B80002C684E689443F60200D514432C60084D3F
:100B90000C352C684E689443B60200D514432C6083
:100BA0005B1C0A6832FA03F47FF45AAFBDE8F88F91
:100BB0000004014000100240000001400004004811
:100BC00000080048000C0048001000480AB181618C
:100BD00070478162704700000148806870470000DC
:100BE0000C0000200248816802781144816070473F
:100BF0000C000020074810B5016841F010010160A9
:100C0000032000F061F8002000F006F800F024F85E
:100C1000002010BD0020024070B50D4D04464FF479
:100C20007A712878B1FBF0F00A490968B1FBF0F05D
:100C300000F034FD48B9102C07D200222146501E86
:100C400000F022F800206C6070BD012070BD000033
:100C50000C000020180000200A4882B0816941F091
:100C600001018161816901F001010091C16941F0D7
:100C70008051C161C06900F080500090072002B02F
:100C800000F022B800100240F0B40E4B1B680C4676
:100C9000C3F30223C3F10705042D00D90425191D50
:100CA000072901D2002300E0DB1E012606FA05F128
:100CB000491E214099409E40761E16403143F0BCAB
:100CC00001F04CB80CED00E0064900F0070208689E
:100CD0004FF6FF03184040EA0220034A1043086021
:100CE000704700000CED00E00000FA052DE9F84F18
:100CF00004460068804DC0036FD5E8690026C00037
:100D000008D4E86940F08050E861E869012600F005
:100D10008050009079480168C90512D40168804666
:100D200041F480710160FFF757FF074605E000BFFF
:100D3000FFF752FFC01B642835D8D8F80000C00563
:100D4000F6D5286A10F4407053D0A18801F44071A0
:100D500081424ED0286A4FF4803191FAA1F2B2FA62
:100D600082F29700664A4FF00108174420F4407061
:100D7000C7F8008491FAA1F1B1FA81F102EB810187
:100D80000023C1F800342862C00732D0FFF724FFE7
:100D9000074641F2883A4FF0020907E0FFF71CFFCF
:100DA000C11B514502D90320BDE8F88F99FAA9F17A
:100DB000B1FA81F141F040014846B8EB511F01D131
:100DC00029680CE090FAA0F1B1FA81F141F04001FC
:100DD000B0EB511F02D1296A01E015E0696A99FA66
:100DE000A9F0B0FA80F000F01F0008FA00F21142FA
:100DF000D4D0286A616820F44070084328621EB18C
:100E0000E86920F08050E8612078C00705D0286BA1
:100E1000A16820F00300084328632078800705D5E7
:100E2000286BE16820F440300843286320784007AD
:100E300005D5286B216920F44020084328632078D9
:100E4000800605D5286BE16920F01000084328636F
:100E50002068800305D56868A16B20F480000843F2
:100E600068602078400605D5286B216A20F02000B4
:100E7000084328632078000705D5286B616920F4B2
:100E80004010084328632078C00605D5286BA16967
:100E900020F44000084328632088800505D5686851
:100EA000E16A20F40000084368602078000605D558
:100EB000E86A616A20F4F8700843E8622088C00597
:100EC00005D5E86AA16A20F478500843E8622088D2
:100ED000C00405D5286B216B20F48070084328637B
:100EE0002088800405D5286B616B20F400700843CE
:100EF0002863002058E70000001002400070004006
:100F0000000042422DE9F0470F46050069D04A4EE5
:100F1000306800F00700B84209D2306820F00700BE
:100F200038433060306800F00700B84259D1287863
:100F3000424C800705D56068A96820F0F00008439E
:100F400060602878C0073DD06968012001290DD074
:100F5000022923D05FF0020393FAA3F2B2FA82F2DD
:100F600042F02002520904D0226803E04FF400331B
:100F7000F2E7626A93FAA3F3B3FA83F303F01F0371
:100F8000984002422DD0606820F003000843606062
:100F9000FFF722FE804641F288390CE04FF00073E3
:100FA000DAE700BFFFF718FEA0EB0801494502D9B8
:100FB0000320BDE8F0876068696800F00C00B0EBC2
:100FC000810FEFD1306800F00700B8420BD93068CC
:100FD00020F0070038433060306800F00700B84266
:100FE00001D00120E5E72878400705D56068E96869
:100FF00020F4E060084360602878000706D5606848
:10100000296920F4605040EAC100606000F04CF8AB
:101010006168F02292FAA2F201F0F001B2FA82F2D3
:10102000D140074A515CC840064908600020FFF7DC
:10103000F3FD0020BDE70000002002400010024048
:101040004828000818000020084809490068496835
:101050004FF4E06292FAA2F201F4E061B2FA82F295
:10106000D140044A515CC84070470000180000207D
:1010700000100240582800080848094900684968DB
:101080004FF4605292FAA2F201F46051B2FA82F285
:10109000D140044A515CC84070470000180000204D
:1010A0000010024058280008144B10B55A68144824
:1010B00002F00C0104291DD008291BD14FF4701433
:1010C00094FAA4F402F47011B4FA84F4E1400D4CE3
:1010D000DB6A615C0F2494FAA4F403F00F03B4FA02
:1010E00084F4E340074C1034D203E35C03D5B0FB37
:1010F000F3F0484310BD0448484310BD00100240BF
:1011000000127A002828000800093D002DE9F84F58
:10111000040071D02078FB4DC0074FF0010625D0A8
:1011200068687704C0F38100012807D06868C0F3BD
:10113000810002281BD16868C00318D597FAA7F070
:10114000B0FA80F040F02000400901D0286800E0AB
:10115000686A97FAA7F1B1FA81F101F01F0106FA66
:1011600001F1084265D060680028D2D061E0606873
:10117000B0F5803F0BD010B1B0F5A02F17D0286884
:1011800020F480302860286820F4802002E028685D
:1011900040F480302860E86AA16820F00F0008431E
:1011A000E862606820B3FFF717FD80460AE0286810
:1011B00040F480202860EAE7FFF70EFDA0EB08006E
:1011C000642872D897FAA7F0B0FA80F040F02000B7
:1011D000400901D0286800E0686A97FAA7F1B1FADF
:1011E00081F101F01F0106FA01F10842E4D020E08C
:1011F000FFF7F2FC804607E0C7E000BFFFF7ECFC1A
:10120000A0EB08006428DCD897FAA7F0B0FA80F0C9
:1012100040F02000400901D0286800E0686A97FA91
:10122000A7F1B1FA81F101F01F0106FA01F10842BC
:10123000E4D12078DFF8D08280074FF0000A4FF029
:10124000020759D568684FF0F80B10F00C0F07D063
:101250006868C0F3810002281BD16868C00318D4F5
:1012600097FAA7F0B0FA80F040F02000400901D0D2
:10127000286800E0686A97FAA7F1B1FA81F101F0F5
:101280001F0106FA01F108422BD0206901287CD108
:1012900027E0206988B396FAA6F0B0FA80F048F803
:1012A0002060FFF799FC814606E055E1FFF794FCCA
:1012B000A0EB0900022884D897FAA7F0B0FA80F0D2
:1012C00040F02000400901D0286800E0686A97FAE1
:1012D000A7F1B1FA81F101F01F0106FA01F108420C
:1012E000E4D028689BFAABF26169B2FA82F220F08E
:1012F000F80091400843286025E0FFE796FAA6F140
:10130000B1FA81F148F821A0FFF766FC814605E0BB
:10131000FFF762FCA0EB09000228CCD897FAA7F0EF
:10132000B0FA80F040F02000400901D0286800E0C9
:10133000686A97FAA7F1B1FA81F101F01F0106FA84
:1013400001F10842E4D1207800076AD5A069A0B372
:1013500096FAA6F0B0FA80F008EB8000C0F880643E
:10136000FFF73AFC814605E0FFF736FCA0EB0900E9
:101370000228A0D897FAA7F0B0FA80F040F06000F9
:10138000B6EB501F02D128680CE077E197FAA7F07E
:10139000B0FA80F040F06000B7EB501F01D1286A2E
:1013A00000E0686A97FAA7F1B1FA81F101F01F0134
:1013B00006FA01F21042D7D033E0FFE796FAA6F022
:1013C000B0FA80F008EB8000C0F880A4FFF704FCBE
:1013D000814605E0FFF700FCA0EB090002289CD83D
:1013E00097FAA7F0B0FA80F040F06000B6EB501F1B
:1013F00001D128680BE097FAA7F0B0FA80F040F02E
:101400006000B7EB501F01D1286A00E0686A97FAC4
:10141000A7F1B1FA81F101F01F0106FA01F21042C1
:10142000D8D12078400774D5E8694FF00009C00092
:1014300009D4E86940F08050E861E8694FF001099B
:1014400000F08050009031480168C90512D401684D
:1014500041F480710160FFF7BFFB834606E000BFE7
:10146000FFF7BAFBA0EB0B00642875D8274800688B
:10147000C005F5D5E06801280AD008B1052811D0CB
:10148000286A20F001002862286A20F0040002E0A7
:10149000286A40F001002862E068C8B3FFF79CFBAF
:1014A00083460DE0286A40F004002862F0E700BFA0
:1014B000FFF792FBA0EB0B0141F2883081424BD841
:1014C00097FAA7F0B0FA80F040F04000B6EB501F5A
:1014D00001D128680BE097FAA7F0B0FA80F040F04D
:1014E0004000B7EB501F01D1286A00E0686A97FA04
:1014F000A7F1B1FA81F101F01F0106FA01F21042E1
:10150000D6D035E00010024000004242007000409A
:1015100000E034E0FFF760FB834607E0FFF75CFB89
:10152000A0EB0B0141F28830814215D897FAA7F061
:10153000B0FA80F040F04000B6EB501F01D12868AF
:101540000CE097FAA7F0B0FA80F040F04000B7EB5B
:10155000501F02D1286A01E083E0686A97FAA7F178
:10156000B1FA81F101F01F0106FA01F21042D5D162
:10157000B9F1000F03D0E86920F08050E861E0691C
:1015800080B36968C1F38101022977D04FF080717F
:101590004F00022809D091FAA1F0B0FA80F048F883
:1015A00020A0FFF719FB04465EE050468A4691FAF8
:1015B000A1F1B1FA81F1C14648F82100FFF70CFB17
:1015C000804605E0FFF708FBA0EB0800022848D89A
:1015D00097FAA7F0B0FA80F040F02000400902D05E
:1015E000286801E056E0686A97FAA7F1B1FA81F13C
:1015F00001F01F0106FA01F10842E3D1D4E9081015
:101600000843696821F47411084368609AFAAAF0E3
:10161000B0FA80F049F82060FFF7DEFA044604E0F3
:10162000FFF7DAFA001B02281BD897FAA7F0B0FAE6
:1016300080F040F02000400901D0286800E0686A8E
:1016400097FAA7F1B1FA81F101F01F0106FA01F151
:101650000842E5D01EE000BFFFF7BEFA001B0228DB
:1016600002D90320BDE8F88F97FAA7F0B0FA80F00E
:1016700040F02000400902D0286801E00CE0686AD0
:1016800097FAA7F1B1FA81F101F01F0106FA01F111
:101690000842E1D10020E5E70120E3E710B5401E54
:1016A000B0F1807F01D3012010BD4FF0E0246061D4
:1016B0000F21601700F052FB0020A061072020617D
:1016C000002010BD30B590F83C20012A1FD0012227
:1016D00080F83C200268536894680E4DAA4202D0FC
:1016E0000D4DAA4203D123F470054B682B4323F020
:1016F00070050B6889682B4324F0800421435360F4
:1017000002689160002180F83C10084630BD02203C
:1017100030BD0000002C01400034014010B586B0FF
:10172000044614216846FEF762FD2068B0F1804F40
:1017300014D10B48416941F4801141614069002195
:1017400000F480100590982000900220CDE901015E
:10175000CDE9031069460348FFF774F906B010BDE0
:1017600000100240000C004870B5044690F83C00A0
:101770000D4601280ED0012684F83C60022084F832
:101780003D000C2A45D007DC5AB1042A1BD0082A98
:1017900078D12CE0022070BD102A4ED0142A71D1CD
:1017A0005DE0206800F0B8FB2068816941F0080125
:1017B00081612068816921F004018161206881696B
:1017C0002A69114311E0206800F0F4FB2068816968
:1017D00041F4006181612068816921F48061816147
:1017E000206881692A6941EA022181614AE0206812
:1017F00000F028FC2068C16941F00801C16120683F
:10180000C16921F00401C1612068C1692A691143DD
:1018100011E0206800F05EFC2068C16941F40061BD
:10182000C1612068C16921F48061C1612068C1691A
:101830002A6941EA0221C16124E0206800F084FCA9
:101840002068416D41F0080141652068416D21F03B
:10185000040141652068416D2A69114311E0206847
:1018600000F0AAFC2068416D41F4006141652068E8
:10187000416D21F4806141652068416D2A6941EA2A
:101880000221416584F83D60002084F83C0070BD71
:1018900010B5040003D094F83D0010B107E001201A
:1018A00010BD002084F83C00204600F00DF8022016
:1018B00084F83D00211D206800F0CAFA012084F858
:1018C0003D00002010BD000008B50068B0F1804F59
:1018D00008D10548C16941F00101C161C06900F04A
:1018E0000100009008BD00000010024010B5044641
:1018F0000068012200F004FB0D48216881420BD0F2
:101900000C48814208D00C48814205D00B488142E6
:1019100002D00B48814203D1486C40F40040486437
:101920002068016841F001010160002010BD000045
:10193000002C0140003401400040014000440140BF
:101940000048014010B5040003D094F8690010B1BC
:1019500007E0012010BD002084F86800204600F058
:1019600027F8242084F869002068016821F001012B
:101970000160204600F0EAFC0128EBD0606A10B15B
:10198000204600F051FC2068416821F490414160FC
:101990002068816821F02A0181602068016841F097
:1019A000010101602046BDE8104000F0A1BC00002C
:1019B00010B586B0044614216846FEF718FC13499A
:1019C000206888421FD11248C16941F48021C16159
:1019D000C16901F480210591416941F4802141618F
:1019E0004069694600F4802005904FF44060009003
:1019F0000220019000200290032003900720049011
:101A00000448FFF71FF806B010BD00000048004072
:101A100000100240000400482DE9F84F044690F8F9
:101A20006A009A4616460D4620285CD1EDB1E6B113
:101A300094F86800012856D0012084F86800002737
:101A4000E766222084F86A004C34FFF7C5F8A681C7
:101A50008146E68154F8440C4FF48058FF214C3CF9
:101A6000404508D1206918B10EE00120BDE8F88F8B
:101A700040F2FF1003E020B9206928B17F20A4F8CC
:101A80005C00B4F85C601DE0A4F85C10F9E700BFEE
:101A9000B4F85A00401EA4F85A004B4600222021F8
:101AA0002046CDF800A000F03BFD08B10320DDE7A3
:101AB000A068404501D1206978B12068808C304011
:101AC00005F8010BB4F85A000028E1D1202084F871
:101AD0006A0084F868700020C8E72068808C304075
:101AE00025F8020BEEE70220C0E72DE9F843044693
:101AF00090F869001F4616460D4620284DD1CDB1FD
:101B0000C6B194F86800012847D0012084F8680025
:101B10004FF00008C4F86C80212084F8690050342C
:101B2000FFF75AF824F8026B814624F852694FF403
:101B3000805618E00120BDE8F883B4F85200401E3A
:101B4000A4F852004B46002280212046009700F066
:101B5000E7FCA0B9A068B04201D1206988B115F8AE
:101B6000010B21680885B4F852000028E5D14B46E6
:101B7000002240212046009700F0D2FC30B1032023
:101B8000D9E735F8020BC0F30800EAE7202084F813
:101B9000690084F868800020CDE70220CBE7FEE7EB
:101BA000F0B587B014216846FEF721FB3D48416936
:101BB00041F400114161416901F40011059141694D
:101BC00041F400214161416901F40021059141691D
:101BD00041F480014161416901F48001059141694D
:101BE00041F400314161416901F4003105914169DD
:101BF00041F480214161416901F4802105914169ED
:101C000041F4801141614069274E00F480104FF685
:101C100008750590002229463046FEF7D7FF372089
:101C2000009022480024CDE9010469463046FEF7C1
:101C300009FF00950125CDE901546946304603941A
:101C4000FEF700FFCDE900544FF090476946384653
:101C50000294FEF7F7FEE02000900226CDE9016431
:101C60000520CDE9034069463846FEF7EBFE4FF408
:101C7000C050CDE900060320CDE902400E200490BB
:101C800069463846FEF7DEFEC02000901220CDE9FE
:101C900001050420CDE9034069460548FEF7D2FE60
:101CA00007B0F0BD00100240001000480000121004
:101CB0000004004810B58AB00024079408941C2141
:101CC00068460994FEF793FA17484FF08041016087
:101CD0004721C0E9011442F20F71C0E90314846185
:101CE000FFF7D6FD079407A90F480994FFF7EAFC10
:101CF0006020009041F28730CDE90104002269465E
:101D000009480494FFF730FD042269460648FFF7AE
:101D10002BFD082269460448FFF726FD0248FFF71D
:101D2000FDFC0AB010BD00001C0000200948084955
:101D300001604FF4E1314160002181600C22C160FB
:101D4000C0E904128161C16101624162FFF7FABD1D
:101D5000004800405C000020FEE770470907090EBC
:101D6000002806DA00F00F0000F1E02080F8141DD2
:101D7000704700F1E02080F800147047704770470A
:101D8000FEF730BF30B59FB028216846FEF72FFA26
:101D9000142119A8FEF72BFA3C210AA8FEF727FA0E
:101DA00001204FF4A02100248DE8130004900225A7
:101DB0000004CDE907504FF4E01009906846FFF7A2
:101DC000A5F90F20CDE919056802CDE91B400221D4
:101DD00019A81D94FFF796F804200A900E940AA8FB
:101DE000FEF784FF1FB030BD1448016841F4700154
:101DF00001601348016841F0010101604168114A26
:101E0000114041600168104A11400160016821F4ED
:101E100080210160416821F4FE014160C16A21F026
:101E20000F01C162016B094A114001630021816009
:101E30000249C003803908607047000088ED00E067
:101E4000001002400CC07FF8FFFFF6FECCFC00FF44
:101E50002DE9F0430268234B234D244E244C4FF0D0
:101E60008049984207D0484505D0A84203D0B042E7
:101E700001D0A04203D122F070074A683A431D4FB7
:101E8000DFF874C0DFF8748098420DD048450BD05D
:101E9000A84209D0B04207D0A04205D0B84203D032
:101EA000604501D0404503D122F44075CA682A43F9
:101EB0004D6922F080022A4302608A68C2620A6881
:101EC0008262984207D0A04205D0B84203D0604554
:101ED00001D0404501D10969016301214161BDE89B
:101EE000F0830000002C0140000400400008004086
:101EF00000340140004001400044014000480140DE
:101F000010B50123046A8B409C430462036A8A4033
:101F10001343036210BD00002DE9F043026A22F072
:101F200001020262056A436882691C4C25F00205C1
:101F300022400C6822F0030214438A68194E2A4397
:101F4000174D194FDFF864C0DFF86490A84207D03E
:101F5000B04205D0B84203D0604501D0484506D113
:101F600022F00808CA6842EA080222F00402A842E5
:101F700007D0B04205D0B84203D0604501D04845F3
:101F800005D14D6923F440731D438B692B43436096
:101F90008461496841630262BDE8F0838FFFFEFF00
:101FA000002C014000340140004001400044014049
:101FB00000480140F0B5026A22F010020262056A90
:101FC00042688369194C1B4E23400C6823F440730C
:101FD00043EA042425F020038D6843EA0513144DD9
:101FE000A84201D0B04206D1CF6823F0800343EA73
:101FF000071323F04003A8420AD0B04208D00E4D88
:10200000A84205D00D4DA84202D00D4DA84207D1DF
:102010004D6922F4406242EA85028D6942EA8502F6
:1020200042608461496881630362F0BDFF8FFFFEF7
:10203000002C0140003401400040014000440140B8
:1020400000480140F0B5026A22F480720262056A1B
:102050004368C269194C1B4E22400C6822F00302EF
:10206000144325F400728D6842EA0522144DA842FB
:1020700001D0B04206D1CF6822F4006242EA0722C2
:1020800022F48062A8420AD0B04208D00E4DA84285
:1020900005D00E4DA84202D00D4DA84207D14D6982
:1020A00023F4405343EA05138D6943EA0513436063
:1020B000C4614968C1630262F0BD00008FFFFEFF8A
:1020C000002C014000340140004001400044014028
:1020D0000048014030B5026A22F480520262046A6C
:1020E0004268C369124D24F400542B400D6823F458
:1020F000407343EA05238D6844EA05340D4DA84238
:102100000BD00D4DA84208D00C4DA84205D00C4D67
:10211000A84202D00B4DA84204D14D6922F480425E
:1021200042EA85124260C36149680164046230BDBD
:10213000FF8FFFFE002C01400034014000400140B1
:10214000004401400048014030B5026A22F4803268
:102150000262046A4268436D114D2B400D681D43B5
:1021600024F400330C8943EA04430E4CA0420BD004
:102170000D4CA04208D00D4CA04205D00C4CA04202
:1021800002D00C4CA04204D14C6922F4803242EAC5
:1021900004224260456549688165036230BD0000E4
:1021A0008FFFFEFF002C0140003401400040014041
:1021B000004401400048014030B5026A22F4801218
:1021C0000262046A4268436D114D24F400142B40EE
:1021D0000D6843EA05230D8944EA05540D4DA842D4
:1021E0000BD00D4DA84208D00C4DA84205D00C4D87
:1021F000A84202D00B4DA84204D14D6922F480229E
:1022000042EA8522426043654968C165046230BD87
:10221000FF8FFFFE002C01400034014000400140D0
:10222000004401400048014090F82410C90706D03E
:1022300001684A68836A22F400321A434A6090F8BF
:102240002410890706D501684A68C36A22F48032DF
:102250001A434A6090F82410490706D501684A6875
:10226000036B22F480221A434A6090F82410090775
:1022700006D501684A68436B22F400421A434A605B
:1022800090F82410C90606D501688A68836B22F489
:1022900080521A438A6090F82410890606D5016896
:1022A0008A68C36B22F400521A438A6090F82410A3
:1022B000490611D501684A68036C22F480121A435A
:1022C0004A60016CB1F5801F06D101684A68436C11
:1022D00022F4C0021A434A6090F82410090606D579
:1022E00001684A68806C22F4002202434A60704709
:1022F000F8B500260446C666FEF76EFC0546206863
:1023000000686FF07E47000708D52B4600224FF487
:1023100000112046009700F003F960B920680068BA
:1023200040070AD52B4600224FF480012046009733
:1023300000F0F6F808B10320F8BD202084F8690009
:1023400084F86A0084F868600020F8BD2DE9F04147
:10235000044610202369A268E6691A4363690021D4
:1023600033431A4323680D461E6849F20C67BE4387
:1023700016431E6022685368E66823F440533343D3
:102380005360236AA2691A4323689E6826F4306664
:1023900016439E605A4F22685A4B0603BA420CD12C
:1023A0001B6B13F0030306D0012B4DD0022B4DD035
:1023B000032B4CD146E0012049E0534FBA420CD1E7
:1023C0001B6B13F440333BD0B3423DD0B3F5003F19
:1023D0003CD0B3F5403F3AD134E04C4FBA420DD136
:1023E0001B6B13F440232BD0B3F5802F2CD0B3F507
:1023F000002F2BD0B3F5402F29D123E0444FBA4210
:102400000DD11B6B13F440131AD0B3F5801F1BD0F2
:10241000B3F5001F1AD0B3F5401F18D112E03D4F9D
:10242000BA4214D11B6B13F4400309D0B3F5800FEB
:102430000AD0B3F5000F09D0B3F5400F07D101E082
:10244000002004E0022002E0042000E00820E76908
:102450004FF400439F4226D109281DD2DFE800F047
:102460000508121C151C1C1C1800FEF7EDFD01E0F0
:10247000FEF702FE4100606801EB5001B1FBF0F095
:1024800081B20AE024496068F6E7FEF70DFEF1E745
:10249000606806EB5001F1E7012521F00F00C1F360
:1024A000420108431CE0092825D2DFE800F00508B6
:1024B0000B24102424241C00FEF7C6FD09E0FEF7BF
:1024C000DBFD06E01549606801EB50010EE0FEF708
:1024D000EBFD0146606801EB5001B1FBF0F080B20A
:1024E0002168C86008E0606803EB5001B1FBF0F0C0
:1024F00080B2D06000E001252846BDE8F0810000F0
:1025000000380140001002400044004000480040F4
:10251000004C0040005000400024F40000127A00FB
:102520002DE9F041984617460E460446069D1DE0EB
:10253000681C1BD02DB1FEF74FFBA0EB0800A84292
:1025400014D92068016821F4D07101602068816885
:1025500021F001018160202084F8690084F86A007C
:10256000002084F868000320BDE8F0812068C0697D
:1025700036EA000004D00020B842D9D00020F3E7AA
:102580000120F9E7FEE7000000B583B09FED060BE0
:102590000A4601468DED000B6846FDF7E8FE9DED0D
:1025A000000B03B000BD00000000000000000000B0
:1025B00002E008C8121F08C1002AFAD1704770470C
:1025C000002001E001C1121F002AFBD17047303802
:1025D0000A2801D20120704700207047074910B532
:1025E00048600822A1F1B000FFF7BEF803480821B7
:1025F000BDE81040B038FFF779B90000CC000020EA
:10260000074910B548600422A1F1B000FFF7ACF80B
:1026100003480421BDE81040B038FFF767B9000057
:10262000CC000020074910B548600022A1F1B0009D
:10263000FFF79AF803480021BDE81040B038FFF7D3
:1026400055B90000CC0000202DED028BFEF7D2FA28
:10265000FFF798FBFFF7A4FAFFF72CFBFFF766FBE9
:1026600000216248FFF742F904216048FFF73EF974
:1026700008215E48FFF73AF95C480026B030602137
:1026800086600661C0E9001601463246B038FFF7A1
:102690006BF800215548FFF729F954490422B0315D
:1026A0005248FFF761F804215048FFF71FF94F49DE
:1026B0000822B0314D48FFF757F808214B48FFF783
:1026C00015F9002449486423022249A14030FFF74C
:1026D0000CFA641CE4B2192CF4D300214348FFF730
:1026E00005F942486423162242A14030FFF7FDF964
:1026F000DFF818814FF480779FED458B3B4D464CBA
:10270000CC354549394864230122491C4030FFF744
:1027100083F90028F5D160780D280DD03E49334863
:1027200064230122491C4030FFF7DFF920786178EB
:102730002954401C2070E4E72078642303222E549F
:102740002A48267035A14030FFF7CFF9274834A139
:10275000CC30FDF757FD20B9012239464046FEF73F
:1027600035FA22482FA1CC30FDF74CFD20B90022CC
:1027700039464046FEF72AFA287852280FD1002120
:10278000681CFFF701FF53EC182B51EC100BFDF701
:1027900047FDFDF7B7FD80B26080FFF743FF287863
:1027A00047280FD10021681CFFF7EEFE53EC182BD1
:1027B00051EC100BFDF734FDFDF7A4FD80B26080F5
:1027C000FFF71EFF287842289BD10021681CFFF7E5
:1027D000DBFE53EC182B51EC100BFDF721FDFDF740
:1027E00091FD80B26080FFF7F9FE8AE71C000020AF
:1027F0000D0A000057656C636F6D655F746F207420
:1028000065726D696E616C0D0A3E00000010004833
:102810000000000000C05840000000200D0A3E00EB
:102820004F4E00004F464600020304050607080904
:102830000A0B0C0D0E0F1010010203040506070809
:10284000090A0B0C0D0E0F10000000000000000024
:102850000102030406070809000000000102030446
:10286000DDDDDDDDDCBBBBDDDDDDDDDDDDDDDDDDDD
:10287000988888888888888877777777778888881D
:1028800085555556666666666666666666688888B5
:102890008333333222222222222222222228888DAE
:1028A000C0280008000000201C000000B02500081F
:1028B000DC2800081C00002004050000C0250008DA
:1028C0000000000000000000000000000100000007
:0C28D000100000000000000000127A0060
:040000050800018965
:00000001FF
