:020000040800F2
:10000000180400209D010008930E0008AD0C0008A4
:10001000910E000809020008750F0008000000009A
:10002000000000000000000000000000B70E000803
:100030000B02000800000000B50E0008B90E000811
:10004000B7010008B7010008B7010008B7010008B0
:10005000B7010008B7010008B7010008B7010008A0
:10006000B7010008B7010008B7010008B701000890
:10007000B7010008B7010008B7010008B701000880
:10008000B7010008B7010008B7010008B701000870
:10009000B7010008B7010008B70100080D02000809
:1000A000B7010008B7010008B7010008B701000850
:1000B000B7010008B7010008B7010008B701000840
:1000C000B7010008B7010008B7010008B701000830
:1000D000B7010008B7010008B7010008B701000820
:1000E000B7010008B7010008B7010008B701000810
:1000F000B7010008B7010008B7010008B701000800
:10010000000000000000000000000000B70100082F
:10011000B7010008B7010008B7010008B7010008DF
:10012000B7010008B7010008B7010008B7010008CF
:10013000B7010008B701000800000000000000003F
:10014000B7010008B7010008B7010008000000006F
:10015000000000000000000000000000000000009F
:100160000000000000000000B7010008B70100080F
:10017000B7010008000000000000000000000000BF
:1001800000000000B7010008DFF80CD000F02AF8EA
:1001900000480047950F00081804002006488047D3
:1001A00006480047FEE7FEE7FEE7FEE7FEE7FEE75C
:1001B000FEE7FEE7FEE7FEE70D0F000889010008F5
:1001C000D2B201E000F8012B491EFBD27047002299
:1001D000F6E710B513460A4604461946FFF7F0FF46
:1001E000204610BD064C074D06E0E06840F00103D4
:1001F00094E8070098471034AC42F6D3FFF7C8FFE5
:100200000410000824100008FEE7704710B54020D5
:1002100000F032F8802000F02FF84FF4807000F0EA
:100220002BF8BDE810404FF4007000F025B8000036
:1002300070B5044600F0F6F80546601C02D004488C
:100240000078044400F0EEF8401BA042FAD370BDE1
:10025000040000200749402807D0802807D0B0F5C7
:10026000007F01D10020087070470120FBE7FF20CC
:10027000F9E7000000000020044910B50A680242B6
:1002800002D00860FFF7E6FF10BD00001404014033
:100290002DE9F84FDFF864B100234FF0010C4FF067
:1002A000030A4FF00F090BF1040EA0E00CFA03F65D
:1002B000324072D04C68022C01D0122C0ED1DC08D6
:1002C00000EB8408D8F820405D07EF0E09FA07F527
:1002D000AC430D69BD402543C8F8205007685D0058
:1002E00091F804800AFA05F408F00308A74308FA15
:1002F00005F848EA0708C0F800804F68012F05D0CC
:10030000022F03D0112F01D0122F11D18768D1F8FD
:100310000C80A74308FA05F848EA0708C0F80880E7
:100320004768B7430E79C6F300169E403E434660C9
:10033000C668A6438C68AC403443C4604C68E40093
:1003400054D52F4CA56945F00105A561A46923F09A
:10035000030504F0010400942A4C2E19B4689D078B
:100360002F0F09FA07F5AC43B0F1904F04D0264D9A
:10037000A84203D1012512E0002510E0234DA84238
:1003800001D102250BE0224DA84201D1032506E050
:10039000204DA84202D1042501E027E00525BD40FB
:1003A0002543B560DBF800405D464E689443F60394
:1003B00000D514432C60DEF8004075464E68944327
:1003C000B60300D514432C600C4D08352C684E68DC
:1003D0009443F60200D514432C60084D0C352C686C
:1003E0004E689443B60200D514432C605B1C0A6827
:1003F00032FA03F47FF45AAFBDE8F88F00040140ED
:1004000000100240000001400004004800080048BD
:10041000000C0048001000480AB1816170478162F9
:100420007047000001488068704700000400002009
:1004300002488168027811448160704704000020FE
:10044000074810B5016841F010010160032000F079
:100450006BF8002000F006F800F024F8002010BD32
:100460000020024070B50D4D04464FF47A71287893
:10047000B1FBF0F00A490968B1FBF0F000F002FCB2
:1004800048B9102C07D200222146501E00F02CF84B
:1004900000206C6070BD012070BD000004000020D1
:1004A00010000020094808B5816941F0010181610F
:1004B000816901F001010091C16941F08051C16180
:1004C000C06900F08050009008BD0000001002409C
:1004D00000F01F02012191404009800000F1E0205E
:1004E000C0F8001170470000F0B40E4B1B680C46BA
:1004F000C3F30223C3F10705042D00D90425191DF8
:10050000072901D2002300E0DB1E012606FA05F1CF
:10051000491E214099409E40761E16403143F0BC52
:1005200000F0B8BC0CED00E0064900F007020868D6
:100530004FF6FF03184040EA0220034A10430860C8
:10054000704700000CED00E00000FA052DE9F047CF
:100550000F46050069D04A4E306800F00700B842E7
:1005600009D2306820F0070038433060306800F06E
:100570000700B84259D12878424C800705D56068F9
:10058000A96820F0F000084360602878C0073DD0DB
:100590006968012001290DD0022923D05FF00203F0
:1005A00093FAA3F2B2FA82F242F02002520904D086
:1005B000226803E04FF40033F2E7626A93FAA3F390
:1005C000B3FA83F303F01F03984002422DD0606812
:1005D00020F0030008436060FFF724FF804641F2EB
:1005E00088390CE04FF00073DAE700BFFFF71AFF1D
:1005F000A0EB0801494502D90320BDE8F0876068F7
:10060000696800F00C00B0EB810FEFD1306800F0AA
:100610000700B8420BD9306820F00700384330603B
:10062000306800F00700B84201D00120E5E72878E3
:10063000400705D56068E96820F4E0600843606021
:100640002878000706D56068296920F4605040EAE0
:10065000C100606000F01CF86168F02292FAA2F21A
:1006600001F0F001B2FA82F2D140074A515CC84071
:10067000064908600020FFF7F5FE0020BDE70000F6
:100680000020024000100240F40F0008100000207B
:10069000144B10B55A68144802F00C0104291DD0FF
:1006A00008291BD14FF4701494FAA4F402F47011C9
:1006B000B4FA84F4E1400D4CDB6A615C0F2494FAD7
:1006C000A4F403F00F03B4FA84F4E340074C1034AD
:1006D000D203E35C03D5B0FBF3F0484310BD0448FC
:1006E000484310BD0010024000127A00D40F0008E9
:1006F00000093D002DE9F84F040071D02078FB4D32
:10070000C0074FF0010625D068687704C0F3810068
:10071000012807D06868C0F3810002281BD16868EF
:10072000C00318D597FAA7F0B0FA80F040F0200087
:10073000400901D0286800E0686A97FAA7F1B1FA89
:1007400081F101F01F0106FA01F1084265D06068ED
:100750000028D2D061E06068B0F5803F0BD010B1C6
:10076000B0F5A02F17D0286820F4803028602868C2
:1007700020F4802002E0286840F480302860E86A95
:10078000A16820F00F000843E862606820B3FFF71B
:1007900049FE80460AE0286840F480202860EAE7A5
:1007A000FFF740FEA0EB0800642872D897FAA7F084
:1007B000B0FA80F040F02000400901D0286800E045
:1007C000686A97FAA7F1B1FA81F101F01F0106FA00
:1007D00001F10842E4D020E0FFF724FE804607E064
:1007E000C7E000BFFFF71EFEA0EB08006428DCD8BE
:1007F00097FAA7F0B0FA80F040F02000400901D04D
:10080000286800E0686A97FAA7F1B1FA81F101F06F
:100810001F0106FA01F10842E4D12078DFF8D08206
:1008200080074FF0000A4FF0020759D568684FF073
:10083000F80B10F00C0F07D06868C0F38100022895
:100840001BD16868C00318D497FAA7F0B0FA80F0FB
:1008500040F02000400901D0286800E0686A97FA5B
:10086000A7F1B1FA81F101F01F0106FA01F1084286
:100870002BD0206901287CD127E0206988B396FA23
:10088000A6F0B0FA80F048F82060FFF7CBFD814673
:1008900006E055E1FFF7C6FDA0EB0900022884D869
:1008A00097FAA7F0B0FA80F040F02000400901D09C
:1008B000286800E0686A97FAA7F1B1FA81F101F0BF
:1008C0001F0106FA01F10842E4D028689BFAABF256
:1008D0006169B2FA82F220F0F80091400843286082
:1008E00025E0FFE796FAA6F1B1FA81F148F821A0D8
:1008F000FFF798FD814605E0FFF794FDA0EB0900A6
:100900000228CCD897FAA7F0B0FA80F040F0200087
:10091000400901D0286800E0686A97FAA7F1B1FAA7
:1009200081F101F01F0106FA01F10842E4D12078BB
:1009300000076AD5A069A0B396FAA6F0B0FA80F0D5
:1009400008EB8000C0F88064FFF76CFD814605E08D
:10095000FFF768FDA0EB09000228A0D897FAA7F0DE
:10096000B0FA80F040F06000B6EB501F02D128686A
:100970000CE077E197FAA7F0B0FA80F040F0600061
:10098000B7EB501F01D1286A00E0686A97FAA7F117
:10099000B1FA81F101F01F0106FA01F21042D7D03D
:1009A00033E0FFE796FAA6F0B0FA80F008EB80009B
:1009B000C0F880A4FFF736FD814605E0FFF732FD61
:1009C000A0EB090002289CD897FAA7F0B0FA80F0B3
:1009D00040F06000B6EB501F01D128680BE097FA99
:1009E000A7F0B0FA80F040F06000B7EB501F01D1E3
:1009F000286A00E0686A97FAA7F1B1FA81F101F07C
:100A00001F0106FA01F21042D8D12078400774D5B0
:100A1000E8694FF00009C00009D4E86940F080504F
:100A2000E861E8694FF0010900F08050009031481A
:100A30000168C90512D4016841F480710160FFF7B3
:100A4000F1FC834606E000BFFFF7ECFCA0EB0B00D7
:100A5000642875D827480068C005F5D5E0680128E6
:100A60000AD008B1052811D0286A20F001002862B8
:100A7000286A20F0040002E0286A40F001002862A1
:100A8000E068C8B3FFF7CEFC83460DE0286A40F06B
:100A900004002862F0E700BFFFF7C4FCA0EB0B01E5
:100AA00041F2883081424BD897FAA7F0B0FA80F033
:100AB00040F04000B6EB501F01D128680BE097FAD8
:100AC000A7F0B0FA80F040F04000B7EB501F01D122
:100AD000286A00E0686A97FAA7F1B1FA81F101F09B
:100AE0001F0106FA01F21042D6D035E00010024094
:100AF000000042420070004000E034E0FFF792FC4A
:100B0000834607E0FFF78EFCA0EB0B0141F2883033
:100B1000814215D897FAA7F0B0FA80F040F0400073
:100B2000B6EB501F01D128680CE097FAA7F0B0FA95
:100B300080F040F04000B7EB501F02D1286A01E07E
:100B400083E0686A97FAA7F1B1FA81F101F01F0119
:100B500006FA01F21042D5D1B9F1000F03D0E869CD
:100B600020F08050E861E06980B36968C1F38101D9
:100B7000022977D04FF080714F00022809D091FAF6
:100B8000A1F0B0FA80F048F820A0FFF74BFC044633
:100B90005EE050468A4691FAA1F1B1FA81F1C14670
:100BA00048F82100FFF73EFC804605E0FFF73AFCDD
:100BB000A0EB0800022848D897FAA7F0B0FA80F016
:100BC00040F02000400902D0286801E056E0686A41
:100BD00097FAA7F1B1FA81F101F01F0106FA01F1CC
:100BE0000842E3D1D4E908100843696821F474117C
:100BF000084368609AFAAAF0B0FA80F049F82060D9
:100C0000FFF710FC044604E0FFF70CFC001B022871
:100C10001BD897FAA7F0B0FA80F040F02000400906
:100C200001D0286800E0686A97FAA7F1B1FA81F16B
:100C300001F01F0106FA01F10842E5D01EE000BFF5
:100C4000FFF7F0FB001B022802D90320BDE8F88F54
:100C500097FAA7F0B0FA80F040F02000400902D0E7
:100C6000286801E00CE0686A97FAA7F1B1FA81F10F
:100C700001F01F0106FA01F10842E1D10020E5E789
:100C80000120E3E710B5401EB0F1807F01D30120C1
:100C900010BD4FF0E02460610F21601700F0FAF8FA
:100CA0000020A06107202061002010BDFEE70000A9
:100CB00070B5040041D00022284D4FF480712846C1
:100CC000FFF7AAFB012C3AD05FF000024FF400714D
:100CD0002846FFF7A1FB022C33D000224FF480619D
:100CE0002846FFF799FB032C2DD000224FF400611A
:100CF0002846FFF791FB042C27D000224FF48051A7
:100D00002846FFF789FB052C21D000224FF4005123
:100D10002846FFF781FB062C1BD000224FF48041B0
:100D20002846FFF779FB072C15D000222846BDE89E
:100D300070404FF40041FFF76FBB0122BCE7012276
:100D4000C4E70122CAE70122D0E70122D6E7012247
:100D5000DCE70122E2E70122E8E70000001000489A
:100D6000F0B587B014216846FFF731FA424841696F
:100D700041F400114161416901F40011059141699B
:100D800041F400214161416901F40021059141696B
:100D900041F480014161416901F48001059141699B
:100DA00041F400314161416901F40031059141692B
:100DB00041F4802141614069304E00F480204FF6BB
:100DC00008750590002229463046FFF725FB37209D
:100DD00000902B480024CDE9010469463046FFF716
:100DE00057FA00950125CDE9015469463046039430
:100DF000FFF74EFACDE900544FF090476946384668
:100E00000294FFF745FAE02000900226CDE9016444
:100E10000520CDE9034069463846FFF739FA4FF41B
:100E2000707000901748CDE9010469461648FFF735
:100E30002FFA4FF4C050CDE900060320CDE902405F
:100E40000E20049069463846FFF722FAC020009031
:100E50001220CDE901050420CDE9034069460B4885
:100E6000FFF716FA002201211720FFF73DFB17209C
:100E7000FFF72EFB07B0F0BD001002400010004845
:100E80000000121000001110000800480004004883
:100E9000FEE770470907090E002806DA00F00F0088
:100EA00000F1E02080F8141D704700F1E02080F888
:100EB0000014704770477047FFF7BABA30B58FB06B
:100EC00028216846FFF783F914210AA8FFF77FF964
:100ED00001204FF4A02100248DE813000490022586
:100EE0000004CDE907504FF4E01009906846FFF781
:100EF00001FC0F20CDE90A056802CDE90C40022172
:100F00000AA80E94FFF722FB0FB030BD1448016809
:100F100041F4700101601348016841F00101016072
:100F20004168114A114041600168104A1140016056
:100F3000016821F480210160416821F4FE014160D3
:100F4000C16A21F00F01C162016B094A11400163BE
:100F5000002181600249C0038039086070470000A9
:100F600088ED00E0001002400CC07FF8FFFFF6FEA5
:100F7000CCFC00FFFEE702E008C8121F08C1002AEF
:100F8000FAD170477047002001E001C1121F002A0A
:100F9000FBD17047FFF754FAFFF790FFFFF7E0FE31
:100FA0000B4C607800F00700FFF782FE94F9000018
:100FB000012802D0401C03D005E06078401E01E00B
:100FC0006078401C60703220FFF732F9E9E70000DA
:100FD0000000002002030405060708090A0B0C0D97
:100FE0000E0F10100102030405060708090A0B0C76
:100FF0000D0E0F10000000000000000001020304AD
:101000000607080924100008000000201400000052
:10101000760F0008381000081400002004040000B7
:10102000860F0008FF000000010000001000000013
:081030000000000000127A002C
:040000050800018965
:00000001FF
