:020000040800F2
:10000000581A002059020008610200086302000823
:10001000650200086702000869020008000000008D
:100020000000000000000000000000009D0100082A
:100030006D02000800000000F1010008D52700084B
:1000400073020008730200087302000873020008BC
:1000500073020008730200087302000873020008AC
:10006000730200087302000873020008730200089C
:10007000730200087302000873020008730200088C
:10008000730200087302000873020008730200087C
:10009000730200087302000873020008730200086C
:1000A000730200087302000873020008730200085C
:1000B000730200087302000873020008730200084C
:1000C000730200087302000873020008730200083C
:1000D000730200087302000873020008730200082C
:1000E000730200087302000873020008730200081C
:1000F000730200087302000873020008730200080C
:100100000000000000000000000000007302000872
:1001100073020008730200087302000873020008EB
:1001200073020008730200087302000873020008DB
:1001300073020008730200080000000000000000C5
:100140007302000873020008730200080000000038
:10015000000000000000000000000000000000009F
:100160000000000000000000730200087302000895
:100170007302000800000000000000000000000002
:100180000000000073020008DFF80CD000F01AFB3A
:1001900000480047E93E0008581A00202B4B196818
:1001A0000868B0E8F04F80F30988BFF36F8F4FF015
:1001B000000080F3118870470000000006480068C6
:1001C000006880F3088862B661B6BFF34F8FBFF353
:1001D0006F8F00DF00BF00BF08ED00E0DFF80C000C
:1001E000016841F470010160704700BF88ED00E0D4
:1001F000EFF30980BFF36F8F144B1A681EF0100FD6
:1002000008BF20ED108A20E9F04F106008B44FF0CD
:10021000500080F31188BFF34F8FBFF36F8F04F04E
:1002200085FA4FF0000080F3118808BC196808684F
:10023000B0E8F04F1EF0100F08BFB0EC108A80F34A
:100240000988BFF36F8F704700BF00BF30000020E8
:10025000EFF30580704700000648804706480047D6
:10026000FEE7FEE7FEE7FEE7FEE7FEE7FEE7FEE766
:10027000FEE7FEE76528000889010008202A04DB64
:10028000203A21FA02F00021704721FA02F3D0400F
:10029000C2F12002914008431946704740EA010329
:1002A0009B0703D009E008C9121F08C0042AFAD22C
:1002B00003E011F8013B00F8013B521EF9D27047F0
:1002C000D2B201E000F8012B491EFBD27047002298
:1002D000F6E710B513460A4604461946FFF7F0FF45
:1002E000204610BD421C10F8011B0029FBD1801ACA
:1002F00070472DE9FE4F81EA030404F0004421F029
:10030000004100944FF0000B23F0004350EA010439
:100310005ED052EA03045BD0C3F30A54C1F30A551A
:100320002C44A4F2F3340194A0FB0254C1F3130152
:1003300041F48011C3F3130343F4801301FB02441F
:1003400000FB034E840A970A44EA815447EA835724
:10035000A4FB076802958D0A05FB07854FEA932CDD
:1003600004FB0C542705029D4FEA065847EA16374E
:10037000B5EB08056EEB070C870E920E47EA811766
:1003800042EA8312A7FB0201B6EB0B0164EB000407
:100390002B0D43EA0C335E1844EB1C50DA465146F1
:1003A000E7FB0201C5F313044FEA0B3343EA14538E
:1003B0004FEA0432019C43EA0603A4F10C040294C0
:1003C000009CCDE900B400F069F803B0BDE8F08FFF
:1003D00000200146F9E70EB540F2334102910021B9
:1003E000CDE900110A460B4600F058F803B000BDF5
:1003F00030B50B46014600202022012409E021FAF5
:1004000002F59D4205D303FA02F5491B04FA02F5F1
:100410002844151EA2F10102F1DC30BD2DE9F05F88
:100420000546002092469B46884606468146402463
:100430001BE02846414647462246FFF71FFF53462A
:100440005A46C01A914110D311461846224600F070
:10045000CBF92D1A67EB01084F46224601200021F7
:1004600000F0C2F917EB00094E41201EA4F101046F
:10047000DFDC484631462A464346BDE8F09F10B5CA
:10048000141E73F1000408DA401C41F100019218B7
:100490005B411A4301D120F0010010BD2DE9F04D60
:1004A00092469B4611B1B1FA81F202E0B0FA80F2B5
:1004B0002032904600F098F904460F4640EA0A00C0
:1004C00041EA0B0153465A46084313D0114653EAFA
:1004D000010019D0C8F140025046FFF7CFFE054693
:1004E0000E4650465946424600F07EF9084305D074
:1004F000012004E020463946BDE8F08D0020054388
:1005000046EAE0762C4337430A986305E40AA0EBF9
:1005100008000022FD0A44EA47540A3002D50020B0
:100520000146E9E7010510196941DDE908450019AF
:100530006941BDE8F04DA2E72DE9FE4F804681EA12
:100540000300C00F0C46009021F0004123F000454D
:10055000B8EB0200A94105D24046214690461C4610
:100560000B46024623F00040104347D0270DC7F347
:100570000A00C3F30A510290401A019040286BDA36
:10058000C3F3130040F4801B0098924620B100236F
:10059000D2EB030A63EB0B0B01985946C0F1400202
:1005A000504600F021F906460D4650465946019A3C
:1005B00000F029F910EB08006141002487EA11528C
:1005C00084EAE7731A4340D0009A62B3019A012A81
:1005D0004FEA075215DC001B61EB02014FF00042AD
:1005E00002EA0752CDE90042001C41F58011324673
:1005F0002B46FFF753FF03B0BDE8F08F404621467E
:10060000F9E7001B61EB0201001C41F580130018A3
:100610005B412018A2F5001747EB030140EAD570B3
:10062000B6196D4111E06D084FEA360645EAC0750E
:100630004FEA0752001B61EB0201001C41F58011DB
:1006400049084FEA30000019514132462B4603B0A9
:10065000BDE8F04FFFF713BF0098012240000023D0
:10066000D0EB020263EBE073009821464FEAE0749E
:10067000B8EB000061EB0401E9E783F000435BE7BE
:1006800081F0004158E72DE9F04D81EA030404F0C0
:10069000004B21F0004514464FF0000A23F00041C2
:1006A00050EA050220D054EA01021DD0C5F30A57D2
:1006B0000246C5F31303C1F31300C1F30A5640F415
:1006C000801543F48013A7EB0608101BD64608F2EA
:1006D000FD3873EB050002D308F1010801E0921820
:1006E0005B41B8F1000F03DA00200146BDE8F08D50
:1006F00000204FF48011064684460EE0171B73EB72
:10070000050705D3121B63EB050306434CEA010CF6
:1007100049084FEA300092185B4150EA0107EDD1D9
:1007200052EA030012D082EA040083EA050108437A
:1007300005D0101BAB4106D20122002306E00022A7
:100740004FF0004302E06FF0010253101AEB060075
:100750004CEB085110EB0A0041EB0B01BDE8F04DEA
:10076000FFF78DBEC1F30A52C1F3130140F2FF330C
:1007700041F480119A4202DA00200146704740F2AB
:1007800033439A42A2F2334202DC5242FFF776BD73
:1007900000F02AB830B5041E71F1000404DB4FF0FC
:1007A0000044404264EB0101141E73F1000405DBB8
:1007B0001C464FF00043524263EB0403994208BFCA
:1007C000904230BD064C074D06E0E06840F0010362
:1007D00094E8070098471034AC42F6D3FFF7D8FCF2
:1007E0006051000880510008202A04DB203A00FAFA
:1007F00002F1002070479140C2F1200320FA03F378
:10080000194390407047202A06DBCB17203A41FA63
:1008100002F043EAE07306E041FA02F3D040C2F18D
:1008200020029140084319467047000070B5044605
:100830000068816801F00301012926D10168C90718
:1008400023D0816801F00D01012910D1816841F0A8
:100850000201816021680320086000F0E1FC054688
:100860000FE000BF00F0DCFC401B022809D9606CDF
:1008700040F010006064A06C40F00100A064012012
:1008800070BD20688068C007ECD1002070BD0000FA
:1008900070B504460068816801F00301012902D1A6
:1008A0000168C90720D18168104A11420DD18168C1
:1008B00041F00101816000F0B3FC05460FE000BF8C
:1008C00000F0AEFC401B022809D9606C40F010001B
:1008D0006064A06C40F00100A064012070BD20683D
:1008E0000068C043C007EBD1002070BD3F0000800E
:1008F000F0B595B00024009490F840202546012AD8
:1009000019D0012780F8407003689A6852077CD498
:100910004A681F26052A11D2D3F830C002EB4202E2
:10092000520096402CEA060C0E6896404CEA060CE3
:10093000C3F830C035E0022015B0F0BD0A2A0FD24E
:10094000D3F834C0521F02EB4202520096402CEA08
:10095000060C0E6896404CEA060CC3F834C020E042
:100960000F2A0FD2D3F838C00A3A02EB42025200E3
:1009700096402CEA060C0E6896404CEA060CC3F82A
:1009800038C00EE0D3F83CC00F3A02EB42025200EE
:1009900096402CEA060C0E6896404CEA060CC3F80A
:1009A0003CC00268936813F00C0F4FF0070374D13A
:1009B000D1F800E0BEF10A0F10D39669AEF10A0E2D
:1009C0000EEB4E0C03FA0CFE26EA0E06D1F808E0F8
:1009D0000EFA0CFE46EA0E0696610FE0D2F814C03D
:1009E0000EEB4E0603FA06FE2CEA0E0CD1F808E0D8
:1009F0000EFA06FE4CEA0E0CC2F814C002684E69EC
:100A0000D2F80CC0CCF3C10C00E0FDE04FEA4C0C76
:100A100006FA0CF6D1F810E0DFF848C2BEF1010F7B
:100A200042D0BEF1020F4DD0BEF1030F58D0BEF13F
:100A3000040F63D0166E91F800C006F0F846B6EBCE
:100A40008C6F03D1166E26F0004616660268566E4D
:100A500091F800C006F0F846B6EB8C6F03D1566EE5
:100A600026F0004656660268966E91F800C006F0C1
:100A7000F846B6EB8C6F03D1966E26F0004696666C
:100A80000268D66E91F800C006F0F846B6EB8C6F9F
:100A900003D1D66E26F00046D6660268966806F048
:100AA0000306012E3AD136E0D2F860E00EEA0C0ED1
:100AB00091F800C046EA8C664EEA060E4EF00046FB
:100AC0001666EAE7D2F864E00EEA0C0E91F800C070
:100AD00046EA8C664EEA060E4EF000465666DCE7A5
:100AE000D2F868E00EEA0C0E91F800C046EA8C6677
:100AF0004EEA060E4EF000469666CEE7D2F86CE05F
:100B00000EEA0C0E91F800C046EA8C664EEA060E1C
:100B10004EF00046C0E71668F6077AD1CE68012E7F
:100B200006D052F8B03F0E78B740BB43136021E0C7
:100B300052F8B06F91F800C007FA0CF73E43166008
:100B40000A680A2A0BD30668B769093A02EB42021F
:100B500093409F438B6893401F43B7610AE0076847
:100B60007E69521C02EB420293409E438B68934085
:100B70001E437E6103684FF0A0473B4EBB4201D04D
:100B8000B34201D1394A00E0394A0968102904D03A
:100B9000112907D012290AD03BE0D2F808C04FEA49
:100BA0000C2C08E0D2F808C04FEACC1C03E0D2F8C5
:100BB00008C04FEA4C2CBCF1000F2ADBBB420DD021
:100BC000B34201D100970CE02A4EDFF8ACC0B3422B
:100BD00002D1CDF800C004E0634501D1009600E0E9
:100BE00000959E6806F00306012E02D11E68F607E6
:100BF0000AD1009E8EB1B66806F00306012E0CD114
:100C0000009E3668F60708D0416C41F0200141642F
:100C1000012480F8405020468EE6102908D0112982
:100C20001AD01229F5D1916841F480019160F0E762
:100C3000BB42EED1916841F4000191600F49104A26
:100C40000968B1FBF2F101EB8101490000E0491EA6
:100C500000910029FBD1DCE7BB42DAD1916841F079
:100C60008071E3E700F0FF830001005000030050B3
:100C7000000700500004005000050050080000204C
:100C800040420F000068006C70470000F0B54FF064
:100C9000000695B0040037463546009605D0606CD6
:100CA000C00649D4606C18B134E0012015B0F0BD25
:100CB000A5642565E56484F84050204600F00AF9F3
:100CC00020688068C00025D42046FFF7AFFD0646A7
:100CD000606C00F0100131431CD1606C20F488502E
:100CE00040F0020060642068816821F0405181601A
:100CF0002068816841F0805181606D486D490068CD
:100D0000B0FBF1F000EB8000400000E0401E0090DE
:100D10000028FBD120688168C90002D58068800066
:100D20000AD5606C20F0020040F010006064A06CF6
:100D300040F00100A0640126606C00F01000304318
:100D400073D12068816849076FD4616C21F4807188
:100D500041F0020161644FF0A04E574B704501D045
:100D6000984201D1554A00E0554ADFF858C156492A
:100D7000704501D100930EE0984202D1CDF800E019
:100D800009E0884202D1CDF800C004E0604501D1FD
:100D9000009100E00095836803F00303012B02D16A
:100DA0000068C00710D1009840B1806800F00300CF
:100DB000012803D100980068C00705D190686368D6
:100DC00020F4403018439060D4E902201043A26B15
:100DD000012A02D04FF4805300E00023E26943EA85
:100DE00042331843636A3843012B0AD1F2B1626C73
:100DF00022F0020242F020026264A26C42F0010280
:100E0000A264E26A012A21D023688B4201D06345A3
:100E100018D14FF430774FF4E071BA4213D04FF449
:100E200080739A420AD139460DE038E0228D274B73
:100E300003EB4242024342F48030E2E78A4201D1AE
:100E4000194600E011460143206B084321688A6877
:100E500012F00C0F0AD1CA6844F202039A43CA6026
:100E6000A169626B890341EA420108432168CA68AB
:100E7000174B1A400243CA60206901282068016BA1
:100E800021F00F0102D1226A521E11430163A564B1
:100E9000606C20F0020040F00100606406E0606CCD
:100EA00020F0020040F01000606401263046FDE6AC
:100EB0000800002040420F000001005000030050D5
:100EC0000007005000050050000400500000FEFF25
:100ED00007C0F0FF00B5006887B0B0F1A04F12D195
:100EE0000A48416941F0805141614069694600F01A
:100EF0008050059010200090032001900020029067
:100F0000034800F0BBF807B000BD0000001002402D
:100F1000001400482DE9F04104460068806840074D
:100F200070D494F8400001280CD0012084F84000CF
:100F30002046FFF7ADFC03004FF0000605D084F813
:100F4000406086E00220BDE8F081606C40F60161FF
:100F5000884340F48070606420684FF0A0413E4AAE
:100F60003E4D884201D0904202D1D1F8087300E092
:100F70002F6817F01F0F3A4F03D0884201D0B842B4
:100F80000BD1D4F844C02CF4801CC4F844C0D0F871
:100F90000CC05FEA8C1C14D41BE0D4F844C04CF4A1
:100FA000801CC4F844C0904202D1D1F80CC005E0C6
:100FB000DFF8ACC00CF10C0CDCF800C01CF0007FBA
:100FC00007D0D4F844C02CF4005C4CF4805CC4F826
:100FD00044C0D4F844C05FEACC4C06D5D4F848C02D
:100FE0002CF0060CC4F848C000E0A66484F8406009
:100FF0001C2606602068884201D0904203D1D1F8B7
:10100000084301E024E02C6814F01F0F1BD0884235
:1010100001D0904202D1D1F8084300E02C6804F0DE
:101020001F04052C0FD0884201D0904202D1D1F884
:10103000082300E02A6802F01F02092A03D0884230
:1010400001D0B84205D1816841F00401816000E01F
:101050000223184677E700000001005008070050FF
:101060000004005031B500F0DBF8044600F0D8F879
:101070000099001B8842F9D338BD00002DE9F84FD4
:10108000DFF864B100234FF0010C4FF0030A4FF07A
:101090000F090BF1040EA0E00CFA03F6324072D0F7
:1010A0004C68022C01D0122C0ED1DC0800EB840815
:1010B000D8F820405D07EF0E09FA07F5AC430D693B
:1010C000BD402543C8F8205007685D0091F80480B2
:1010D0000AFA05F408F00308A74308FA05F848EAF5
:1010E0000708C0F800804F68012F05D0022F03D0F9
:1010F000112F01D0122F11D18768D1F80C80A7438E
:1011000008FA05F848EA0708C0F808804768B743B6
:101110000E79C6F300169E403E434660C668A6435D
:101120008C68AC403443C4604C68E40054D52F4C08
:10113000A56945F00105A561A46923F0030504F044
:10114000010400942A4C2E19B4689D072F0F09FA48
:1011500007F5AC43B0F1904F04D0264DA84203D11F
:10116000012512E0002510E0234DA84201D10225FF
:101170000BE0224DA84201D1032506E0204DA842F4
:1011800002D1042501E027E00525BD402543B560D7
:10119000DBF800405D464E689443F60300D51443E7
:1011A0002C60DEF8004075464E689443B60300D5C7
:1011B00014432C600C4D08352C684E689443F6029D
:1011C00000D514432C60084D0C352C684E689443B0
:1011D000B60200D514432C605B1C0A6832FA03F493
:1011E0007FF45AAFBDE8F88F0004014000100240C0
:1011F000000001400004004800080048000C0048BE
:10120000001000480069084000D001207047426982
:101210004A40426170470AB18161704781627047FC
:10122000014800687047000004000020024801687F
:10123000491C01607047000004000020074810B5F9
:10124000016841F010010160032000F075F80F20E3
:1012500000F006F800F018F8002010BD0020024051
:1012600010B5044607484FF47A710068B0FBF1F0FE
:1012700000F08EFD00222146501E00F03DF80020B7
:1012800010BD0000080000201A4808B5816941F02F
:1012900001018161806900F001000090032000F0ED
:1012A0004BF8002211466FF00B0000F025F80022E9
:1012B00011466FF00A0000F01FF8002211466FF08F
:1012C000090000F019F800221146501F00F014F830
:1012D00000221146101F00F00FF800220F21901E6F
:1012E00000F00AF800220F21BDE80840501E00F06F
:1012F00003B8000000100240F0B40E4B1B680C460F
:10130000C3F30223C3F10705042D00D90425191DD9
:10131000072901D2002300E0DB1E012606FA05F1B1
:10132000491E214099409E40761E16403143F0BC34
:1013300001F040BA0CED00E0064900F00702086831
:101340004FF6FF03184040EA0220034A10430860AA
:10135000704700000CED00E00000FA052DE9F84FA1
:1013600004460068804DC0036FD5E8690026C000C0
:1013700008D4E86940F08050E861E869012600F08F
:101380008050009079480168C90512D401688046F0
:1013900041F480710160FFF743FF074605E000BF9D
:1013A000FFF73EFFC01B642835D8D8F80000C00501
:1013B000F6D5286A10F4407053D0A18801F440712A
:1013C00081424ED0286A4FF4803191FAA1F2B2FAEC
:1013D00082F29700664A4FF00108174420F44070EB
:1013E000C7F8008491FAA1F1B1FA81F102EB810111
:1013F0000023C1F800342862C00732D0FFF710FF85
:10140000074641F2883A4FF0020907E0FFF708FF6C
:10141000C11B514502D90320BDE8F88F99FAA9F103
:10142000B1FA81F141F040014846B8EB511F01D1BA
:1014300029680CE090FAA0F1B1FA81F141F0400185
:10144000B0EB511F02D1296A01E015E0696A99FAEF
:10145000A9F0B0FA80F000F01F0008FA00F2114283
:10146000D4D0286A616820F44070084328621EB115
:10147000E86920F08050E8612078C00705D0286B2B
:10148000A16820F00300084328632078800705D571
:10149000286BE16820F44030084328632078400737
:1014A00005D5286B216920F4402008432863207863
:1014B000800605D5286BE16920F0100008432863F9
:1014C0002068800305D56868A16B20F4800008437C
:1014D00068602078400605D5286B216A20F020003E
:1014E000084328632078000705D5286B616920F43C
:1014F0004010084328632078C00605D5286BA169F1
:1015000020F44000084328632088800505D56868DA
:10151000E16A20F40000084368602078000605D5E1
:10152000E86A616A20F4F8700843E8622088C00520
:1015300005D5E86AA16A20F478500843E86220885B
:10154000C00405D5286B216B20F480700843286304
:101550002088800405D5286B616B20F40070084357
:101560002863002058E7000000100240007000408F
:10157000000042422DE9F047DFF8708105460E4633
:10158000D8F8000000F00700B0420CD2D8F80010E4
:1015900021F007013143C8F80010D8F8000000F02E
:1015A0000700B04277D12878514C800705D5606894
:1015B000A96820F0F000084360602878C00759D07F
:1015C0006968012001290DD0022929D05FF00203AA
:1015D00093FAA3F2B2FA82F242F02002520904D046
:1015E000226803E04FF40033F2E7626A93FAA3F350
:1015F000B3FA83F303F01F03984002424BD06068B4
:1016000020F0030008436060FFF70AFE69680746A0
:1016100041F2883001290DD00229814617D025E0FA
:101620004FF00073D4E700BFFFF7FAFDC11B494537
:1016300001D918E081466068C0F381000128F3D128
:1016400018E000BFFFF7ECFDC11B49450BD86068EF
:10165000C0F381000228F5D10CE000BFFFF7E0FDE8
:10166000C11B494502D90320BDE8F087606810F02E
:101670000C0FF3D1D8F80010404601F00701B14239
:101680000BD9016821F0070131430160006800F0C7
:101690000700B04201D00120E6E72878400705D5D1
:1016A0006068E96820F4E06008436060287800071B
:1016B00006D56068296920F4605040EAC100606086
:1016C00000F052F86168F02292FAA2F201F0F00103
:1016D000B2FA82F2D140074A515CC840064908601C
:1016E0000F20FFF7BDFD0020BEE7000000200240F4
:1016F000001002404851000808000020014800681E
:10170000704700000800002008480949006849683F
:101710004FF4E06292FAA2F201F4E061B2FA82F2CE
:10172000D140044A515CC8407047000008000020C6
:1017300000100240585100080848094900684968EB
:101740004FF4605292FAA2F201F46051B2FA82F2BE
:10175000D140044A515CC840704700000800002096
:101760000010024058510008144B10B55A68144834
:1017700002F00C0104291DD008291BD14FF470146C
:1017800094FAA4F402F47011B4FA84F4E1400D4C1C
:10179000DB6A615C0F2494FAA4F403F00F03B4FA3B
:1017A00084F4E340074C1034D203E35C03D5B0FB70
:1017B000F3F0484310BD0448484310BD00100240F8
:1017C00000127A002851000800093D002DE9F84F69
:1017D00005460078F74EC0074FF0010425D0706829
:1017E0006704C0F38100012807D07068C0F381004E
:1017F00002281BD17068C00318D597FAA7F0B0FA79
:1018000080F040F02000400901D0306800E0706AAC
:1018100097FAA7F1B1FA81F101F01F0104FA01F181
:10182000084264D0686800287DD060E06868B0F540
:10183000803F0BD010B1B0F5A02F17D0306820F446
:1018400080303060306820F4802002E0306840F45E
:1018500080303060F06AA96820F00F000843F06221
:10186000686828B3FFF7DCFC80460BE0306840F482
:1018700080203060EAE700BFFFF7D2FCA0EB080051
:10188000642871D897FAA7F0B0FA80F040F02000F1
:10189000400901D0306800E0706A97FAA7F1B1FA08
:1018A00081F101F01F0104FA01F10842E4D01EE0C9
:1018B000FFF7B6FC804605E0FFF7B2FCA0EB08009E
:1018C0006428DED897FAA7F0B0FA80F040F0200044
:1018D000400901D0306800E0706A97FAA7F1B1FAC8
:1018E00081F101F01F0104FA01F10842E4D12878E6
:1018F000DFF8C48280074FF0000A4FF0020732D5AC
:1019000070684FF0F80B10F00C0F07D07068C0F340
:101910008100022829D17068C00326D497FAA7F065
:10192000B0FA80F000E08BE040F02000400901D0E8
:10193000306800E0706A97FAA7F1B1FA81F101F01E
:101940001F0104FA01F1084202D02869012877D169
:1019500030689BFAABF26969B2FA82F220F0F800C3
:101960009140084330605AE064E1286988B394FAF2
:10197000A4F0B0FA80F048F82040FFF751FC81460F
:1019800006E000BFFFF74CFCA0EB0900022898D846
:1019900097FAA7F0B0FA80F040F02000400901D09B
:1019A000306800E0706A97FAA7F1B1FA81F101F0AE
:1019B0001F0104FA01F10842E4D030689BFAABF24F
:1019C00020F0F8016869B2FA82F290400143316078
:1019D00025E0FFE794FAA4F1B1FA81F148F821A0DB
:1019E000FFF71EFC814605E0FFF71AFCA0EB09009B
:1019F0000228CCD897FAA7F0B0FA80F040F0200087
:101A0000400901D0306800E0706A97FAA7F1B1FA96
:101A100081F101F01F0104FA01F10842E4D12878B4
:101A200000076CD5A869A8B394FAA4F0B0FA80F0C6
:101A300008EB8000C0F88044FFF7F2FB814607E026
:101A40008AE100BFFFF7ECFBA0EB090002289ED85B
:101A500097FAA7F0B0FA80F040F06000B4EB501FA6
:101A600001D130680BE097FAA7F0B0FA80F040F0AF
:101A70006000B7EB501F01D1306A00E0706A97FA3E
:101A8000A7F1B1FA81F101F01F0104FA01F210424D
:101A9000D8D034E0FFE794FAA4F1B1FA81F108EB71
:101AA0008101C1F880A4FFF7BBFB814606E000BFBF
:101AB000FFF7B6FBA0EB090002289AD897FAA7F027
:101AC000B0FA80F040F06000B4EB501F01D13068F4
:101AD0000BE097FAA7F0B0FA80F040F06000B7EBA7
:101AE000501F01D1306A00E0706A97FAA7F1B1FA8D
:101AF00081F101F01F0104FA01F21042D8D12878D7
:101B0000400774D5F0694FF00009C00009D4F069AE
:101B100040F08050F061F0694FF0010900F0805012
:101B2000009026480168C90512D4016841F480710B
:101B30000160FFF775FB834606E000BFFFF770FB0F
:101B4000A0EB0B00642875D81C480068C005F5D5CB
:101B5000E86801280AD008B1052811D0306A20F0C1
:101B600001003062306A20F0040002E0306A40F088
:101B700001003062E868E0B1FFF752FB83460DE0F8
:101B8000306A40F004003062F0E700BFFFF748FB26
:101B9000A0EB0B0141F2883081424BD897FAA7F0B5
:101BA000B0FA80F040F04000B4EB501F08D130682C
:101BB00012E01DE0001002400000424200700040B0
:101BC00097FAA7F0B0FA80F040F04000B7EB501F52
:101BD00001D1306A00E0706A97FAA7F1B1FA81F199
:101BE00001F01F0104FA01F21042CFD02EE034E0E0
:101BF000FFF716FB834607E0FFF712FBA0EB0B0194
:101C000041F28830814215D897FAA7F0B0FA80F0F7
:101C100040F04000B4EB501F01D130680CE097FA5F
:101C2000A7F0B0FA80F040F04000B7EB501F02D1AF
:101C3000306A01E083E0706A97FAA7F1B1FA81F1A6
:101C400001F01F0104FA01F21042D5D1B9F1000FE1
:101C500003D0F06920F08050F061E86980B37168CA
:101C6000C1F38101022977D04FF080714F00022823
:101C700009D091FAA1F0B0FA80F048F820A0FFF75F
:101C8000CFFA05465EE0894691FAA1F15046B1FAD5
:101C900081F1C24648F82100FFF7C2FA804605E00C
:101CA000FFF7BEFAA0EB0800022848D897FAA7F081
:101CB000B0FA80F040F02000400902D0306801E026
:101CC00056E0706A97FAA7F1B1FA81F101F01F01AD
:101CD00004FA01F10842E3D1D5E90810084371681C
:101CE00021F474110843706099FAA9F0B0FA80F0F9
:101CF0004AF82040FFF794FA054604E0FFF790FA0F
:101D0000401B02281BD897FAA7F0B0FA80F040F0E9
:101D10002000400901D0306800E0706A97FAA7F10E
:101D2000B1FA81F101F01F0104FA01F10842E5D096
:101D30001EE000BFFFF774FA401B022802D90320FF
:101D4000BDE8F88F97FAA7F0B0FA80F040F02000D5
:101D5000400902D0306801E00CE0706A97FAA7F100
:101D6000B1FA81F101F01F0104FA01F10842E1D159
:101D70000020E5E70120E3E74FF0E02104280869AF
:101D800003D020F004000861704740F00400FAE737
:101D900010B5401EB0F1807F01D3012010BD4FF07F
:101DA000E02460610F21601700F004FD0020A061B5
:101DB00007202061002010BD30B590F83820012A9E
:101DC0001FD0012280F838200268536894680E4DB5
:101DD000AA4202D00D4DAA4203D123F470054B68EC
:101DE0002B4323F070050B6889682B4324F0800493
:101DF0002143536002689160002180F83810084642
:101E000030BD022030BD0000002C014000340140F4
:101E100010B5040003D094F8390010B107E0012098
:101E200010BD002084F83800204600F00DF8022094
:101E300084F83900211D206800F048FD012084F855
:101E40003900002010BD000008B50068B0F1804FD7
:101E500008D10548C16941F00101C161C06900F0C4
:101E60000100009008BD00000010024070B504465B
:101E700090F83800012817D0012584F83850022046
:101E800084F8390022689068364E304020F47F4054
:101E900090600868502839D00DDC20285BD005DC24
:101EA00098B3102843D153E0022070BD302855D09C
:101EB00040283CD141E0602830D070280CD0B0F5EB
:101EC000805F03D0B0F5005F31D112E020688168F7
:101ED000244A7032114016E0CB68D1E90121206814
:101EE00000F053FD21688868304040F0770088603A
:101EF0001DE0CB68D1E90121206800F046FD206893
:101F0000816841F48041816011E01EE0CA6849683F
:101F1000206800F0D5FE5021206806E0CA684968B4
:101F2000206800F0DEFE6021206800F038FD84F8B3
:101F30003950002084F8380070BDCA6849682068AC
:101F400000F0BEFE40212068EFE700212068ECE7AA
:101F500010212068E9E720212068E6E73021206889
:101F6000E3E7000088FFFEFF00B5006885B0B0F130
:101F7000804F0BD19820009002200021CDE9010173
:101F8000CDE9031069460248FFF778F805B000BDB7
:101F9000000C004870B5044690F838000D46012842
:101FA0000ED0012684F83860022084F839000C2A0B
:101FB00045D007DC5AB1042A1BD0082A78D12CE07E
:101FC000022070BD102A4ED0142A71D15DE0206825
:101FD00000F0EEFC2068816941F008018161206811
:101FE000816921F004018161206881692A691143B6
:101FF00011E0206800F02AFD2068816941F4006149
:1020000081612068816921F4806181612068816932
:102010002A6941EA022181614AE0206800F05EFD00
:102020002068C16941F00801C1612068C16921F0DF
:102030000401C1612068C1692A69114311E0206867
:1020400000F094FD2068C16941F40061C16120681D
:10205000C16921F48061C1612068C1692A6941EACE
:102060000221C16124E0206800F0BAFD2068416DC2
:1020700041F0080141652068416D21F0040141658E
:102080002068416D2A69114311E0206800F0E0FDED
:102090002068416D41F4006141652068416D21F483
:1020A000806141652068416D2A6941EA02214165EC
:1020B00084F83960002084F8380070BD10B5040041
:1020C00003D094F8390010B107E0012010BD0020C2
:1020D00084F83800204600F00CF8022084F839001B
:1020E000211D206800F0F2FB012084F83900002057
:1020F00010BD704710B504460068012200F03AFC9C
:102100000D48216881420BD00C48814208D00C4810
:10211000814205D00B48814202D00B48814203D155
:10212000486C40F4004048642068016841F00101B7
:102130000160002010BD0000002C0140003401406F
:1021400000400140004401400048014010B5040037
:1021500003D094F8690010B107E0012010BD002001
:1021600084F86800204600F027F8242084F86900ED
:102170002068016821F001010160204601F00CF99E
:102180000128EBD0606A10B1204601F077F8206892
:10219000416821F4904141602068816821F02A0162
:1021A00081602068016841F0010101602046BDE8BE
:1021B000104001F0C7B8000000B500680E4987B0B4
:1021C000884217D10D48C16941F48021C161C069BD
:1021D000694600F4802005904FF440600090022092
:1021E00001900120029003200390072004900448EE
:1021F000FEF744FF07B000BD004800400010024059
:10220000000400482DE9F047044690F86A009A4619
:102210000D46202859D1CDB1C2B194F868000128EB
:1022200053D0012084F868000026E666222084F856
:102230006A00A4F85820A4F85A20A0684FF48052ED
:10224000FF21904208D1206918B11FE00120BDE8AC
:10225000F08740F2FF1003E020B92069B0B17F2081
:10226000A4F85C00B4F85C70914607F0FF0800BF6A
:10227000B4F85A005346401EA4F85A000022202108
:10228000204601F073F920B10320E0E7A4F85C10C8
:10229000E8E7A068484501D1206980B12068808CBA
:1022A00000EA080005F8010BB4F85A000028DFD155
:1022B000202084F86A0084F868600020C7E720685E
:1022C000808C384025F8020BEEE70220BFE70000C3
:1022D0002DE9F041044690F8690098460D46202803
:1022E00046D105B3FAB194F86800012840D0012026
:1022F00084F868000026E666212084F86900A4F8C6
:102300005020A4F852204FF4805700BFB4F8520078
:102310004346401EA4F8520000228021204601F0CE
:1023200025F9B8B902E00120BDE8F081A068B84203
:1023300001D1206980B115F8010B21680885B4F836
:1023400052000028E2D1434600224021204601F0FD
:102350000DF930B10320E7E735F8020BC0F30800B0
:10236000EBE7202084F8690084F868600020DBE750
:102370000220D9E710B50C2000F064F8BDE8104049
:102380006420AFF30080002100E0491C8142FCD9A9
:102390007047000010B50F20FEF764FE0122802177
:1023A0001648FEF738FF302000F07CF80520FEF7D5
:1023B00059FE302000F076F84FF49670FFF7E3FFF7
:1023C000302000F06FF8202000F06CF8012000F0C1
:1023D00039F8282000F036F86420FFF7D4FF0F20EA
:1023E00000F030F86420FFF7CEFF062000F02AF856
:1023F000BDE810406420FFF7C6BF00000010004891
:1024000010B500F037F8BDE810406420FFF7BBBFFF
:1024100070B50546002406E000F02CF86420FFF7B4
:10242000B2FF641CE4B2285D0028F5D170BD10B580
:1024300040F0800000F006F8BDE810406420FFF78F
:10244000A2BF000070B50A4D0446002201212846B3
:10245000FEF7E1FE002202212846FEF7DCFE2046C0
:1024600000F020F82007BDE87040000E00F01AB818
:102470000004004870B50A4D044601221146284662
:10248000FEF7C9FE002202212846FEF7C4FE2046C0
:1024900000F008F82007BDE87040000E00F002B818
:1024A0000004004870B5194D044600220421284656
:1024B000FEF7B1FE164E04F0800208213046FEF70A
:1024C000AAFE04F0400204213046FEF7A4FE04F008
:1024D000200202213046FEF79EFE04F01002012188
:1024E0003046FEF798FE0120FEF7BCFD01220421D4
:1024F0002846FEF790FE0120FEF7B4FD2846BDE811
:10250000704000220421FEF786BE0000000400484F
:102510000008004830B5144887B04FF0A0410024AF
:10252000C0E9001484600461446201250463C5614C
:10253000C460056204214463C0E905148463FEF7A6
:10254000A5FB00B1FEE7052000900394CDE90154FE
:102550000494694604480594FEF7CAF9002800D09F
:10256000FEE707B030BD0000680000202DE9F04F05
:10257000534887B0416941F400114161416901F458
:1025800000110591416941F400214161416901F463
:1025900000210591416941F480014161416901F4E3
:1025A00080010591416941F400314161416901F4C3
:1025B00000310591416941F480214161416901F493
:1025C00080210591416941F48011416140690024F5
:1025D00000F480100590372000903A48CDE90104BE
:1025E000DFF8E4B069465846FEF748FD4FF68876B6
:1025F00001250096CDE90154694658460394FEF73B
:102600003DFD0F200090CDE90154DFF8C080694600
:1026100040460394FEF732FDCDE900544FF0904957
:10262000694648460294FEF729FDE0200090022703
:10263000CDE901740520CDE9034069464846FEF71F
:102640001DFD07200090CDE90154DFF884A0694604
:1026500050460394FEF712FD4FF47070CDE900046C
:10266000694640460294FEF709FD4FF4C050CDE99B
:1026700000070320CDE902400E2004906946484639
:10268000FEF7FCFCC02000901220CDE901050420DB
:10269000CDE9034069465046FEF7F0FC0022314682
:1026A0005846FEF7B8FD00220F214046FEF7B3FD65
:1026B000002207215046FEF7AEFD07B0BDE8F08FBF
:1026C00000100240000012100010004800080048EE
:1026D0000004004810B528488EB04FF080410160DA
:1026E00008210024C0E901144FF4C861C1604FF40F
:1026F00000710161FFF78CFB00B1FEE74FF48050E1
:102700000A900AA91C48FFF7B1FB00B1FEE71A487E
:10271000FFF7D4FC00B1FEE7079407A91648099417
:10272000FFF74AFB00B1FEE7602000904FF4FA503B
:10273000CDE90104002269460F480494FFF72AFC02
:1027400000B1FEE74FF47A500190042269460A482E
:10275000FFF720FC00B1FEE745F6C05001900822CB
:1027600069460548FFF716FC00B1FEE70248FFF78F
:10277000FBFB0EB010BD0000BC0000200C4810B5E3
:102780000A4901604FF4E1314160002181600C226F
:10279000C160C0E904128161C16101624162FFF759
:1027A000D5FC002800D0FEE710BD00000048004026
:1027B000F80000200907090E002806DA00F00F00D3
:1027C00000F1E02080F8141D704700F1E02080F84F
:1027D0000014704710B5FEF729FDBDE8104001F068
:1027E00018BC30B59FB0012000904FF4A020002409
:1027F000CDE901040225E803CDE907504FF4E010CC
:1028000009906846FEF7E2FF00B1FEE70F20CDE930
:1028100019054FF48060CDE91B40022119A81D94D1
:10282000FEF7A8FE00B1FEE784200A900E944FF454
:10283000807013900AA8FEF791FD00B1FEE7FEF745
:102840005DFF4FF47A71B0FBF1F0FFF7A1FA0420BD
:10285000FFF792FA00220F21501EFEF74DFD1FB028
:1028600030BD00001448016841F470010160134854
:10287000016841F0010101604168114A1140416065
:102880000168104A11400160016821F48021016053
:10289000416821F4FE014160C16A21F00F01C1626B
:1028A000016B094A11400163002181600249C003A4
:1028B000803908607047000088ED00E00010024099
:1028C0000CC07FF8FFFFF6FECCFC00FF2DE9F043C3
:1028D0000268214B214D224E224C4FF080499842F4
:1028E00007D0484505D0A84203D0B04201D0A0424D
:1028F00003D122F070074A683A431B4FDFF86CC0DF
:10290000DFF86C8098420DD048450BD0A84209D022
:10291000B04207D0A04205D0B84203D0604501D0F4
:10292000404503D122F44075CA682A4302608A6890
:10293000C2620A688262984207D0A04205D0B842BB
:1029400003D0604501D0404501D1096901630121EF
:102950004161BDE8F0830000002C0140000400400C
:1029600000080040003401400040014000440140A4
:102970000048014010B50123046A8B409C43046267
:10298000036A8A401343036210BD10B5846842EAAB
:10299000032224F47F440A432243826010BD8268EC
:1029A00022F070020A4342F0070181607047000084
:1029B0002DE9F043026A22F001020262056A4368CF
:1029C00082691C4C25F0020522400C6822F00302AB
:1029D00014438A68194E2A43174D194FDFF864C013
:1029E000DFF86490A84207D0B04205D0B84203D0C7
:1029F000604501D0484506D122F00808CA6842EA7D
:102A0000080222F00402A84207D0B04205D0B84222
:102A100003D0604501D0484505D14D6923F440738A
:102A20001D438B692B4343608461496841630262A3
:102A3000BDE8F0838FFFFEFF002C01400034014011
:102A4000004001400044014000480140F0B5026AE6
:102A500022F010020262056A42688369194C1B4E1B
:102A600023400C6823F4407343EA042425F0200338
:102A70008D6843EA0513144DA84201D0B04206D137
:102A8000CF6823F0800343EA071323F04003A842F2
:102A90000AD0B04208D00E4DA84205D00D4DA84234
:102AA00002D00D4DA84207D14D6922F4406242EA9E
:102AB00085028D6942EA85024260846149688163CA
:102AC0000362F0BDFF8FFFFE002C01400034014087
:102AD000004001400044014000480140F0B5026A56
:102AE00022F480720262056A4368C269194C1B4E67
:102AF00022400C6822F00302144325F400728D6812
:102B000042EA0522144DA84201D0B04206D1CF6856
:102B100022F4006242EA072222F48062A8420AD02C
:102B2000B04208D00E4DA84205D00E4DA84202D0AA
:102B30000D4DA84207D14D6923F4405343EA0513D4
:102B40008D6943EA05134360C4614968C163026249
:102B5000F0BD00008FFFFEFF002C0140003401405B
:102B600000400140004401400048014030B5026A85
:102B700022F480520262046A4268C369124D24F44E
:102B800000542B400D6823F4407343EA05238D68FD
:102B900044EA05340D4DA8420BD00D4DA84208D093
:102BA0000C4DA84205D00C4DA84202D00B4DA842B6
:102BB00004D14D6922F4804242EA85124260C36129
:102BC00049680164046230BDFF8FFFFE002C0140A4
:102BD00000340140004001400044014000480140F1
:102BE00030B5026A22F480320262046A4268436DA0
:102BF000114D2B400D681D4324F400330C8943EA2A
:102C000004430E4CA0420BD00D4CA04208D00D4CFA
:102C1000A04205D00C4CA04202D00C4CA04204D1E2
:102C20004C6922F4803242EA0422426045654968D8
:102C30008165036230BD00008FFFFEFF002C014064
:102C40000034014000400140004401400048014080
:102C500030B5026A22F480120262046A4268436D4F
:102C6000114D24F400142B400D6843EA05230D890F
:102C700044EA05540D4DA8420BD00D4DA84208D092
:102C80000C4DA84205D00C4DA84202D00B4DA842D5
:102C900004D14D6922F4802242EA852242604365D4
:102CA0004968C165046230BDFF8FFFFE002C014002
:102CB0000034014000400140004401400048014010
:102CC00010B5036A046A24F001040462846924F0E4
:102CD000F00444EA021423F00A020A438461026207
:102CE00010BD10B5036A23F0100303628369046A00
:102CF00023F4704343EA023224F0A00343EA0111B3
:102D00008261016210BD00002DED028B84B0184875
:102D1000FEF700F99FED178B184C1548FDF7B2FF31
:102D200080B2FDF758FB53EC182BFDF7E2FA41ECAB
:102D3000100B13A153EC102B684600F063FC00232A
:102D400032221946206801F0D7FD01280BD140201E
:102D5000FFF76DFB6846FFF75BFB00231A46194639
:102D6000206801F0C1FEC82001F0E4FBD5E70000B7
:102D700068000020000000000000483F0000002024
:102D80005652313D25312E32667600000025284E00
:102D90002C464FF400794F4649463046FEF737FA45
:102DA0004FF480613046FEF732FA4FF4006130464E
:102DB000FEF72DFA4FF480513046FEF728FA4FF413
:102DC000005841463046FEF722FAB94647464FF4CE
:102DD00080484FF4004A4FF4807B13E04146304670
:102DE000FEF715FA51463046FEF711FA59463046BD
:102DF000FEF70DFA49463046FEF709FA39463046E5
:102E0000FEF705FA641CA4B2102C0BD3002425B1E4
:102E10000025282001F08EFBBDE70125282001F0C8
:102E200089FBDBE7282001F085FB002DB3D0D5E737
:102E30000010004888B060200090002002904FF4FD
:102E4000C86504900024002269462B480194FFF7CE
:102E5000A1F8C4F5C8600190082269462648FFF72A
:102E600099F800212448FFF745F908212248FFF787
:102E700041F9052001F05EFB641CAC42E3DB002459
:102E8000C4F5C8600190002269461B48FFF782F82C
:102E90000422694618480194FFF77CF8042116487B
:102EA000FFF728F900211448FFF724F9052001F065
:102EB00041FB641CAC42E3DB5FF00004C4F5C86076
:102EC0000190042269460C48FFF764F8082269461D
:102ED00009480194FFF75EF804210748FFF70AF953
:102EE00008210548FFF706F9052001F023FB641CC3
:102EF000AC42E3DBA6E70000BC0000204FF4807684
:102F00005C4D5D4C7700002332221946206801F0A9
:102F1000F3FC012811D14A20FFF789FA5B20FFF763
:102F20006FFA4F20FFF783FA5D20FFF769FA00235D
:102F30001A461946206801F0D7FD40212846FEF7C1
:102F400061F901284FF0000320684FF03202194662
:102F500004D001F0D1FC012809D014E001F0CCFC30
:102F6000012810D14B20FFF762FA312003E04B20FB
:102F7000FFF75DFA5F20FFF743FA00231A46194670
:102F8000206801F0B1FD31462846FEF73BF90128E3
:102F90004FF0000320684FF03202194604D001F0D0
:102FA000ABFC012809D014E001F0A6FC012810D1E7
:102FB0004D20FFF73CFA332003E04D20FFF737FAAE
:102FC0005F20FFF71DFA00231A461946206801F01A
:102FD0008BFD80212846FEF715F901284FF00003EC
:102FE00020684FF03202194604D001F085FC012818
:102FF00009D014E001F080FC012810D14C20FFF72B
:1030000016FA322003E04C20FFF711FA5F20FFF799
:10301000F7F900231A461946206801F065FD394684
:103020002846FEF7EFF801284FF0000320684FF024
:103030003202194604D001F05FFC012809D014E0E7
:1030400001F05AFC012810D14E20FFF7F0F934208E
:1030500003E04E20FFF7EBF95F20FFF7D1F90023E3
:103060001A461946206801F03FFD642001F062FA1B
:1030700049E70000000800480000002088B0202236
:1030800034A16846FDF70AF93A4C6E460023322215
:103090001946206801F030FC01280BD10020FFF711
:1030A000C6F96846FFF7B4F900231A4619462068A6
:1030B00001F01AFD6846FDF715F91028E6D342F233
:1030C000107001F037FA002518E00023322219466B
:1030D000206801F011FC01280ED10020FFF7A7F9AC
:1030E0007019FFF795F900231A461946206801F078
:1030F000FBFCFA2001F01EFA6D1CEDB26846FDF7EC
:10310000F1F81038A842E0D24FF4FA6001F012FA58
:103110006846FDF7E7F81038C5B218E00023322200
:103120001946206801F0E8FB01280ED10020FFF7C6
:103130007EF97019FFF76CF900231A4619462068CA
:1031400001F0D2FCFA2001F0F5F96D1EEDB2002D70
:103150009CD0E3E74B6F696269746F2D457820520C
:1031600065762E312E30202863292044722E50613E
:103170006E616E00000000209CB000248DF8644059
:1031800009E0022230A13148FFF7A2F89DF864005F
:10319000401C8DF864009DF864004FF0640319280A
:1031A000EFD31E222AA12948FFF792F88DF8644038
:1031B0006D460A2301221AA92448FFF723F880BB91
:1031C000642301221AA92148FFF782F89DF86800BC
:1031D0009DF86410082868549DF8640007D0401CCE
:1031E0008DF864009DF868000D281BD027E088B199
:1031F0009DF86400A8B1642303221DA11348FFF7C2
:1032000067F89DF86400401E8DF864009DF8640026
:103210002C54E7E76423012216A10C48FFF758F865
:10322000E0E70CE09DF86400284400F8014C8DF8BC
:1032300064406423032210A10448FFF749F81420D6
:1032400001F078F9B5E700000D0A0000F800002051
:103250004B6F696269746F2D45782054657374698A
:103260006E67205465726D696E616C0D0A3E0000D8
:10327000200800003E0000000D0A3E0090F82410D7
:10328000C90706D001684A68836A22F400321A43EB
:103290004A6090F82410890706D501684A68C36A15
:1032A00022F480321A434A6090F82410490706D568
:1032B00001684A68036B22F480221A434A6090F83E
:1032C0002410090706D501684A68436B22F40042BE
:1032D0001A434A6090F82410C90606D501688A6826
:1032E000836B22F480521A438A6090F82410890676
:1032F00006D501688A68C36B22F400521A438A60BB
:1033000090F82410490611D501684A68036C22F42C
:1033100080121A434A60016CB1F5801F06D1016822
:103320004A68436C22F4C0021A434A6090F82410A1
:10333000090606D501684A68806C22F4002202431F
:103340004A60704770B500250446C566006800688D
:103350004FF47A76000707D5334600224FF4001168
:10336000204600F003F958B920680068400709D5E5
:10337000334600224FF48001204600F0F7F808B1F0
:10338000032070BD202084F8690084F86A0084F866
:103390006850002070BD00002DE9F0410446102067
:1033A0002369A268E6691A436369002133431A431B
:1033B00023680D461E6849F20C67BE4316431E6023
:1033C00022685368E66823F4405333435360236A0A
:1033D000A2691A4323689E6826F4306616439E60ED
:1033E0005A4F22685A4B0603BA420CD11B6B13F09A
:1033F000030306D0012B4DD0022B4DD0032B4CD113
:1034000046E0012049E0534FBA420CD11B6B13F444
:1034100040333BD0B3423DD0B3F5003F3CD0B3F591
:10342000403F3AD134E04C4FBA420DD11B6B13F4FC
:1034300040232BD0B3F5802F2CD0B3F5002F2BD009
:10344000B3F5402F29D123E0444FBA420DD11B6B75
:1034500013F440131AD0B3F5801F1BD0B3F5001F2F
:103460001AD0B3F5401F18D112E03D4FBA4214D123
:103470001B6B13F4400309D0B3F5800F0AD0B3F5EA
:10348000000F09D0B3F5400F07D101E0002004E0A0
:10349000022002E0042000E00820E7694FF4004326
:1034A0009F4226D109281DD2DFE800F00508121C32
:1034B000151C1C1C1800FEF727F901E0FEF73CF96B
:1034C0004100606801EB5001B1FBF0F081B20AE00D
:1034D00024496068F6E7FEF747F9F1E7606806EB14
:1034E0005001F1E7012521F00F00C1F3420108432B
:1034F0001CE0092825D2DFE800F005080B24102481
:1035000024241C00FEF700F909E0FEF715F906E097
:103510001549606801EB50010EE0FEF725F9014600
:10352000606801EB5001B1FBF0F080B22168C86027
:1035300008E0606803EB5001B1FBF0F080B2D060AE
:1035400000E001252846BDE8F08100000038014078
:10355000001002400044004000480040004C004081
:10356000005000400024F40000127A002DE9F047DA
:103570001D4690460E460446FDF752FE07465FEA9A
:1035800008004FF000094FF0200808D032E0681C16
:1035900005D095B1FDF744FEC01BA8420DD82068A8
:1035A000C06936EA0000F2D129E0681C22D025B1BA
:1035B000FDF736FEC01BA8421CD92068016821F027
:1035C000800101602068016821F02001016020680D
:1035D000016821F4807101602068816821F0010197
:1035E000816084F8698084F86A8084F86890032098
:1035F000BDE8F0872068C06936EA0000D5D0002019
:10360000F6E700000FB4084B10B504A902AA03980E
:1036100000F0CEF8044602A9002000F060FC20462D
:1036200010BC5DF814FB0000DF3E000802E008C893
:10363000121F08C1002AFAD170477047002001E02C
:1036400001C1121F002AFBD1704700002DE9FF5F66
:10365000DDE90220010DDDF838B0024318D044F650
:103660001050A1F2FF3141430D140F98012820D0D2
:10367000A5EB0B00401C5FEA000A4FF00004474E28
:10368000DFF81C91A046504616D5CAF1000728E085
:103690000F98012443A2012808D0002100980F9B15
:1036A000C0E90021C0E90243BDE8FF9F6FEA0B01BA
:1036B000F4E7CBF10000DEE7074612E0F80707D099
:1036C0002246334640464946FCF713FE804689466B
:1036D0002246334610461946FCF70BFE04460E46BA
:1036E0007F10002FEAD1DDE90201BAF1000F424656
:1036F0004B4602DAFCF7FDFD01E0FCF7C4FF04468F
:103700000E460022284BFDF745F803D84FF0FF3056
:10371000014607E00022254B20463146FCF70CFF0E
:10372000FDF720F8102409E0002C0ADB0A22002310
:10373000FCF774FE019B30321A55641E50EA0102F8
:10374000F2D1641C019AC4F1110314440F9A012AA6
:1037500003D0012208430DD10AE0084304D0002021
:103760004FF0110B0F9080E7A3EB0B056D1E0DE0E2
:103770005B4504DD4FF0000205F1010504E003DACA
:103780004FF00002A5F10105002AECD000980F9936
:10379000C0E90231C0E9004586E70000000024408E
:1037A0000000F03F300000000000F0430000E03F68
:1037B0002DE9FF4F95B09B468946064600250FE24E
:1037C000252877D100242746F84A0121059400E0F6
:1037D000044316F8013F203B01FA03F01042F7D1F1
:1037E00030782A2811D06FF02F033078A0F1300202
:1037F000092A16D8059A44F0020402EB820203EB70
:1038000042021044761C0590EFE759F8042B05920C
:10381000002A03DA504244F40054059044F00204B4
:10382000761C30782E2816D116F8010F44F00404C7
:103830002A280DD06FF02F023078A0F13003092B29
:1038400009D807EB870302EB4303C718761CF3E79D
:1038500059F8047B761C30786C280FD006DC4C2895
:1038600017D068280DD06A2814D104E0742810D02D
:103870007A280FD10DE044F400140AE044F48014D7
:1038800001E044F440147278824202D104F58014BD
:10389000761C761C307866280BD013DC582877D03D
:1038A00009DC002875D04528F6D04628F4D04728F2
:1038B0001AD19DE118E0632835D0642879D06528B5
:1038C00012D195E1702873D008DC6728F1D06928FF
:1038D0006FD06E280DD06F2806D1B5E073282CD09C
:1038E000752875D0782874D05A46179990476D1C62
:1038F00075E1C4F30250022809D003280DD0D9F88D
:10390000001004280DD00D6009F1040967E1D9F811
:103910000010EA17C1E90052F6E7D9F800100D804F
:10392000F2E70D70F0E719F8041B8DF80010002085
:103930008DF80100EA46012003E059F804AB4FF08E
:10394000FF3061074FF0000102D40DE008F10101E2
:103950008846B9420FDA8045F8DB1AF808100029CA
:10396000F4D108E008F1010188468142FADB1AF837
:1039700008100029F6D105985B46A0EB0807214600
:103980003846179A00F094FA284400EB080507E03F
:103990004DE029E10DE01AF8010B5A4617999047BE
:1039A000B8F10108F7D25B4621463846179A13E171
:1039B00042E00A220092C4F302524FF0000A022AA7
:1039C00008D059F804CB032A4FEAEC710AD00DE075
:1039D00029E02AE009F1070121F00702F2E802C11B
:1039E000914609E00FFA8CFC4FEAEC71042A03D1EE
:1039F0004FFA8CFC4FEAEC71002907DA0A460021E5
:103A0000DCF1000C61EB02012D2202E0220504D55D
:103A10002B228DF80420012203E0E20701D02022AE
:103A2000F7E7904659E00A2102E010220DE010214C
:103A30004FF0000A00910BE010224FF0000A44F012
:103A400004040827009203E008224FF0000A0092C5
:103A5000C4F30252022A05D059F804CB0021032AEC
:103A600008D009E009F1070121F00702F2E802C1DC
:103A7000914605E01FFA8CFC042A01D10CF0FF0CE2
:103A80004FF00008220728D5702806D0009B83F04D
:103A9000100353EA0A0305D00EE040228DF80420FB
:103AA000012208E05CEA010206D030228DF80420F1
:103AB0008DF8050002229046009B83F0080353EA2C
:103AC0000A030AD15CEA010201D1620705D530225E
:103AD0008DF804204FF001087F1E582804D034A030
:103AE00003900EA802900DE036A0F9E75346604619
:103AF000009AFCF793FC84460398825C0298401E6F
:103B0000029002705CEA0100F0D1029806A9081A3E
:103B100000F1200A600702D524F4803400E0012778
:103B2000574502DDA7EB0A0000E0002000EB0A0188
:103B3000009005984144401A0590E00306D45B4686
:103B40002146179A059800F0B3F90544002706E0CE
:103B500001A85A46C05D179990476D1C7F1C4745C8
:103B6000F6DBE0030CD55B462146179A059800F07A
:103B70009FF9054404E030205A46179990476D1C80
:103B80000099481E00900029F5DC08E0029802998F
:103B90005A460078491C0291179990476D1CBAF15A
:103BA0000001AAF1010AF1DC65E100000928010029
:103BB00030313233343536373839616263646566A3
:103BC0000000000030313233343536373839414265
:103BD000434445460000000000F058F90544761CB7
:103BE000307800287FF4ECAD19B02846BDE8F08F9E
:103BF000620700D4062709F1070222F0070CFCE84F
:103C00000223E14603F000485FEA080C02D00FF2FD
:103C1000702C0DE05FEA045C02D50FF2682C07E01F
:103C20005FEAC47C02D00FF2602C01E0AFF2700CAE
:103C30004FF0FF3823F00043CDF850C065280CD07A
:103C400006DC452809D046281DD047283DD13DE057
:103C5000662818D067287ED138E00021112F01DBBB
:103C6000112000E0781CCDE9000106A90EA8FFF79D
:103C7000EDFCDDE90F010E9A03910021009207F19E
:103C8000010A04914DE04FF000400097CDE901108A
:103C900006A90EA8FFF7DAFCDDE90F0203920E9BDE
:103CA00011990022DDF80CA00093049211B9791C3F
:103CB00000EB010AB7EB0A0004D4C0F1FF3007F1B2
:103CC000010A0490AAEB0700019044E0012F00DAFA
:103CD00001270021112F01DD112000E03846CDE938
:103CE000000106A90EA8FFF7B1FCDDE90F010E9A4D
:103CF0000391002104910092BA4621070CD4039944
:103D0000514500DA8A46BAF1010F05DD009AAAF1A1
:103D10000101515C302908D0B84202DA10F1040FD9
:103D200006DA0121CDE9011015E0AAF10101E9E768
:103D3000002805DC049901440491AAEB000102E08B
:103D4000411C514500DD8A460499401A401C0190EF
:103D50004FF000400290200704D40198504501DB49
:103D6000CDF8048000208DF84F0002980DF14F0728
:103D7000B0F1004F25D02B200E9002984FF0020892
:103D800000280CDA404202902D200E9007E00A2114
:103D90000298FCF72DFB3031029007F8011DB8F1B5
:103DA0000001A8F10108F2DC02980028EFD1791E89
:103DB0000E980870307800F0200040F0450007F8B9
:103DC000020D12A8C01B00F107081498007800B17A
:103DD000012000EB0A01019801EBE07105984144D4
:103DE000401A401E0590E00306D45B462146179A10
:103DF000059800F05DF805441498007818B15A460B
:103E0000179990476D1CE00324D55B462146179A0D
:103E1000059800F04DF805441CE00498002807DBE5
:103E2000DDE90301884203DD0098405C179901E059
:103E3000179930205A469047049805F10105401C17
:103E400004900198401E019004D12E205A461799E3
:103E500090476D1CBAF10001AAF1010ADDDC05E012
:103E600017F8010B5A46179990476D1CB8F10001DD
:103E7000A8F10108F4DC5B462146179A0598ABE6E9
:103E80002D0000002B000000200000002DE9F04173
:103E9000044600251E461746880404D405E039462A
:103EA0002020B0476D1C641EF9D52846BDE8F0817E
:103EB0002DE9F041044600251E469046C80301D571
:103EC000302700E02027880404D505E04146384625
:103ED000B0476D1C641EF9D52846BDE8F0810A681C
:103EE000531C0B60107070471FB5FDF7A7F9FEF764
:103EF00078FCFEF73BFBFEF741FCFEF70BFBFEF701
:103F0000E9FBFEF747FAFEF735FA0322002101200C
:103F100000F0C0FC234900231A460860194600F04F
:103F2000E3FD00240125CDE90054029423468022BC
:103F30001DA12048039400F0BDFECDE90054029479
:103F4000002380221CA11F48039400F0B3FECDE99A
:103F50000054029400232A021BA11E48039400F07F
:103F6000A9FECDE900540294002380221AA11D4825
:103F7000039400F09FFECDE90054029400238022B8
:103F800019A11C48039400F095FECDE90054029459
:103F90000023802218A11B48039400F08BFE00F040
:103FA00033F8FEE700000020546B436972636C65D0
:103FB0004C6564008D2D0008546B54616374537715
:103FC00000000000FD2E0008546B557361727433BD
:103FD0000000000079310008546B4164635672316F
:103FE00000000000092D0008546B5267624C6564A4
:103FF00000000000352E0008546B5478745363722F
:104000006F6C6C007D30000810B500F053FB002091
:1040100010BD10B500F02CFF012803D0BDE8104002
:1040200000F022BC10BD000070B50B4C05462068A6
:104030004560E0682168854205D2606BBDE870404C
:10404000091D00F0E1B9206B091D00F0DDF9A06A3F
:10405000854200D2A56270BD3000002070B5124EBE
:10406000124C1AE000F05AFB3068D0B100F0FAFFB1
:1040700000F0EEF9F068C568281D00F0A5F9A06809
:10408000401EA0606068401E606000F001FA286B6E
:1040900000F012FA284600F00FFA60680028E1D11B
:1040A00070BD00F0DFFFF8E7301600203000002080
:1040B00030B4026C0B46002A0BD0C1681144C160B9
:1040C0004468A14201D30168C16030BC1846FCF7C6
:1040D000E5B830BC704770B51646026C0446002542
:1040E00082B1C6B1E068FCF7D9F8E168206C091A22
:1040F000E1602268914202D26168081AE060022EF3
:1041000016D01AE02068C0B9606800F025FF0546A7
:104110000020606011E0A068FCF7C0F8216CA06886
:104120000844A0606168884207D32068A06004E06A
:10413000A06B10B1A06B401EA063A06B401CA063DD
:10414000284670BD10484FF4A051420706D0C01D4C
:104150000D4920F00700411AC1F5A0510B4A002378
:104160000144C2E900030839103A21F00701116047
:104170004B600B600B1AC0E9001393604FF00040D6
:104180005360D06070470000680100201C000020D0
:10419000074C4FF08056074DFFF760FF206801285D
:1041A000FAD92E60BFF34F8FBFF36F8FF4E7000093
:1041B0006815002004ED00E030B5114900E011461B
:1041C0000A688242FBD34B685C18844203D1406882
:1041D00018444860084643681C18944209D1084CAA
:1041E000103C2468A24209D052681A4442600A680E
:1041F00012680260814200D0086030BD0460F9E7B7
:104200001C0000200648016B096829B1016BC968D0
:10421000C9684968816270474FF0FF31FAE70000D2
:104220003000002008484068401C4FF0500080F3E8
:10423000118804D0BFF34F8FBFF36F8FFEE7BFF33A
:104240004F8FBFF36F8FFEE72400002070B5044648
:1042500000F0FEF804F124050AE0606A58B128462F
:1042600000F0C6FE08B100F099F9A06C401EA064F1
:10427000A06C0028F1DC4FF0FF36A66400F008F9CE
:1042800000F0E6F804F110050AE0206958B128466C
:1042900000F0AEFE08B100F081F9606C401E606471
:1042A000606C0028F1DC6664BDE8704000F0F0B896
:1042B0002DE9F0410546002700F030FA314E306814
:1042C00008B9FFF73FFFF06805424BD1C5B3083589
:1042D00068070ED005F00700C0F108000544680724
:1042E00007D0502080F31188BFF34F8FBFF36F8F3B
:1042F000FEE72DB37068854234D82248103001465D
:104300000C6801E020460C466168A94202D221688F
:104310000029F7D131688C4224D0076821680160F8
:1043200060680837411B10290FD96019420708D06F
:10433000502080F31188BFF34F8FBFF36F8FFEE7DC
:1043400010E041606560FFF737FF61687068401AF0
:104350007060B268904200D2B060F0680143002003
:10436000C4E9000100F07EFE780707D0502080F3FA
:104370001188BFF34F8FBFF36F8FFEE73846BDE85C
:10438000F08100000C0000200449086818B108689A
:10439000026D521C02650868704700003000002062
:1043A00010B5031F4FF080741C601B1F1960191F8C
:1043B000044B0B6014390A60091F6FF00202443885
:1043C0000A6010BD25420008D0E9013201699A60F7
:1043D000D0E901235A604A68824201D182684A606A
:1043E000002202610868401E0860704700F1080161
:1043F0004FF0FF32C0E90112C1600161002101608C
:10440000704700210161704730B50B685A1C02D01B
:1044100000F1080202E0026904E0224654682568BF
:104420009D42FAD953684B6099608A605160086177
:104430000168491C016030BD42684A6093688B6026
:1044400093685960916008610168491C0160704778
:10445000502080F31188BFF34F8FBFF36F8F0A494D
:104460004868401C486001280CD10848006810F0DA
:10447000FF0F07D0502080F31188BFF34F8FBFF399
:104480006F8FFEE7704700002400002004ED00E07D
:104490000849486828B1401E486001D180F311885E
:1044A0007047502080F31188BFF34F8FBFF36F8F99
:1044B000FEE700002400002070B5002827D0144D2E
:1044C000A0F108046168E868014207D1502080F338
:1044D0001188BFF34F8FBFF36F8FFEE722683AB1A9
:1044E000502080F31188BFF34F8FBFF36F8FFEE72B
:1044F0008143616000F012F960686968084468608F
:104500002046FFF759FEBDE8704000F0ABBD70BD1E
:104510000C00002006484FF47A710068B0FBF1F1FE
:104520004FF0E020491E4161072101617047000002
:104530000800002070B5020022D0164CE06A38B1A5
:10454000502080F31188BFF34F8FBFF36F8FFEE7CA
:1045500000F0E4F8E06885182068001DFFF734FFDC
:1045600038B9206890F82C100120884021698143D7
:1045700021612846FFF758FD00F074FD002807D19F
:1045800005494FF080500860BFF34F8FBFF36F8F26
:1045900070BD00003000002004ED00E00149012062
:1045A000C86170473000002070B50D4650B1154C01
:1045B00021681831FFF728FF2068001DFFF704FF6E
:1045C00040B10FE0502080F31188BFF34F8FBFF34D
:1045D0006F8FFEE7206890F82C1001208840216939
:1045E00081432161681C05D0E0682844BDE8704023
:1045F000FFF71ABD2168BDE870400348091DFFF7A9
:104600001BBF0000300000204416002070B50400DD
:1046100039D01D4DE06A2968C96A884233D2A06941
:10462000002804DB2868C06AC0F10700A061E16AC5
:10463000164E01EB8101606906EB810188421FD1B2
:10464000201DFFF7C1FE012150B9E06A00EB800296
:1046500056F8222022B92A6901FA00F082432A6121
:104660002868C06AE0622A6981401143296100EB31
:10467000800006EB8000211DBDE87040FFF7DCBE26
:104680002868C06AE06270BD300000206815002014
:1046900028B107490A6A0260C96841607047502022
:1046A00080F31188BFF34F8FBFF36F8FFEE70000D9
:1046B000300000201FB5002400940194029423468A
:1046C000802212A11348039400F0F4FA012809D0C3
:1046D000002819D1502080F31188BFF34F8FBFF30A
:1046E0006F8FFEE7502080F31188BFF34F8FBFF329
:1046F0006F8F09484FF0FF31816201214161C46031
:10470000BDE81F4000F040B81FBD000049444C45C3
:104710000000000091410008300000200248C16AFA
:10472000491CC16270470000300000201448C16A73
:1047300011B10121C16170470021C1610169B1FA64
:1047400081F1C1F11F0101EB81020E4951F82230C4
:104750006BB101EB820101F108034A6852684A60BB
:104760009A4201D152684A60D16801607047502076
:1047700080F31188BFF34F8FBFF36F8FFEE7000008
:1047800030000020681500201CB532480168324A0C
:10479000914207D1502080F31188BFF34F8FBFF3B0
:1047A0006F8FFEE700682C49491E884207D15020D0
:1047B00080F31188BFF34F8FBFF36F8FFEE7274958
:1047C00008780190FF20087008788DF800009DF8A7
:1047D00000009DF8002000F0F000904207D050202B
:1047E00080F31188BFF34F8FBFF36F8FFEE79DF803
:1047F00000001B4A00F0500010700720906005E098
:104800009DF800305B008DF80030401E9DF80030B0
:104810001B06F5D4000200F4E06090600198087077
:104820000C482030016841F470010160016841F0DA
:1048300070410160FFF76EFE00205060FBF7CEFC78
:104840000848016841F040410160FBF7B7FC0020D7
:104850001CBD000000ED00E071C20F4100E400E06B
:104860002400002034EF00E010B5502080F31188C0
:10487000BFF34F8FBFF36F8F00F008FB18B10449EF
:104880004FF080500860002080F3118810BD0000B8
:1048900004ED00E02DE9F04117460E46050017D063
:1048A000F6B105FB06F0401C5430FFF701FD040093
:1048B0001AD0BEB104F154002060C4E90F560121A2
:1048C000204600F0CFF884F850702046BDE8F08113
:1048D000502080F31188BFF34F8FBFF36F8FFEE737
:1048E0000020E1E72460E8E7502080F31188BFF35F
:1048F0004F8FBFF36F8FFEE72DE9FF47002582B092
:104900009A468946040003D0B9F1000F08D011E09F
:10491000502080F31188BFF34F8FBFF36F8FFEE7F6
:10492000206C38B1502080F31188BFF34F8FBFF354
:104930006F8FFEE700F09CFA494F4FF000084FF0F0
:10494000805648B9049838B1502080F31188BFF3DD
:104950004F8FBFF36F8FFEE7FFF77AFDA06B60B359
:1049600049462046E568FFF7A3FBBAF1000F12D0D5
:10497000E560606A48B104F1240000F039FB20B121
:104980003E60BFF34F8FBFF36F8FFFF781FD0120B4
:1049900006B0BDE8F087A06B401EA063206810B988
:1049A000FFF7F2FC606020690028EED004F11000EF
:1049B00000F01EFB0128E3D0E7E7049808B11DB121
:1049C00006E0FFF765FD1FE06846FFF761FE012581
:1049D000FFF75EFDFFF7A2FEFFF73AFD606C401C9B
:1049E00001D1C4F84480A06C401C01D1C4F84880B7
:1049F000FFF74EFD04A9684600F026F930B12046C5
:104A0000FFF724FC00F02EFB0020C1E7FFF720FD9C
:104A1000A06B38B1FFF73CFD2046FFF717FC00F014
:104A200021FB99E7FFF734FD206830B9FFF710FD4F
:104A30006068FFF7EBFDFFF72BFD04F124000499FC
:104A4000FFF7B2FD2046FFF701FC00F00BFB00284A
:104A500082D13E60BFF34F8FBFF36F8F7CE70000C2
:104A600004ED00E070B50D46040023D0FFF7F0FC24
:104A7000D4E90F20216802FB001161600021A163CD
:104A80002168A1600A46D4E90F01401E00FB012104
:104A90004FF0FF30E1606064A06404F110008DB15C
:104AA000FFF7A4FC04F12400FFF7A0FCFFF7F0FCE3
:104AB000012070BD502080F31188BFF34F8FBFF3EA
:104AC0006F8FFEE721690029F0D000F091FA0128EC
:104AD000ECD1044900070860BFF34F8FBFF36F8F1D
:104AE000E4E7000004ED00E02DE9FF4782B01D4639
:104AF0008A464FF00008040003D0BAF1000F08D036
:104B000011E0502080F31188BFF34F8FBFF36F8FF8
:104B1000FEE7206C38B1502080F31188BFF34F8F2F
:104B2000BFF36F8FFEE7022D0AD1E06B012807D09B
:104B3000502080F31188BFF34F8FBFF36F8FFEE7D4
:104B400000F096F93F4F4FF000094FF0805648B9FA
:104B5000049838B1502080F31188BFF34F8FBFF312
:104B60006F8FFEE7FFF774FCA06BE16B884207D301
:104B7000022D05D00498E8B1B8F1000F1DD021E056
:104B80002A4651462046FFF7A6FA616A31B104F180
:104B9000240000F02DFA012801D005E020B13E608C
:104BA000BFF34F8FBFF36F8FFFF772FC012006B08A
:104BB000BDE8F087FFF76CFC20E06846FFF768FD72
:104BC0004FF00108FFF764FCFFF7A8FDFFF740FC7A
:104BD000606C401C01D1C4F84490A06C401C01D111
:104BE000C4F84890FFF754FC04A9684600F02CF87C
:104BF00030B12046FFF72AFB00F034FA0020D6E758
:104C0000FFF726FCA06BE16B884213D1FFF740FC55
:104C100004F110000499FFF7C7FC2046FFF716FBCC
:104C200000F020FA00289DD13E60BFF34F8FBFF304
:104C30006F8F97E7FFF72CFC2046FFF707FB00F08C
:104C400011FA8FE704ED00E070B50D46040019D0AD
:104C500005B3FFF7FDFB164AD1682868431C0FD047
:104C60002368126A934202D062688A421AD9626843
:104C7000891A814216D2401A28602046FFF708FDA3
:104C8000002410E0502080F31188BFF34F8FBFF352
:104C90006F8FFEE7502080F31188BFF34F8FBFF373
:104CA0006F8FFEE70124FFF7F3FB204670BD000085
:104CB000300000202DE9FF5F5FEA000BDDE90F9077
:104CC0000E9E15468A4609D0072E0FD3502080F33A
:104CD0001188BFF34F8FBFF36F8FFEE7502080F333
:104CE0001188BFF34F8FBFF36F8FFEE7A90088468F
:104CF00010B90846FFF7DCFA07001ED05C20FFF76A
:104D0000D7FA0400384616D0A52241462063FBF7A7
:104D1000D7FA6FF00301206B01EB8501084420F006
:104D2000070778070CD0502080F31188BFF34F8F0E
:104D3000BFF36F8FFEE7FFF7BFFB4FF0FF348CE050
:104D400051463546002022180B5C82F834300A5C4C
:104D500012B1401C1028F6D3002084F84300072D20
:104D600000D30625E562C4E913508046201DFFF7F5
:104D700048FB04F11800FFF744FB2461C5F107016B
:104D80006462A161C4F8548084F85880594638465A
:104D9000039AFFF705FB2060B9F1000F01D0C9F8B5
:104DA0000040FFF755FB2F4DA868401CA8602868FD
:104DB000DFF8B48010B1686948B32DE02C60A868B2
:104DC000012829D15FF0000707EB870108EB81007C
:104DD000FFF70CFB7F1C072FF6D323488C30FFF71F
:104DE00005FB2148A030FFF701FB1F48B430FFF757
:104DF000FDFA1D48C830FFF7F9FA1B48DC30FFF711
:104E0000F5FA19488C3028631430686304E0286888
:104E1000C06AB04200D82C60686A401C6862606456
:104E2000E16A01202A6988401043286101EB810171
:104E300008EB8100211DFFF7FFFA0124FFF728FB93
:104E4000686950B12868C06AB04206D20749200795
:104E50000860BFF34F8FBFF36F8F04B02046BDE8EB
:104E6000F09F0000300000206815002004ED00E0F5
:104E70000548416919B1C06A18B100207047012086
:104E80007047022070470000300000202DE9F041FB
:104E90002F4C0026E06A40B1A069401CA061E06987
:104EA00000B101263046BDE8F081E068401CE060BA
:104EB000E7689FB9206B006838B1502080F31188F3
:104EC000BFF34F8FBFF36F8FFEE7206B616B2163E2
:104ED0006063206A401C2062FFF794F9A06ADFF843
:104EE0007480874209D3206B006880B1206BC06852
:104EF000C568686887420DD2A0622068C06A00EB6E
:104F0000800158F821000128C9D90126C7E74FF0D0
:104F1000FF30F1E7281DFFF757FAA86A18B105F12D
:104F20001800FFF751FAE86A012122698140114314
:104F3000216100EB800108EB8100291DFFF77CFA5D
:104F4000E86A2168C96A8842CDD30126CBE7000010
:104F5000300000206815002070B504004FF00001FB
:104F600040D0214D2868844207D0502080F311881A
:104F7000BFF34F8FBFF36F8FFEE7206D38B1401E38
:104F80002065E36CE26A9A422CD040B12AE05020BE
:104F900080F31188BFF34F8FBFF36F8FFEE7201DA3
:104FA000FFF712FA114A012150B9E06A00EB8003C1
:104FB00052F8233023B92B6901FA00F083432B61A7
:104FC000E06CE062C0F10700A061E06A2B698140FB
:104FD0001943296100EB800002EB8000211DFFF7DF
:104FE0002BFA0121084670BD300000206815002012
:104FF0002DE9F041C068C468ACB104F1180007465F
:10500000FFF7E2F9154DE86A0126A0B139461448C8
:10501000FFF712FAE06A2968C96A88421CD90120A0
:10502000EE61BDE8F081502080F31188BFF34F8F0F
:10503000BFF36F8FFEE7201DFFF7C6F9E16A2A690B
:1050400006FA01F01043286101EB81000449B439EC
:1050500001EB8000211DDBE70020E2E730000020AB
:105060001C1600202DE9F0472C4C0026E06A38B1D0
:10507000FFF7EEF9E06A401EE062E06A40B147E007
:10508000502080F31188BFF34F8FBFF36F8FFEE77F
:10509000A168234D012079B3A5F1B40980462868A1
:1050A000E8B1E868C76807F11800FFF78DF9381D07
:1050B000FFF78AF9F96A226908FA01F010432061C2
:1050C00001EB810109EB8100391DFFF7B5F9F86AA1
:1050D0002168C96A8842E2D3C4F81C80DFE7A0696E
:1050E00058B14546A06940B1FFF7D0FE00B1E56177
:1050F000A069401EA061F5E70AE0E069012807D138
:105100000849012600070860BFF34F8FBFF36F8F78
:10511000FFF7BEF93046BDE8F08700003000002000
:105120001C16002004ED00E0020304050607080930
:105130000A0B0C0D0E0F10100102030405060708E0
:10514000090A0B0C0D0E0F100000000000000000FB
:10515000010203040607080900000000010203041D
:105160008051000800000020680000002C36000874
:10517000E851000868000020F01900003C360008E3
:10518000000000000000000000127A000000000093
:10519000000000000000000000000000000000000F
:1051A0000000000000000000AAAAAAAA0000000057
:1051B00000000000000000000000000000000000EF
:1051C00000000000000000000000000000000000DF
:1051D00000000000000000000000000000000000CF
:0851E0000000000000000000C7
:040000050800018965
:00000001FF
