:020000040800F2
:10000000A00400209D010008431E000825180008D8
:10001000411E00083F070008411F000800000000C3
:10002000000000000000000000000000671E000843
:100030004107000800000000651E0008691E000856
:10004000B7010008B7010008B7010008B7010008B0
:10005000B7010008B7010008B7010008B7010008A0
:10006000B7010008B7010008B7010008B701000890
:10007000B7010008B7010008B7010008B701000880
:10008000B7010008B7010008B7010008B701000870
:10009000B7010008B7010008B7010008B701000860
:1000A000B7010008B7010008B7010008B701000850
:1000B000B7010008B7010008B7010008B701000840
:1000C000B7010008B7010008B7010008B701000830
:1000D000B7010008B7010008B7010008B701000820
:1000E000B7010008B7010008B7010008B701000810
:1000F000B7010008B7010008B7010008B701000800
:10010000000000000000000000000000B70100082F
:10011000B7010008B7010008B7010008B7010008DF
:10012000B7010008B7010008B7010008B7010008CF
:10013000B7010008B701000800000000000000003F
:10014000B7010008B7010008B7010008000000006F
:10015000000000000000000000000000000000009F
:100160000000000000000000B7010008B70100080F
:10017000B7010008000000000000000000000000BF
:1001800000000000B7010008DFF80CD000F0A4FA6E
:100190000048004749280008A0040020064880477E
:1001A00006480047FEE7FEE7FEE7FEE7FEE7FEE75C
:1001B000FEE7FEE7FEE7FEE7D91E0008890100081A
:1001C000202A04DB203A21FA02F00021704721FAAC
:1001D00002F3D040C2F12002914008431946704713
:1001E000D2B201E000F8012B491EFBD27047002279
:1001F000F6E710B513460A4604461946FFF7F0FF26
:10020000204610BD2DE9FE4F81EA030404F00044AE
:1002100021F0004100944FF0000B23F0004350EA1E
:1002200001045ED052EA03045BD0C3F30A54C1F365
:100230000A552C44A4F2F3340194A0FB0254C1F3F8
:10024000130141F48011C3F3130343F4801301FB42
:10025000024400FB034E840A970A44EA815447EAA9
:100260008357A4FB076802958D0A05FB07854FEAB3
:10027000932C04FB0C542705029D4FEA065847EACD
:100280001637B5EB08056EEB070C870E920E47EAA2
:10029000811742EA8312A7FB0201B6EB0B0164EB64
:1002A00000042B0D43EA0C335E1844EB1C50DA4675
:1002B0005146E7FB0201C5F313044FEA0B3343EA4F
:1002C00014534FEA0432019C43EA0603A4F10C04E0
:1002D0000294009CCDE900B400F069F803B0BDE8D9
:1002E000F08F00200146F9E70EB540F2334102914C
:1002F0000021CDE900110A460B4600F058F803B082
:1003000000BD30B50B46014600202022012409E043
:1003100021FA02F59D4205D303FA02F5491B04FABE
:1003200002F52844151EA2F10102F1DC30BD2DE9D1
:10033000F05F0546002092469B4688460646814669
:1003400040241BE02846414647462246FFF738FF37
:1003500053465A46C01A914110D3114618462246B8
:1003600000F0CCF92D1A67EB01084F462246012018
:10037000002100F0C3F917EB00094E41201EA4F143
:100380000104DFDC484631462A464346BDE8F09F7B
:1003900010B5141E73F1000408DA401C41F100018D
:1003A00092185B411A4301D120F0010010BD2DE9E4
:1003B000F04D92469B4611B1B1FA81F202E0B0FADB
:1003C00080F22032904600F099F904460F4640EA48
:1003D0000A0041EA0B0153465A46084313D011461E
:1003E00053EA010019D0C8F140025046FFF7E8FE79
:1003F00005460E4650465946424600F07FF90843EE
:1004000005D0012004E020463946BDE8F08D0020EB
:10041000054346EAE0762C4337430A986305E40A2D
:10042000A0EB08000022FD0A44EA47540A3002D536
:1004300000200146E9E7010510196941DDE9084599
:1004400000196941BDE8F04DA2E72DE9FE4F804655
:1004500081EA0300C00F0C46009021F0004123F018
:100460000045B8EB0200A94105D24046214690461E
:100470001C460B46024623F00040104347D0270D90
:10048000C7F30A00C3F30A510290401A01904028B2
:100490006BDAC3F3130040F4801B0098924620B13E
:1004A0000023D2EB030A63EB0B0B01985946C0F112
:1004B0004002504600F022F906460D465046594685
:1004C000019A00F02AF910EB08006141002487EA44
:1004D000115284EAE7731A4340D0009A62B3019A3A
:1004E000012A4FEA075215DC001B61EB02014FF0B5
:1004F000004202EA0752CDE90042001C41F580119A
:1005000032462B46FFF753FF03B0BDE8F08F40465D
:100510002146F9E7001B61EB0201001C41F5801345
:1005200000185B412018A2F5001747EB030140EAD1
:10053000D570B6196D4111E06D084FEA360645EAEF
:10054000C0754FEA0752001B61EB0201001C41F528
:10055000801149084FEA30000019514132462B46BC
:1005600003B0BDE8F04FFFF713BF00980122400031
:100570000023D0EB020263EBE073009821464FEAC0
:10058000E074B8EB000061EB0401E9E783F000439D
:100590005BE781F0004158E72DE9F04D81EA030463
:1005A00004F0004B21F0004514464FF0000A23F000
:1005B000004150EA050220D054EA01021DD0C5F3E3
:1005C0000A570246C5F31303C1F31300C1F30A56D9
:1005D00040F4801543F48013A7EB0608101BD646A1
:1005E00008F2FD3873EB050002D308F1010801E0C1
:1005F00092185B41B8F1000F03DA00200146BDE814
:10060000F08D00204FF48011064684460EE0171B43
:1006100073EB050705D3121B63EB050306434CEA96
:10062000010C49084FEA300092185B4150EA01077B
:10063000EDD152EA030012D082EA040083EA0501F8
:10064000084305D0101BAB4106D20122002306E06F
:1006500000224FF0004302E06FF0010253101AEB4A
:1006600006004CEB085110EB0A0041EB0B01BDE812
:10067000F04DFFF78DBEC1F30A52C1F3130140F2F2
:10068000FF3341F480119A4202DA0020014670479C
:1006900040F233439A42A2F2334202DC5242FFF765
:1006A0008FBD00F02BB8000030B5041E71F10004BE
:1006B00004DB4FF00044404264EB0101141E73F16F
:1006C000000405DB1C464FF00043524263EB040379
:1006D000994208BF904230BD064C074D06E0E068E5
:1006E00040F0010394E8070098471034AC42F6D379
:1006F000FFF74EFDC0290008E0290008202A04DB8E
:10070000203A00FA02F1002070479140C2F1200324
:1007100020FA03F3194390407047202A06DBCB17D9
:10072000203A41FA02F043EAE07306E041FA02F3AC
:10073000D040C2F120029140084319467047FEE7BD
:100740007047000070B5044600F0D8F80546601CFC
:1007500002D004480078044400F0D0F8401BA042C6
:10076000FAD370BD100000202DE9F84FDFF864B116
:1007700000234FF0010C4FF0030A4FF00F090BF16B
:10078000040EA0E00CFA03F6324072D04C68022C42
:1007900001D0122C0ED1DC0800EB8408D8F82040E0
:1007A0005D07EF0E09FA07F5AC430D69BD4025431F
:1007B000C8F8205007685D0091F804800AFA05F433
:1007C00008F00308A74308FA05F848EA0708C0F844
:1007D00000804F68012F05D0022F03D0112F01D0C8
:1007E000122F11D18768D1F80C80A74308FA05F8B9
:1007F00048EA0708C0F808804768B7430E79C6F38F
:1008000000169E403E434660C668A6438C68AC40D6
:100810003443C4604C68E40054D52F4CA56945F0BE
:100820000105A561A46923F0030504F00104009407
:100830002A4C2E19B4689D072F0F09FA07F5AC430F
:10084000B0F1904F04D0264DA84203D1012512E00B
:10085000002510E0234DA84201D102250BE0224DD6
:10086000A84201D1032506E0204DA84202D104256B
:1008700001E027E00525BD402543B560DBF80040D9
:100880005D464E689443F60300D514432C60DEF8B1
:10089000004075464E689443B60300D514432C605F
:1008A0000C4D08352C684E689443F60200D514436D
:1008B0002C60084D0C352C684E689443B60200D568
:1008C00014432C605B1C0A6832FA03F47FF45AAFBD
:1008D000BDE8F88F00040140001002400000014014
:1008E0000004004800080048000C004800100048C0
:1008F0000AB18161704781627047000001488068D9
:10090000704700001000002090F84120202A24D1D8
:1009100090F84020012A20D0012280F84020242293
:1009200080F841200268136823F001031360026815
:10093000136823F480531360026813680B43136039
:1009400001680A6842F001020A60202180F8411023
:10095000002180F84010084670470220704790F848
:100960004120202A22D190F84020012A1ED00122C5
:1009700080F84020242280F841200268136823F088
:10098000010313600268136823F4706343EA0121D2
:10099000116001680A6842F001020A60202180F8B3
:1009A0004110002180F8401008467047022070472F
:1009B00070B5040004D094F84100002510B106E0A1
:1009C000012070BD84F84050204600F0B9F9242081
:1009D00084F841002068016821F00101016060682D
:1009E000216820F0706008612068816821F400416E
:1009F0008160E0680128A06807D040F404402168C5
:100A00008860E068022803D006E040F40040F6E782
:100A100021684FF40060486020684168114A114322
:100A200041602068C16821F40041C160D4E904013B
:100A30000843A16940EA01202168C860D4E90701A0
:100A40000843216808602068016841F001010160E5
:100A50006564202084F84100256384F8425000201A
:100A600070BD0000008000022DE9FF4F83B00446F6
:100A7000DDE9108790F84100DDF848909A469346EA
:100A8000202874D15FEA080072D0002F70D094F84B
:100A9000400001286BD0012084F84000FFF72EFFB2
:100AA0000646012200901923D103204600F090FF52
:100AB000002874D1222084F84100402084F84200AC
:100AC00000256564C4F8248067856563CDE90096D8
:100AD00053465A462046049900F0F4FE28B1606C53
:100AE00084F8405004285ED059E0618D3848FF27D3
:100AF0004FF080784FF0007AFF2904D927853A46D5
:100B00004346009005E0618D2185009094F82820EF
:100B100053462046049900F045FF4B46002204212D
:100B20002046009600F054FFC8BB2068416A606A06
:100B3000421C62620170208D401E0004000C208562
:100B4000618DA1F1010161851DD1608DD8B14B4648
:100B5000002280212046009600F03AFFF8B9608D0F
:100B6000FF2806D927853A464346009507E02CE042
:100B700019E0608D2085009594F828205346204682
:100B8000049900F00FFF608D0028C6D13246494617
:100B9000204600F046FF40B1606C042803D00320DB
:100BA00007B0BDE8F08F0120FAE721682020C86176
:100BB00021684A68074B1A404A6084F8410084F86B
:100BC000425084F840500020EAE70220E8E70000A5
:100BD0000024008000E800FE2DE9FF4F83B00446AA
:100BE000DDE9108790F84100DDF848909A46934679
:100BF000202870D15FEA08006ED0002F6CD094F8E6
:100C00004000012867D0012084F84000FFF776FEFD
:100C10000646012200901923D103204600F0D8FE99
:100C2000002854D1212084F84100402084F842005B
:100C300000256564C4F8248067856563CDE9009666
:100C400053465A462046049900F074FE28B1606C61
:100C500084F8405004286CD039E0608DFF274FF0B5
:100C600080784FF0007AFF2804D927853A4643461A
:100C7000009505E0608D2085009594F82820534666
:100C80002046049900F08EFE32464946204600F088
:100C9000EFFE18B1606C04284BD018E0606A411C6C
:100CA0006162216800788862608D401E6085208DB9
:100CB000401E0004000C208521D1608DF8B14B4608
:100CC000002280212046009600F082FE28B10320F9
:100CD00007B0BDE8F08F2EE02BE0608DFF2804D92F
:100CE00027853A464346009505E0608D20850095AE
:100CF00094F8282053462046049900F053FE608D56
:100D00000028C1D132464946204600F08AFE00281C
:100D1000C0D121682020C86121684A68074B1A4069
:100D20004A6084F8410084F8425084F84050002022
:100D3000CEE70120CCE70220CAE7000000E800FE71
:100D400010B586B0044614216846FFF750FA1249E0
:100D5000206888421ED1114C606940F48020606197
:100D60006069694600F480200590C0200090122040
:100D70000190012002900020039004200490084874
:100D8000FFF7F2FCE06940F40010E061E06900F474
:100D90000010059006B010BD005400400010024045
:100DA000000400480248816802781144816070475D
:100DB00010000020074810B5016841F010010160E3
:100DC000032000F061F8002000F006F800F024F89D
:100DD000002010BD0020024070B50D4D04464FF4B8
:100DE0007A712878B1FBF0F00A490968B1FBF0F09C
:100DF00000F004FD48B9102C07D200222146501EF5
:100E000000F022F800206C6070BD012070BD000071
:100E1000100000201C0000200A4882B0816941F0C7
:100E200001018161816901F001010091C16941F015
:100E30008051C161C06900F080500090072002B06D
:100E400000F022B800100240F0B40E4B1B680C46B4
:100E5000C3F30223C3F10705042D00D90425191D8E
:100E6000072901D2002300E0DB1E012606FA05F166
:100E7000491E214099409E40761E16403143F0BCE9
:100E800000F0E0BF0CED00E0064900F00702086842
:100E90004FF6FF03184040EA0220034A104308605F
:100EA000704700000CED00E00000FA052DE9F84F56
:100EB00004460068804DC0036FD5E8690026C00075
:100EC00008D4E86940F08050E861E869012600F044
:100ED0008050009079480168C90512D401688046A5
:100EE00041F480710160FFF709FD074605E000BF8E
:100EF000FFF704FDC01B642835D8D8F80000C005F2
:100F0000F6D5286A10F4407053D0A18801F44071DE
:100F100081424ED0286A4FF4803191FAA1F2B2FAA0
:100F200082F29700664A4FF00108174420F440709F
:100F3000C7F8008491FAA1F1B1FA81F102EB8101C5
:100F40000023C1F800342862C00732D0FFF7D6FC76
:100F5000074641F2883A4FF0020907E0FFF7CEFC5E
:100F6000C11B514502D90320BDE8F88F99FAA9F1B8
:100F7000B1FA81F141F040014846B8EB511F01D16F
:100F800029680CE090FAA0F1B1FA81F141F040013A
:100F9000B0EB511F02D1296A01E015E0696A99FAA4
:100FA000A9F0B0FA80F000F01F0008FA00F2114238
:100FB000D4D0286A616820F44070084328621EB1CA
:100FC000E86920F08050E8612078C00705D0286BE0
:100FD000A16820F00300084328632078800705D526
:100FE000286BE16820F440300843286320784007EC
:100FF00005D5286B216920F4402008432863207818
:10100000800605D5286BE16920F0100008432863AD
:101010002068800305D56868A16B20F48000084330
:1010200068602078400605D5286B216A20F02000F2
:10103000084328632078000705D5286B616920F4F0
:101040004010084328632078C00605D5286BA169A5
:1010500020F44000084328632088800505D568688F
:10106000E16A20F40000084368602078000605D596
:10107000E86A616A20F4F8700843E8622088C005D5
:1010800005D5E86AA16A20F478500843E862208810
:10109000C00405D5286B216B20F4807008432863B9
:1010A0002088800405D5286B616B20F4007008430C
:1010B0002863002058E70000001002400070004044
:1010C000000042422DE9F0470F46050069D04A4E24
:1010D000306800F00700B84209D2306820F00700FD
:1010E00038433060306800F00700B84259D12878A2
:1010F000424C800705D56068A96820F0F0000843DD
:1011000060602878C0073DD06968012001290DD0B2
:10111000022923D05FF0020393FAA3F2B2FA82F21B
:1011200042F02002520904D0226803E04FF4003359
:10113000F2E7626A93FAA3F3B3FA83F303F01F03AF
:10114000984002422DD0606820F0030008436060A0
:10115000FFF7D4FB804641F288390CE04FF0007372
:10116000DAE700BFFFF7CAFBA0EB0801494502D947
:101170000320BDE8F0876068696800F00C00B0EB00
:10118000810FEFD1306800F00700B8420BD930680A
:1011900020F0070038433060306800F00700B842A4
:1011A00001D00120E5E72878400705D56068E968A7
:1011B00020F4E060084360602878000706D5606886
:1011C000296920F4605040EAC100606000F01CF81A
:1011D0006168F02292FAA2F201F0F001B2FA82F212
:1011E000D140074A515CC840064908600020FFF71B
:1011F000F3FD0020BDE70000002002400010024087
:10120000B02900081C000020144B10B55A6814487F
:1012100002F00C0104291DD008291BD14FF47014D1
:1012200094FAA4F402F47011B4FA84F4E1400D4C81
:10123000DB6A615C0F2494FAA4F403F00F03B4FAA0
:1012400084F4E340074C1034D203E35C03D5B0FBD5
:10125000F3F0484310BD0448484310BD001002405D
:1012600000127A009029000800093D002DE9F84F8E
:10127000040071D02078FB4DC0074FF0010625D047
:1012800068687704C0F38100012807D06868C0F35C
:10129000810002281BD16868C00318D597FAA7F00F
:1012A000B0FA80F040F02000400901D0286800E04A
:1012B000686A97FAA7F1B1FA81F101F01F0106FA05
:1012C00001F1084265D060680028D2D061E0606812
:1012D000B0F5803F0BD010B1B0F5A02F17D0286823
:1012E00020F480302860286820F4802002E02868FC
:1012F00040F480302860E86AA16820F00F000843BD
:10130000E862606820B3FFF7F9FA80460AE02868CF
:1013100040F480202860EAE7FFF7F0FAA0EB08002D
:10132000642872D897FAA7F0B0FA80F040F0200055
:10133000400901D0286800E0686A97FAA7F1B1FA7D
:1013400081F101F01F0106FA01F10842E4D020E02A
:10135000FFF7D4FA804607E0C7E000BFFFF7CEFAF8
:10136000A0EB08006428DCD897FAA7F0B0FA80F068
:1013700040F02000400901D0286800E0686A97FA30
:10138000A7F1B1FA81F101F01F0106FA01F108425B
:10139000E4D12078DFF8D08280074FF0000A4FF0C8
:1013A000020759D568684FF0F80B10F00C0F07D002
:1013B0006868C0F3810002281BD16868C00318D494
:1013C00097FAA7F0B0FA80F040F02000400901D071
:1013D000286800E0686A97FAA7F1B1FA81F101F094
:1013E0001F0106FA01F108422BD0206901287CD1A7
:1013F00027E0206988B396FAA6F0B0FA80F048F8A2
:101400002060FFF77BFA814606E055E1FFF776FAA8
:10141000A0EB0900022884D897FAA7F0B0FA80F070
:1014200040F02000400901D0286800E0686A97FA7F
:10143000A7F1B1FA81F101F01F0106FA01F10842AA
:10144000E4D028689BFAABF26169B2FA82F220F02C
:10145000F80091400843286025E0FFE796FAA6F1DE
:10146000B1FA81F148F821A0FFF748FA814605E07A
:10147000FFF744FAA0EB09000228CCD897FAA7F0AE
:10148000B0FA80F040F02000400901D0286800E068
:10149000686A97FAA7F1B1FA81F101F01F0106FA23
:1014A00001F10842E4D1207800076AD5A069A0B311
:1014B00096FAA6F0B0FA80F008EB8000C0F88064DD
:1014C000FFF71CFA814605E0FFF718FAA0EB0900C8
:1014D0000228A0D897FAA7F0B0FA80F040F0600098
:1014E000B6EB501F02D128680CE077E197FAA7F01D
:1014F000B0FA80F040F06000B7EB501F01D1286ACD
:1015000000E0686A97FAA7F1B1FA81F101F01F01D2
:1015100006FA01F21042D7D033E0FFE796FAA6F0C0
:10152000B0FA80F008EB8000C0F880A4FFF7E6F97D
:10153000814605E0FFF7E2F9A0EB090002289CD8FC
:1015400097FAA7F0B0FA80F040F06000B6EB501FB9
:1015500001D128680BE097FAA7F0B0FA80F040F0CC
:101560006000B7EB501F01D1286A00E0686A97FA63
:10157000A7F1B1FA81F101F01F0106FA01F2104260
:10158000D8D12078400774D5E8694FF00009C00031
:1015900009D4E86940F08050E861E8694FF001093A
:1015A00000F08050009031480168C90512D40168EC
:1015B00041F480710160FFF7A1F9834606E000BFA6
:1015C000FFF79CF9A0EB0B00642875D8274800684A
:1015D000C005F5D5E06801280AD008B1052811D06A
:1015E000286A20F001002862286A20F0040002E046
:1015F000286A40F001002862E068C8B3FFF77EF96E
:1016000083460DE0286A40F004002862F0E700BF3E
:10161000FFF774F9A0EB0B0141F2883081424BD8FF
:1016200097FAA7F0B0FA80F040F04000B6EB501FF8
:1016300001D128680BE097FAA7F0B0FA80F040F0EB
:101640004000B7EB501F01D1286A00E0686A97FAA2
:10165000A7F1B1FA81F101F01F0106FA01F210427F
:10166000D6D035E000100240000042420070004039
:1016700000E034E0FFF742F9834607E0FFF73EF968
:10168000A0EB0B0141F28830814215D897FAA7F000
:10169000B0FA80F040F04000B6EB501F01D128684E
:1016A0000CE097FAA7F0B0FA80F040F04000B7EBFA
:1016B000501F02D1286A01E083E0686A97FAA7F117
:1016C000B1FA81F101F01F0106FA01F21042D5D101
:1016D000B9F1000F03D0E86920F08050E861E069BB
:1016E00080B36968C1F38101022977D04FF080711E
:1016F0004F00022809D091FAA1F0B0FA80F048F822
:1017000020A0FFF7FBF804465EE050468A4691FAB7
:10171000A1F1B1FA81F1C14648F82100FFF7EEF8D6
:10172000804605E0FFF7EAF8A0EB0800022848D859
:1017300097FAA7F0B0FA80F040F02000400902D0FC
:10174000286801E056E0686A97FAA7F1B1FA81F1DA
:1017500001F01F0106FA01F10842E3D1D4E90810B3
:101760000843696821F47411084368609AFAAAF082
:10177000B0FA80F049F82060FFF7C0F8044604E0B2
:10178000FFF7BCF8001B02281BD897FAA7F0B0FAA5
:1017900080F040F02000400901D0286800E0686A2D
:1017A00097FAA7F1B1FA81F101F01F0106FA01F1F0
:1017B0000842E5D01EE000BFFFF7A0F8001B02289A
:1017C00002D90320BDE8F88F97FAA7F0B0FA80F0AD
:1017D00040F02000400902D0286801E00CE0686A6F
:1017E00097FAA7F1B1FA81F101F01F0106FA01F1B0
:1017F0000842E1D10020E5E70120E3E710B5401EF3
:10180000B0F1807F01D3012010BD4FF0E024606172
:101810000F21601700F016FB0020A0610720206157
:10182000002010BDFEE701688A69D243920701D407
:1018300000228A6200688169C943C90703D08169AF
:1018400041F00101816170472DE9F04104460068D3
:1018500090460E468069C043C0062ED4002520273E
:1018600020688069C043800611D5701CF8D02EB165
:10187000FFF744F8A0EB0800B042F1D984F84170BA
:1018800084F8425084F840500320BDE8F08121687C
:101890001020C8612068C7612046FFF7C4FF54F8D4
:1018A000440B4168064A11404160042044F8200975
:1018B0006777A57725770120E7E70020E5E70000B7
:1018C00000E800FE2DE9F84304461646DDE90897D6
:1018D00017489846DAB200900023204600F062F8DC
:1018E0003A464946204600F0C3F818B1606C042817
:1018F0001CD018E0F5B2B8F1010F09D02168300A08
:1019000088623A464946204600F0B2F80028EDD1F8
:10191000206885624B46002240212046009700F057
:1019200057F8002800D00320BDE8F8830120FBE72A
:10193000002000802DE9F8430446164618489846D2
:10194000DDE90897DAB2C3020090204600F02AF8D9
:101950003A464946204600F08BF818B1606C0428DE
:101960001CD018E0F5B2B8F1010F09D02168300A97
:1019700088623A464946204600F07AF80028EDD1C0
:10198000206885624B46002280212046009700F0A7
:101990001FF8002800D00320BDE8F8830120FBE7F2
:1019A00000200080F0B50568059C68684FF48066EB
:1019B000064FC1F3090106EA545641EA02413E438B
:1019C0001943B043214308436860F0BDFF63FF0340
:1019D0002DE9F0411D4617460E460446DDF81880F5
:1019E00013E0681C11D02DB1FEF788FFA0EB0800B2
:1019F000A8420AD9202084F84100002084F842003F
:101A000084F840000320BDE8F0812068806936EA50
:101A1000000004D00020B842E3D00020F3E701200A
:101A2000F9E770B516460D4604461AE032462946D7
:101A30002046FFF709FF08B1012070BD25B1FEF770
:101A40005DFF801BA8420CD954F8440F40F02000E1
:101A500044F80409202060700020A070207003204A
:101A600070BD20688069C0438006DFD4002070BD4F
:101A700070B516460D4604461CE0324629462046FF
:101A8000FFF7E2FE08B1012070BD681C12D025B13D
:101A9000FEF734FF801BA8420CD954F8440F40F0E5
:101AA000200044F80409202060700020A0702070FD
:101AB000032070BD20688069C0438007DDD400200A
:101AC00070BD000010B501280BD002280CD00028F2
:101AD00013D1012000F0A6F8BDE810400220FEF767
:101AE00031BE0021084601E00021012000F087F806
:101AF000BDE8104001A000F05BB810BD2020202000
:101B00002020202020202020202020200000000055
:101B100010B5254C002201212046FEF7E9FE0022E7
:101B200002212046FEF7E4FE002204212046FEF7B3
:101B3000DFFE012280211D48FEF7DAFE0F20FEF7AE
:101B400001FE302000F096F80520FEF7FBFD302066
:101B500000F090F80120FEF7F5FD302000F08AF843
:101B60000120FEF7EFFD202000F084F80120FEF7B1
:101B7000E9FD282000F056F80120FEF7E3FD0F20D4
:101B800000F050F80120FEF7DDFD012000F04AF8DA
:101B90000220FEF7D7FD062000F044F8BDE8104013
:101BA0000120FEF7CFBD00000004004800100048EF
:101BB00070B50546002406E000F048F80120FEF765
:101BC000C1FD641CE4B2285D0028F5D170BD0000A1
:101BD000024680210148FEF78BBE0000001000483D
:101BE00010B5012801D010B104E00F2000E00C2056
:101BF00000F018F8BDE810400120FEF7A3BD10B5B5
:101C000010B1012803D008E041F0800003E040312A
:101C1000C8B240F0800000F005F8BDE81040012097
:101C2000FEF790BD10B50446002201210648FEF7DC
:101C30005FFE04F0F00000F01DF82007BDE8104042
:101C4000000E00F017B800000004004810B504466C
:101C5000012211460648FEF74BFE04F0F00000F0AA
:101C600009F82007BDE81040000E00F003B800009E
:101C70000004004870B5134D044600F080020821AE
:101C80002846FEF735FE04F0400204212846FEF700
:101C90002FFE04F0200202212846FEF729FE04F060
:101CA000100201212846FEF723FE074C01220421E1
:101CB0002046FEF71DFE2046BDE8704000220421AC
:101CC000FEF716BE00080048000400482DE9F04168
:101CD00086B014216846FEF78AFA4448416941F407
:101CE00000114161416901F400110591416941F41C
:101CF00000214161416901F400210591416941F4EC
:101D000080014161416901F480010591416941F41B
:101D100000314161416901F400310591416941F4AB
:101D2000802141614069324E00F480204FF6887571
:101D30000590002229463046FEF7DAFD2D4F00229D
:101D40000F213846FEF7D4FDDFF8AC8000220721D2
:101D50004046FEF7CDFD3720009028480024CDE90D
:101D6000010469463046FEF7FFFC00950125CDE9E8
:101D70000154694630460394FEF7F6FC0F200090AC
:101D8000CDE90154694638460394FEF7EDFCCDE9F0
:101D900000544FF09047694638460294FEF7E4FC41
:101DA000E02000900226CDE901640520CDE9034042
:101DB00069463846FEF7D8FC07200090CDE901546B
:101DC000694640460394FEF7CFFC4FF4C050CDE97E
:101DD00000060320CDE902400E20049069463846F3
:101DE000FEF7C2FC06B0BDE8F08100000010024022
:101DF00000100048000800480004004800001210CD
:101E00000E4810B50C49016040F20B2141600021E1
:101E10000122C0E90212016141618161C161016277
:101E2000FEF7C6FD00210548FEF76EFDBDE8104037
:101E300000210248FEF793BD00540040200000201E
:101E4000FEE770470907090E002806DA00F00F00C8
:101E500000F1E02080F8141D704700F1E02080F8C8
:101E60000014704770477047FEF79CBF30B59FB0B5
:101E700028216846FEF7BBF9142119A8FEF7B7F927
:101E80003C210AA8FEF7B3F9032000904FF4A020EC
:101E90000024CDE9010401200490102005900225C2
:101EA0000003CDE907504FF4E01009906846FFF7B2
:101EB000DDF90F20CDE919056802CDE91B400221AB
:101EC00019A81D94FFF7FEF820200A9011940AA883
:101ED000FEF7ECFF1FB030BD1448016841F47001FB
:101EE00001601348016841F0010101604168114A35
:101EF000114041600168104A11400160016821F4FD
:101F000080210160416821F4FE014160C16A21F035
:101F10000F01C162016B094A114001630021816018
:101F20000249C003803908607047000088ED00E076
:101F3000001002400CC07FF8FFFFF6FECCFC00FF53
:101F4000FEE700000FB4084B10B504A902AA0398DD
:101F500000F0DEF8044602A9002000F070FC2046E4
:101F600010BC5DF814FB00003F28000802E008C820
:101F7000121F08C1002AFAD170477047002001E003
:101F800001C1121F002AFBD1704700002DE9FF5F3D
:101F900082B00021DDE90430020DDDF840B00343DA
:101FA00018D044F61050A2F2FF3242431514119893
:101FB00001281FD0A5EB0B00401C5FEA000A4FF080
:101FC00000064E4FDFF83891B046504615D5CAF19D
:101FD000000413E0119801244AA3012801D16FEAFB
:101FE0000B010298119AC0E90031C0E9024206B023
:101FF000BDE8F09FCBF10000DFE704460021404A36
:10200000491842EB0450CDE9001012E0E00707D078
:1020100032463B4640464946FEF7F4F8804689463C
:1020200032463B4610461946FEF7ECF806460F4688
:102030006410002CEAD1DDE90401DDE90023BAF1E6
:10204000000F06DAFEF7DEF842464B46FEF7DAF8F6
:1020500005E0FEF7A1FA42464B46FEF79DFA04461C
:102060000E460022284BFEF71FFB03D84FF0FF302F
:10207000014607E00022254B20463146FEF7E5F9F0
:10208000FEF7F9FA102409E0002C0ADB0A220023EB
:10209000FEF74DF9039B30321A55641E50EA0102D7
:1020A000F2D1641C039AC4F111031444119A012A59
:1020B00003D0012208430DD10AE0084304D00020D8
:1020C0004FF0110B119072E7A3EB0B056D1E0DE0A5
:1020D0005B4504DD4FF0000205F1010504E003DA81
:1020E0004FF00002A5F10105002AECD002981199E9
:1020F000C0E90231C0E9004579E700000000144062
:102100000000F03F300000000000F0430000E03F1E
:102110002DE9FF4F95B09B468946064600250FE204
:10212000252877D100242746F84A0121059400E0AC
:10213000044316F8013F203B01FA03F01042F7D1A7
:1021400030782A2811D06FF02F033078A0F13002B8
:10215000092A16D8059A44F0020402EB820203EB26
:1021600042021044761C0590EFE759F8042B0592C3
:10217000002A03DA504244F40054059044F002046B
:10218000761C30782E2816D116F8010F44F004047E
:102190002A280DD06FF02F023078A0F13003092BE0
:1021A00009D807EB870302EB4303C718761CF3E754
:1021B00059F8047B761C30786C280FD006DC4C284C
:1021C00017D068280DD06A2814D104E0742810D0E4
:1021D0007A280FD10DE044F400140AE044F480148E
:1021E00001E044F440147278824202D104F5801474
:1021F000761C761C307866280BD013DC582877D0F4
:1022000009DC002875D04528F6D04628F4D04728A8
:102210001AD19DE118E0632835D0642879D065286B
:1022200012D195E1702873D008DC6728F1D06928B5
:102230006FD06E280DD06F2806D1B5E073282CD052
:10224000752875D0782874D05A46179990476D1C18
:1022500075E1C4F30250022809D003280DD0D9F843
:10226000001004280DD00D6009F1040967E1D9F8C8
:102270000010EA17C1E90052F6E7D9F800100D8006
:10228000F2E70D70F0E719F8041B8DF8001000203C
:102290008DF80100EA46012003E059F804AB4FF045
:1022A000FF3061074FF0000102D40DE008F1010199
:1022B0008846B9420FDA8045F8DB1AF80810002981
:1022C000F4D108E008F1010188468142FADB1AF8EE
:1022D00008100029F6D105985B46A0EB08072146B7
:1022E0003846179A00F094FA284400EB080507E0F6
:1022F0004DE029E10DE01AF8010B5A461799904775
:10230000B8F10108F7D25B4621463846179A13E127
:1023100042E00A220092C4F302524FF0000A022A5D
:1023200008D059F804CB032A4FEAEC710AD00DE02B
:1023300029E02AE009F1070121F00702F2E802C1D1
:10234000914609E00FFA8CFC4FEAEC71042A03D1A4
:102350004FFA8CFC4FEAEC71002907DA0A4600219B
:10236000DCF1000C61EB02012D2202E0220504D514
:102370002B228DF80420012203E0E20701D0202265
:10238000F7E7904659E00A2102E010220DE0102103
:102390004FF0000A00910BE010224FF0000A44F0C9
:1023A00004040827009203E008224FF0000A00927C
:1023B000C4F30252022A05D059F804CB0021032AA3
:1023C00008D009E009F1070121F00702F2E802C193
:1023D000914605E01FFA8CFC042A01D10CF0FF0C99
:1023E0004FF00008220728D5702806D0009B83F004
:1023F000100353EA0A0305D00EE040228DF80420B2
:10240000012208E05CEA010206D030228DF80420A7
:102410008DF8050002229046009B83F0080353EAE2
:102420000A030AD15CEA010201D1620705D5302214
:102430008DF804204FF001087F1E582804D034A0E6
:1024400003900EA802900DE036A0F9E753466046CF
:10245000009AFDF76CFF84460398825C0298401E48
:10246000029002705CEA0100F0D1029806A9081AF5
:1024700000F1200A600702D524F4803400E001272F
:10248000574502DDA7EB0A0000E0002000EB0A013F
:10249000009005984144401A0590E00306D45B463D
:1024A0002146179A059800F0B3F90544002706E085
:1024B00001A85A46C05D179990476D1C7F1C47457F
:1024C000F6DBE0030CD55B462146179A059800F031
:1024D0009FF9054404E030205A46179990476D1C37
:1024E0000099481E00900029F5DC08E00298029946
:1024F0005A460078491C0291179990476D1CBAF111
:102500000001AAF1010AF1DC65E1000009280100DF
:102510003031323334353637383961626364656659
:10252000000000003031323334353637383941421B
:10253000434445460000000000F058F90544761C6D
:10254000307800287FF4ECAD19B02846BDE8F08F54
:10255000620700D4062709F1070222F0070CFCE805
:102560000223E14603F000485FEA080C02D00FF2B4
:10257000702C0DE05FEA045C02D50FF2682C07E0D6
:102580005FEAC47C02D00FF2602C01E0AFF2700C65
:102590004FF0FF3823F00043CDF850C065280CD031
:1025A00006DC452809D046281DD047283DD13DE00E
:1025B000662818D067287ED138E00021112F01DB72
:1025C000112000E0781CCDE9000106A90EA8FFF754
:1025D000DDFCDDE90F010E9A03910021009207F165
:1025E000010A04914DE04FF000400097CDE9011041
:1025F00006A90EA8FFF7CAFCDDE90F0203920E9BA5
:1026000011990022DDF80CA00093049211B9791CF5
:1026100000EB010AB7EB0A0004D4C0F1FF3007F168
:10262000010A0490AAEB0700019044E0012F00DAB0
:1026300001270021112F01DD112000E03846CDE9EE
:10264000000106A90EA8FFF7A1FCDDE90F010E9A13
:102650000391002104910092BA4621070CD40399FA
:10266000514500DA8A46BAF1010F05DD009AAAF158
:102670000101515C302908D0B84202DA10F1040F90
:1026800006DA0121CDE9011015E0AAF10101E9E71F
:10269000002805DC049901440491AAEB000102E042
:1026A000411C514500DD8A460499401A401C0190A6
:1026B0004FF000400290200704D40198504501DB00
:1026C000CDF8048000208DF84F0002980DF14F07DF
:1026D000B0F1004F25D02B200E9002984FF0020849
:1026E00000280CDA404202902D200E9007E00A21CB
:1026F0000298FDF706FE3031029007F8011DB8F18F
:102700000001A8F10108F2DC02980028EFD1791E3F
:102710000E980870307800F0200040F0450007F86F
:10272000020D12A8C01B00F107081498007800B130
:10273000012000EB0A01019801EBE071059841448A
:10274000401A401E0590E00306D45B462146179AC6
:10275000059800F05DF805441498007818B15A46C1
:10276000179990476D1CE00324D55B462146179AC4
:10277000059800F04DF805441CE00498002807DB9C
:10278000DDE90301884203DD0098405C179901E010
:10279000179930205A469047049805F10105401CCE
:1027A00004900198401E019004D12E205A4617999A
:1027B00090476D1CBAF10001AAF1010ADDDC05E0C9
:1027C00017F8010B5A46179990476D1CB8F1000194
:1027D000A8F10108F4DC5B462146179A0598ABE6A0
:1027E0002D0000002B000000200000002DE9F0412A
:1027F000044600251E461746880404D405E03946E1
:102800002020B0476D1C641EF9D52846BDE8F08134
:102810002DE9F041044600251E469046C80301D527
:10282000302700E02027880404D505E041463846DB
:10283000B0476D1C641EF9D52846BDE8F0810A68D2
:10284000531C0B60107070472DED068B84B0FEF7A3
:10285000B1FAFFF70BFBFFF739FAFFF7D1FA3F4860
:1028600047216427017001218DE883000B46202257
:1028700032213B48FEF7B0F9FFF74AF90020FFF795
:1028800021F90120FFF7A4F90020FFF7A9F935A0ED
:10289000FFF78EF900210846FFF7B1F9DFF8BC9089
:1028A0002F4C09F101099FED31AB9FED328B9FED6C
:1028B000339B4FF0060A09F107085034CDE9009A1E
:1028C0004D460123A822322125480297FEF7CCF875
:1028D0002988A8F800106E88A8F80260AD88A8F8CA
:1028E00004500846FDF700FD53EC1A2BFDF78AFC57
:1028F00053EC182BFDF786FCC4E900013046FDF7C8
:10290000F3FC53EC192BFDF77DFC53EC182BFDF772
:1029100079FCC4E902012846FDF7E6FC53EC192BCB
:10292000FDF770FC53EC182BFDF76CFCC4E90401B7
:1029300000210120FFF763F994ED040B084853ECE4
:10294000102B10A16830FFF7FDFA05486830FFF73B
:102950002FF9C820FDF7F6FEB0E7000000000020C8
:102960002000002041786973000000000000000092
:102970000000103F1F85EB51B89E2340000000006F
:10298000000010BF5A203D20252E33662000000095
:1029900002030405060708090A0B0C0D0E0F1010A0
:1029A0000102030405060708090A0B0C0D0E0F109F
:1029B00000000000000000000102030406070809EF
:1029C000E029000800000020200000006C1F000823
:1029D000002A000820000020800400007C1F00085E
:1029E00000000000000000000000000000000000E7
:1029F00001000000100000000000000000127A003A
:040000050800018965
:00000001FF
