:020000040800F2
:10000000E80400209D010008E715000861120008BF
:10001000E515000809020008691B0008000000003F
:100020000000000000000000000000000B160008A7
:100030000B02000800000000091600080D16000859
:10004000B7010008B7010008B7010008B7010008B0
:10005000B7010008B7010008B7010008B7010008A0
:10006000B7010008B7010008B7010008B701000890
:10007000B7010008B7010008B7010008B701000880
:10008000B7010008B7010008B7010008B701000870
:10009000B7010008B7010008B7010008B701000860
:1000A000B7010008B7010008B7010008B701000850
:1000B000B7010008B7010008B7010008B701000840
:1000C000B7010008B7010008B7010008B701000830
:1000D000B7010008B7010008B70100085D1B000860
:1000E000B7010008B7010008B7010008B701000810
:1000F000B7010008B7010008B7010008B701000800
:10010000000000000000000000000000B70100082F
:10011000B7010008B7010008B7010008B7010008DF
:10012000B7010008B7010008B7010008B7010008CF
:10013000B7010008B701000800000000000000003F
:10014000B7010008B7010008B7010008000000006F
:10015000000000000000000000000000000000009F
:100160000000000000000000B7010008B70100080F
:10017000B7010008000000000000000000000000BF
:1001800000000000B7010008DFF80CD000F02AF8EA
:1001900000480047891B0008E80400200648804703
:1001A00006480047FEE7FEE7FEE7FEE7FEE7FEE75C
:1001B000FEE7FEE7FEE7FEE7751600088901000886
:1001C000D2B201E000F8012B491EFBD27047002299
:1001D000F6E710B513460A4604461946FFF7F0FF46
:1001E000204610BD064C074D06E0E06840F00103D4
:1001F00094E8070098471034AC42F6D3FFF7C8FFE5
:10020000181C0008381C0008FEE7704710B590F86D
:1002100021100024022903D004218163012418E065
:1002200001680A6822F00E020A6001680A6822F07A
:1002300001020A6090F84020C36B012101FA02F22A
:100240005A6080F82110002180F82010416B01B124
:100250008847204610BD000070B5044600F0D8F86D
:100260000546601C02D004480078044400F0D0F831
:10027000401BA042FAD370BD040000202DE9F84FC6
:10028000DFF864B100234FF0010C4FF0030A4FF088
:100290000F090BF1040EA0E00CFA03F6324072D005
:1002A0004C68022C01D0122C0ED1DC0800EB840823
:1002B000D8F820405D07EF0E09FA07F5AC430D6949
:1002C000BD402543C8F8205007685D0091F80480C0
:1002D0000AFA05F408F00308A74308FA05F848EA03
:1002E0000708C0F800804F68012F05D0022F03D007
:1002F000112F01D0122F11D18768D1F80C80A7439C
:1003000008FA05F848EA0708C0F808804768B743C4
:100310000E79C6F300169E403E434660C668A6436B
:100320008C68AC403443C4604C68E40054D52F4C16
:10033000A56945F00105A561A46923F0030504F052
:10034000010400942A4C2E19B4689D072F0F09FA56
:1003500007F5AC43B0F1904F04D0264DA84203D12D
:10036000012512E0002510E0234DA84201D102250D
:100370000BE0224DA84201D1032506E0204DA84202
:1003800002D1042501E027E00525BD402543B560E5
:10039000DBF800405D464E689443F60300D51443F5
:1003A0002C60DEF8004075464E689443B60300D5D5
:1003B00014432C600C4D08352C684E689443F602AB
:1003C00000D514432C60084D0C352C684E689443BE
:1003D000B60200D514432C605B1C0A6832FA03F4A1
:1003E0007FF45AAFBDE8F88F0004014000100240CE
:1003F000000001400004004800080048000C0048CC
:10040000001000480AB181617047816270470000A6
:10041000014880687047000004000020024881689D
:10042000027811448160704704000020074810B52D
:10043000016841F010010160032000F06BF800201A
:1004400000F006F800F024F8002010BD0020024063
:1004500070B50D4D04464FF47A712878B1FBF0F079
:100460000A490968B1FBF0F000F03EFD48B9102CD4
:1004700007D200222146501E00F02CF800206C60AC
:1004800070BD012070BD000004000020100000209D
:10049000094808B5816941F001018161816901F074
:1004A00001010091C16941F08051C161C06900F052
:1004B0008050009008BD00000010024000F01F02B4
:1004C000012191404009800000F1E020C0F80011B6
:1004D00070470000F0B40E4B1B680C46C3F30223B8
:1004E000C3F10705042D00D90425191D072901D2E0
:1004F000002300E0DB1E012606FA05F1491E21401B
:1005000099409E40761E16403143F0BC01F06CB815
:100510000CED00E0064900F0070208684FF6FF0303
:10052000184040EA0220034A104308607047000068
:100530000CED00E00000FA052DE9F84F04460068D4
:10054000804DC0036FD5E8690026C00008D4E86973
:1005500040F08050E861E869012600F0805000908A
:1005600079480168C90512D40168804641F4807158
:100570000160FFF74DFF074605E000BFFFF748FFAA
:10058000C01B642835D8D8F80000C005F6D5286A05
:1005900010F4407053D0A18801F4407181424ED0D4
:1005A000286A4FF4803191FAA1F2B2FA82F29700F0
:1005B000664A4FF00108174420F44070C7F80084E1
:1005C00091FAA1F1B1FA81F102EB81010023C1F8A6
:1005D00000342862C00732D0FFF71AFF074641F205
:1005E000883A4FF0020907E0FFF712FFC11B51459F
:1005F00002D90320BDE8F88F99FAA9F1B1FA81F187
:1006000041F040014846B8EB511F01D129680CE088
:1006100090FAA0F1B1FA81F141F04001B0EB511F25
:1006200002D1296A01E015E0696A99FAA9F0B0FAE5
:1006300080F000F01F0008FA00F21142D4D0286ABE
:10064000616820F44070084328621EB1E86920F018
:100650008050E8612078C00705D0286BA16820F0A1
:100660000300084328632078800705D5286BE168DC
:1006700020F44030084328632078400705D5286BD4
:10068000216920F44020084328632078800605D59E
:10069000286BE16920F0100008432863206880037C
:1006A00005D56868A16B20F4800008436860207855
:1006B000400605D5286B216A20F0200008432863F6
:1006C0002078000705D5286B616920F440100843A5
:1006D00028632078C00605D5286BA16920F4400066
:1006E000084328632088800505D56868E16A20F4FE
:1006F0000000084368602078000605D5E86A616A52
:1007000020F4F8700843E8622088C00505D5E86A3F
:10071000A16A20F478500843E8622088C00405D517
:10072000286B216B20F480700843286320888004A4
:1007300005D5286B616B20F4007008432863002006
:1007400058E70000001002400070004000004242E4
:100750002DE9F0470F46050069D04A4E306800F099
:100760000700B84209D2306820F0070038433060F3
:10077000306800F00700B84259D12878424C800711
:1007800005D56068A96820F0F0000843606028780B
:10079000C0073DD06968012001290DD0022923D06E
:1007A0005FF0020393FAA3F2B2FA82F242F020025F
:1007B000520904D0226803E04FF40033F2E7626A82
:1007C00093FAA3F3B3FA83F303F01F0398400242B2
:1007D0002DD0606820F0030008436060FFF718FE2A
:1007E000804641F288390CE04FF00073DAE700BF31
:1007F000FFF70EFEA0EB0801494502D90320BDE832
:10080000F0876068696800F00C00B0EB810FEFD1F1
:10081000306800F00700B8420BD9306820F00700BC
:1008200038433060306800F00700B84201D0012042
:10083000E5E72878400705D56068E96820F4E060BE
:10084000084360602878000706D56068296920F4AD
:10085000605040EAC100606000F04CF86168F0222E
:1008600092FAA2F201F0F001B2FA82F2D140074A04
:10087000515CC840064908600020FFF7E9FD0020F0
:10088000BDE700000020024000100240001C0008EC
:100890001000002008480949006849684FF4E062E8
:1008A00092FAA2F201F4E061B2FA82F2D140044A73
:1008B000515CC8407047000010000020001002404A
:1008C000101C000808480949006849684FF4605244
:1008D00092FAA2F201F46051B2FA82F2D140044AD3
:1008E000515CC8407047000010000020001002401A
:1008F000101C0008144B10B55A68144802F00C0183
:1009000004291DD008291BD14FF4701494FAA4F4C3
:1009100002F47011B4FA84F4E1400D4CDB6A615CBE
:100920000F2494FAA4F403F00F03B4FA84F4E34020
:10093000074C1034D203E35C03D5B0FBF3F048431B
:1009400010BD0448484310BD0010024000127A0058
:10095000E01B000800093D002DE9F84F040071D0AC
:100960002078FB4DC0074FF0010625D0686877045A
:10097000C0F38100012807D06868C0F38100022815
:100980001BD16868C00318D597FAA7F0B0FA80F0B9
:1009900040F02000400901D0286800E0686A97FA1A
:1009A000A7F1B1FA81F101F01F0106FA01F1084245
:1009B00065D060680028D2D061E06068B0F5803F03
:1009C0000BD010B1B0F5A02F17D0286820F48030DC
:1009D0002860286820F4802002E0286840F48030F5
:1009E0002860E86AA16820F00F000843E8626068A8
:1009F00020B3FFF70DFD80460AE0286840F4802010
:100A00002860EAE7FFF704FDA0EB0800642872D82D
:100A100097FAA7F0B0FA80F040F02000400901D02A
:100A2000286800E0686A97FAA7F1B1FA81F101F04D
:100A30001F0106FA01F10842E4D020E0FFF7E8FCCC
:100A4000804607E0C7E000BFFFF7E2FCA0EB08002C
:100A50006428DCD897FAA7F0B0FA80F040F02000C4
:100A6000400901D0286800E0686A97FAA7F1B1FA56
:100A700081F101F01F0106FA01F10842E4D120786A
:100A8000DFF8D08280074FF0000A4FF0020759D5F7
:100A900068684FF0F80B10F00C0F07D06868C0F3CF
:100AA000810002281BD16868C00318D497FAA7F008
:100AB000B0FA80F040F02000400901D0286800E042
:100AC000686A97FAA7F1B1FA81F101F01F0106FAFD
:100AD00001F108422BD0206901287CD127E0206950
:100AE00088B396FAA6F0B0FA80F048F82060FFF7D5
:100AF0008FFC814606E055E1FFF78AFCA0EB090078
:100B0000022884D897FAA7F0B0FA80F040F02000CD
:100B1000400901D0286800E0686A97FAA7F1B1FAA5
:100B200081F101F01F0106FA01F10842E4D02868C2
:100B30009BFAABF26169B2FA82F220F0F8009140C0
:100B40000843286025E0FFE796FAA6F1B1FA81F1A3
:100B500048F821A0FFF75CFC814605E0FFF758FC50
:100B6000A0EB09000228CCD897FAA7F0B0FA80F0E1
:100B700040F02000400901D0286800E0686A97FA38
:100B8000A7F1B1FA81F101F01F0106FA01F1084263
:100B9000E4D1207800076AD5A069A0B396FAA6F040
:100BA000B0FA80F008EB8000C0F88064FFF730FCFA
:100BB000814605E0FFF72CFCA0EB09000228A0D835
:100BC00097FAA7F0B0FA80F040F06000B6EB501F43
:100BD00002D128680CE077E197FAA7F0B0FA80F02C
:100BE00040F06000B7EB501F01D1286A00E0686A4E
:100BF00097FAA7F1B1FA81F101F01F0106FA01F2AB
:100C00001042D7D033E0FFE796FAA6F0B0FA80F0B2
:100C100008EB8000C0F880A4FFF7FAFB814605E0EE
:100C2000FFF7F6FBA0EB090002289CD897FAA7F083
:100C3000B0FA80F040F06000B6EB501F01D1286898
:100C40000BE097FAA7F0B0FA80F040F06000B7EB45
:100C5000501F01D1286A00E0686A97FAA7F1B1FA3B
:100C600081F101F01F0106FA01F21042D8D120787B
:100C7000400774D5E8694FF00009C00009D4E8695D
:100C800040F08050E861E8694FF0010900F08050C1
:100C9000009031480168C90512D4016841F480719F
:100CA0000160FFF7B5FB834606E000BFFFF7B0FB2E
:100CB000A0EB0B00642875D827480068C005F5D55F
:100CC000E06801280AD008B1052811D0286A20F070
:100CD00001002862286A20F0040002E0286A40F03F
:100CE00001002862E068C8B3FFF792FB83460DE07D
:100CF000286A40F004002862F0E700BFFFF788FB95
:100D0000A0EB0B0141F2883081424BD897FAA7F053
:100D1000B0FA80F040F04000B6EB501F01D12868D7
:100D20000BE097FAA7F0B0FA80F040F04000B7EB84
:100D3000501F01D1286A00E0686A97FAA7F1B1FA5A
:100D400081F101F01F0106FA01F21042D6D035E020
:100D500000100240000042420070004000E034E019
:100D6000FFF756FB834607E0FFF752FBA0EB0B01B2
:100D700041F28830814215D897FAA7F0B0FA80F096
:100D800040F04000B6EB501F01D128680CE097FA04
:100D9000A7F0B0FA80F040F04000B7EB501F02D14E
:100DA000286A01E083E0686A97FAA7F1B1FA81F155
:100DB00001F01F0106FA01F21042D5D1B9F1000F7E
:100DC00003D0E86920F08050E861E06980B3696889
:100DD000C1F38101022977D04FF080714F000228C2
:100DE00009D091FAA1F0B0FA80F048F820A0FFF7FE
:100DF0000FFB04465EE050468A4691FAA1F1B1FA33
:100E000081F1C14648F82100FFF702FB804605E06A
:100E1000FFF7FEFAA0EB0800022848D897FAA7F0DF
:100E2000B0FA80F040F02000400902D0286801E0CC
:100E300056E0686A97FAA7F1B1FA81F101F01F0153
:100E400006FA01F10842E3D1D4E9081008436968C1
:100E500021F47411084368609AFAAAF0B0FA80F09D
:100E600049F82060FFF7D4FA044604E0FFF7D0FA0F
:100E7000001B02281BD897FAA7F0B0FA80F040F0C8
:100E80002000400901D0286800E0686A97FAA7F1BD
:100E9000B1FA81F101F01F0106FA01F10842E5D033
:100EA0001EE000BFFFF7B4FA001B022802D903209E
:100EB000BDE8F88F97FAA7F0B0FA80F040F0200074
:100EC000400902D0286801E00CE0686A97FAA7F1AF
:100ED000B1FA81F101F01F0106FA01F10842E1D1F6
:100EE0000020E5E70120E3E710B5401EB0F1807F68
:100EF00001D3012010BD4FF0E02460610F21601785
:100F000000F072FB0020A06107202061002010BDCE
:100F10007047704770B503680446D869196810F0C7
:100F20000F0508D1820606D58A0604D52046BDE8FD
:100F3000704000F08ABC9A68002D66D002F001056E
:100F400001F490762E4360D0C60707D0CE0505D5B4
:100F500001261E62E36E43F00103E366830708D5B2
:100F6000D30706D0266802233362E36E43F00403FE
:100F7000E366430708D5D20706D0236804221A6225
:100F8000E26E42F00202E26602070AD501F0200298
:100F90002A4306D0236808221A62E26E42F0080251
:100FA000E266E26E002A29D0800604D5880602D5C2
:100FB000204600F04AFCE06E000703D420688068F9
:100FC00040061CD5204600F025FC206881684906B3
:100FD00011D5816821F040018160606E58B11C49D3
:100FE0004163606EFFF712F9002807D0606E416B15
:100FF000BDE8704008472046FFF78BFF70BD2046D4
:10100000FFF787FF0020E06670BDC5020ED55202D3
:101010000CD54FF480101862202084F8690084F801
:101020006A002046BDE87040FFF772BF020606D591
:101030000A0604D52046BDE8704000F02BBD4006EE
:10104000E2D54806E0D52046BDE8704000F0F0BB90
:101050000118000810B5040003D094F8690010B11D
:1010600007E0012010BD002084F86800204600F051
:1010700027F8242084F869002068016821F0010124
:101080000160204600F01CFC0128EBD0606A10B122
:10109000204600F023FB2068416821F49041416024
:1010A0002068816821F02A0181602068016841F090
:1010B000010101602046BDE8104000F073BB000054
:1010C00010B586B0044614216846FFF780F817492A
:1010D0002068884227D11648C16941F48021C16146
:1010E000C16901F480210591416941F48021416188
:1010F0004069694600F4802005904FF440600090FC
:101100000220019000200290032003900720049009
:101110000848FFF7B3F8002201212720FFF7DAF98A
:101120002720FFF7CBF906B010BD000000480040B3
:10113000001002400004004890F86A30202B36D19D
:1011400099B192B190F86830012B30D0012380F82A
:1011500068304165A0F85820A0F85A208168FF2225
:10116000B1F5805F03D039B10BE001207047016910
:10117000D1B940F2FF1102E00169A9B17F21A0F8C5
:101180005C100021C166222280F86A2080F8681075
:1011900001688A6842F001028A600068016841F4CF
:1011A0009071016000207047A0F85C20E9E7022000
:1011B0007047000070B5144C0122E11CA078401C5F
:1011C000A070124800F024F80122E11C0F48FFF73C
:1011D000B3FF0E49E27870310D2A04D020780A540A
:1011E000401C207070BD207800250D54284600F06A
:1011F00039F80021084600F0D2F80448703000F0B9
:10120000A7F8257070BD0000000000201400002029
:1012100090F86930202B18D1A9B1A2B190F86830AC
:10122000012B12D040F84C1F8280C2800021016245
:1012300021224277017750F84C0C016841F080017F
:1012400001600020704701207047022070470000B5
:1012500002484178491C417070470000000000209E
:10126000FEE7000010B501280BD002280CD00028A2
:1012700013D1012000F0A6F8BDE810400220FEF7CF
:10128000EBBF0021084601E00021012000F087F8B3
:10129000BDE8104001A000F05BB810BD2020202068
:1012A00020202020202020202020202000000000BE
:1012B00010B5254C002201212046FFF7A3F800229B
:1012C00002212046FFF79EF8002204212046FFF766
:1012D00099F8012280211D48FFF794F80F20FEF7AE
:1012E000BBFF302000F096F80520FEF7B5FF302058
:1012F00000F090F80120FEF7AFFF302000F08AF8F0
:101300000120FEF7A9FF202000F084F80120FEF75D
:10131000A3FF282000F056F80120FEF79DFF0F20C4
:1013200000F050F80120FEF797FF012000F04AF886
:101330000220FEF791FF062000F044F8BDE81040BF
:101340000120FEF789BF000000040048001000489B
:1013500070B50546002406E000F048F80120FEF7CD
:101360007BFF641CE4B2285D0028F5D170BD00004D
:10137000024680210148FFF745B8000000100048F0
:1013800010B5012801D010B104E00F2000E00C20BE
:1013900000F018F8BDE810400120FEF75DBF10B561
:1013A00010B1012803D008E041F0800003E0403193
:1013B000C8B240F0800000F005F8BDE81040012000
:1013C000FEF74ABF10B50446002201210648FFF788
:1013D00019F804F0F00000F01DF82007BDE81040F7
:1013E000000E00F017B800000004004810B50446D5
:1013F000012211460648FFF705F804F0F00000F05E
:1014000009F82007BDE81040000E00F003B8000006
:101410000004004870B5134D044600F08002082116
:101420002846FEF7EFFF04F0400204212846FEF7AD
:10143000E9FF04F0200202212846FEF7E3FF04F052
:10144000100201212846FEF7DDFF074C012204218E
:101450002046FEF7D7FF2046BDE870400022042159
:10146000FEF7D0BF00080048000400482DE9F04115
:1014700086B014216846FEF7AAFE4A48416941F445
:1014800000114161416901F400110591416941F484
:1014900000214161416901F400210591416941F454
:1014A00080014161416901F480010591416941F484
:1014B00000314161416901F400310591416941F414
:1014C000802141614069384E00F480204FF68875D4
:1014D0000590002229463046FEF794FF334F002244
:1014E0000F213846FEF78EFFDFF8C4800022072167
:1014F0004046FEF787FF372000902E480024CDE9B4
:10150000010469463046FEF7B9FE00950125CDE994
:101510000154694630460394FEF7B0FE0F20009058
:10152000CDE90154694638460394FEF7A7FECDE99C
:1015300000544FF09047694638460294FEF79EFEED
:10154000E02000900226CDE901640520CDE90340AA
:1015500069463846FEF792FE07200090CDE9015417
:10156000694640460394FEF789FE4FF4C050CDE92A
:1015700000060320CDE902400E200490694638465B
:10158000FEF77CFEC02000901220CDE9010504206A
:10159000CDE9034069464046FEF770FE06B0BDE85F
:1015A000F0810000001002400010004800080048D0
:1015B00000040048000012100948084901604FF477
:1015C00016514160002181600C22C160C0E9041203
:1015D0008161C16101624162FFF73CBD004800408A
:1015E00014000020FEE770470907090E002806DAFC
:1015F00000F00F0000F1E02080F8141D704700F1AA
:10160000E02080F80014704770477047FEF706BF6F
:1016100030B59FB028216846FEF7D9FD142119A8DE
:10162000FEF7D5FD3C210AA8FEF7D1FD01204FF4BD
:10163000A02100248DE81300049002250004CDE9C8
:1016400007504FF4E01009906846FFF785F90F2026
:10165000CDE919056802CDE91B40022119A81D94A6
:10166000FFF776F804200A900E940AA8FEF764FFAC
:101670001FB030BD1448016841F470010160134887
:10168000016841F0010101604168114A1140416067
:101690000168104A11400160016821F48021016055
:1016A000416821F4FE014160C16A21F00F01C1626D
:1016B000016B094A11400163002181600249C003A6
:1016C000803908607047000088ED00E0001002409B
:1016D0000CC07FF8FFFFF6FECCFC00FF90F8241052
:1016E000C90706D001684A68836A22F400321A43A7
:1016F0004A6090F82410890706D501684A68C36AD1
:1017000022F480321A434A6090F82410490706D523
:1017100001684A68036B22F480221A434A6090F8F9
:101720002410090706D501684A68436B22F4004279
:101730001A434A6090F82410C90606D501688A68E1
:10174000836B22F480521A438A6090F82410890631
:1017500006D501688A68C36B22F400521A438A6076
:1017600090F82410490611D501684A68036C22F4E8
:1017700080121A434A60016CB1F5801F06D10168DE
:101780004A68436C22F4C0021A434A6090F824105D
:10179000090606D501684A68806C22F400220243DB
:1017A0004A607047F8B500260446C666FEF730FE6C
:1017B0000546206800686FF07E47000708D52B4675
:1017C00000224FF400112046009700F095F960B90F
:1017D0002068006840070AD52B4600224FF480019C
:1017E0002046009700F088F908B10320F8BD2020BA
:1017F00084F8690084F86A0084F868600020F8BD05
:1018000010B5406A0021A0F85A10A0F85210FFF756
:1018100080FB10BD01680A6822F490720A600168BA
:101820008A6822F001028A60202180F86A107047DD
:1018300010B501680A6822F040020A60202180F891
:101840006910FFF705FD002010BD10B5B0F85C2051
:1018500090F86A300168222B05D0886940F00800B2
:101860008861022010BD898C8368B3F5805F01D147
:1018700003696BB11140426D531C43651170B0F8A0
:101880005A10491E0904090CA0F85A1007D015E097
:10189000436D11401980416D891C4165EFE7016876
:1018A0000A6822F490720A6001688A6822F00102D4
:1018B0008A60202180F86A10FFF77CFC002010BDB0
:1018C0002DE9F041044610202369A268E6691A4315
:1018D0006369002133431A4323680D461E6849F2A9
:1018E0000C67BE4316431E6022685368E66823F403
:1018F000405333435360236AA2691A4323689E68A6
:1019000026F4306616439E605A4F22685A4B0603EF
:10191000BA420CD11B6B13F0030306D0012B4DD040
:10192000022B4DD0032B4CD146E0012049E0534F10
:10193000BA420CD11B6B13F440333BD0B3423DD0C1
:10194000B3F5003F3CD0B3F5403F3AD134E04C4FC3
:10195000BA420DD11B6B13F440232BD0B3F5802F6B
:101960002CD0B3F5002F2BD0B3F5402F29D123E095
:10197000444FBA420DD11B6B13F440131AD0B3F588
:10198000801F1BD0B3F5001F1AD0B3F5401F18D12C
:1019900012E03D4FBA4214D11B6B13F4400309D03F
:1019A000B3F5800F0AD0B3F5000F09D0B3F5400F9F
:1019B00007D101E0002004E0022002E0042000E062
:1019C0000820E7694FF400439F4226D109281DD221
:1019D000DFE800F00508121C151C1C1C1800FEF79F
:1019E00059FF01E0FEF76EFF4100606801EB500116
:1019F000B1FBF0F081B20AE024496068F6E7FEF737
:101A000079FFF1E7606806EB5001F1E7012521F06D
:101A10000F00C1F3420108431CE0092825D2DFE88A
:101A200000F005080B24102424241C00FEF732FFCC
:101A300009E0FEF747FF06E01549606801EB500139
:101A40000EE0FEF757FF0146606801EB5001B1FB65
:101A5000F0F080B22168C86008E0606803EB5001D4
:101A6000B1FBF0F080B2D06000E001252846BDE86F
:101A7000F0810000003801400010024000440040A6
:101A800000480040004C0040005000400024F4009A
:101A900000127A0090F86910212901D002207047C5
:101AA000B0F8521021B18168B1F5805F0BD00CE025
:101AB00001680A6822F080020A600068016841F04B
:101AC000400101600CE0016961B1C16C4A1CC26453
:101AD00002680978A2F8281030F8521F491E0180C8
:101AE00000207047C16C02680988C1F308011185A4
:101AF000C16C891CC164EFE72DE9F0419846174697
:101B00000E460446069D1DE0681C1BD02DB1FEF755
:101B10007FFCA0EB0800A84214D92068016821F4DA
:101B2000D07101602068816821F00101816020206E
:101B300084F8690084F86A00002084F868000320B3
:101B4000BDE8F0812068C06936EA000004D00020BA
:101B5000B842D9D00020F3E70120F9E70148FFF7A8
:101B6000D9B9000014000020FEE702E008C8121FE7
:101B700008C1002AFAD170477047002001E001C176
:101B8000121F002AFBD17047FEF750FCFFF740FD03
:101B9000FFF76CFCFFF710FDFFF78AFB0020FFF753
:101BA00061FB0120FFF7E4FB0020FFF7E9FB0021C8
:101BB0000846FFF7F4FB06A0FFF7CAFB012206491F
:101BC0000648FFF7B9FAC820FEF746FBFBE700001E
:101BD00048656C6C6F0000000300002014000020BA
:101BE00002030405060708090A0B0C0D0E0F10105E
:101BF0000102030405060708090A0B0C0D0E0F105D
:101C000000000000000000000102030406070809AC
:101C10000000000001020304381C0008000000203E
:101C2000140000006A1B00084C1C0008140000206F
:101C3000D40400007A1B000800000000010000002E
:0C1C4000100000000000000000127A00FC
:040000050800018965
:00000001FF
