:020000040800F2
:10000000800400209D010008BB1C0008F9180008AE
:10001000B91C0008F9020008B51D00080000000026
:10002000000000000000000000000000DF1C0008CD
:10003000FB02000800000000DD1C0008E11C0008B5
:10004000B7010008B7010008B7010008B7010008B0
:10005000B7010008B7010008B7010008B7010008A0
:10006000B7010008B7010008B7010008B701000890
:10007000B7010008B7010008B7010008B701000880
:10008000B7010008B7010008B7010008B701000870
:10009000B7010008B7010008B7010008B701000860
:1000A000B7010008B7010008B7010008B701000850
:1000B000B7010008B7010008B7010008B701000840
:1000C000B7010008B7010008B7010008B701000830
:1000D000B7010008B7010008B7010008B701000820
:1000E000B7010008B7010008B7010008B701000810
:1000F000B7010008B7010008B7010008B701000800
:10010000000000000000000000000000B70100082F
:10011000B7010008B7010008B7010008B7010008DF
:10012000B7010008B7010008B7010008B7010008CF
:10013000B7010008B701000800000000000000003F
:10014000B7010008B7010008B7010008000000006F
:10015000000000000000000000000000000000009F
:100160000000000000000000B7010008B70100080F
:10017000B7010008000000000000000000000000BF
:1001800000000000B7010008DFF80CD000F040F8D4
:10019000004800474D2100088004002006488047A1
:1001A00006480047FEE7FEE7FEE7FEE7FEE7FEE75C
:1001B000FEE7FEE7FEE7FEE74D1D000889010008A7
:1001C000D2B201E000F8012B491EFBD27047002299
:1001D000F6E710B513460A4604461946FFF7F0FF46
:1001E000204610BD30B50B460146002020220124D8
:1001F00009E021FA02F59D4205D303FA02F5491BF5
:1002000004FA02F52844151EA2F10102F1DC30BD0A
:10021000064C074D06E0E06840F0010394E8070053
:1002200098471034AC42F6D3FFF7B2FFF82100082C
:100230001822000870B504460068816801F00301C7
:10024000012926D10168C90723D0816801F00D0179
:10025000012910D1816841F00201816021680320E9
:10026000086000F003FE05460FE000BF00F0FEFD51
:10027000401B022809D9606C40F010006064A06C3B
:1002800040F00100A064012070BD20688068C007B4
:10029000ECD1002070BD000070B504460068816894
:1002A00001F00301012902D10168C90720D1816849
:1002B000104A11420DD1816841F00101816000F0C6
:1002C000D5FD05460FE000BF00F0D0FD401B022821
:1002D00009D9606C40F010006064A06C40F001002F
:1002E000A064012070BD20680068C043C007EBD146
:1002F000002070BD3F000080FEE77047F0B500238E
:1003000002684FF0A04C3D4C95B01F46624501D1AC
:1003100000940DE0A24202D1CDF800C008E0384DB3
:10032000384EAA4201D1009602E0B24214D10095A3
:1003300090F84050012D12D0012580F8405095686A
:100340006D0752D4009DAD686D074ED4624501D053
:10035000A24206D12C4A05E0012015B0F0BD0220D2
:10036000FBE72A4A0D6840F61F741DB39568466B7B
:1003700025F4604545EA46354E6835439560056885
:10038000AE6806F00306012E02D12D68ED0731D1CB
:10039000009DAD6805F00305012D03D1009D2D687A
:1003A000ED0727D10D6889680D439168A1430D437E
:1003B00095601FE0916821F46041916001688D684B
:1003C00005F00305012D02D10968C90712D1009972
:1003D000896801F00301012903D100990968C9075F
:1003E00008D19168A143916004E0416C41F0200183
:1003F0004164012380F840701846AEE700010050C8
:100400000004005000050050000300500007005099
:10041000F0B595B00024009490F840202546012ABC
:1004200019D0012780F8407003689A6852077CD47D
:100430004A681F26052A11D2D3F830C002EB4202C7
:10044000520096402CEA060C0E6896404CEA060CC8
:10045000C3F830C035E0022015B0F0BD0A2A0FD233
:10046000D3F834C0521F02EB4202520096402CEAED
:10047000060C0E6896404CEA060CC3F834C020E027
:100480000F2A0FD2D3F838C00A3A02EB42025200C8
:1004900096402CEA060C0E6896404CEA060CC3F80F
:1004A00038C00EE0D3F83CC00F3A02EB42025200D3
:1004B00096402CEA060C0E6896404CEA060CC3F8EF
:1004C0003CC00268936813F00C0F4FF0070374D11F
:1004D000D1F800E0BEF10A0F10D39669AEF10A0E12
:1004E0000EEB4E0C03FA0CFE26EA0E06D1F808E0DD
:1004F0000EFA0CFE46EA0E0696610FE0D2F814C022
:100500000EEB4E0603FA06FE2CEA0E0CD1F808E0BC
:100510000EFA06FE4CEA0E0CC2F814C002684E69D0
:10052000D2F80CC0CCF3C10C00E0FDE04FEA4C0C5B
:1005300006FA0CF6D1F810E0DFF848C2BEF1010F60
:1005400042D0BEF1020F4DD0BEF1030F58D0BEF124
:10055000040F63D0166E91F800C006F0F846B6EBB3
:100560008C6F03D1166E26F0004616660268566E32
:1005700091F800C006F0F846B6EB8C6F03D1566ECA
:1005800026F0004656660268966E91F800C006F0A6
:10059000F846B6EB8C6F03D1966E26F00046966651
:1005A0000268D66E91F800C006F0F846B6EB8C6F84
:1005B00003D1D66E26F00046D6660268966806F02D
:1005C0000306012E3AD136E0D2F860E00EEA0C0EB6
:1005D00091F800C046EA8C664EEA060E4EF00046E0
:1005E0001666EAE7D2F864E00EEA0C0E91F800C055
:1005F00046EA8C664EEA060E4EF000465666DCE78A
:10060000D2F868E00EEA0C0E91F800C046EA8C665B
:100610004EEA060E4EF000469666CEE7D2F86CE043
:100620000EEA0C0E91F800C046EA8C664EEA060E01
:100630004EF00046C0E71668F6077AD1CE68012E64
:1006400006D052F8B03F0E78B740BB43136021E0AC
:1006500052F8B06F91F800C007FA0CF73E431660ED
:100660000A680A2A0BD30668B769093A02EB420204
:1006700093409F438B6893401F43B7610AE007682C
:100680007E69521C02EB420293409E438B6893406A
:100690001E437E6103684FF0A0473B4EBB4201D032
:1006A000B34201D1394A00E0394A0968102904D01F
:1006B000112907D012290AD03BE0D2F808C04FEA2E
:1006C0000C2C08E0D2F808C04FEACC1C03E0D2F8AA
:1006D00008C04FEA4C2CBCF1000F2ADBBB420DD006
:1006E000B34201D100970CE02A4EDFF8ACC0B34210
:1006F00002D1CDF800C004E0634501D1009600E0CE
:1007000000959E6806F00306012E02D11E68F607CA
:100710000AD1009E8EB1B66806F00306012E0CD1F8
:10072000009E3668F60708D0416C41F02001416414
:10073000012480F8405020468EE6102908D0112967
:100740001AD01229F5D1916841F480019160F0E747
:10075000BB42EED1916841F4000191600F49104A0B
:100760000968B1FBF2F101EB8101490000E0491E8B
:1007700000910029FBD1DCE7BB42DAD1916841F05E
:100780008071E3E700F0FF83000100500003005098
:100790000007005000040050000500501000002029
:1007A00040420F000068006C70470000F0B54FF049
:1007B000000695B0040037463546009605D0606CBB
:1007C000C00648D4606C18B133E0012015B0F0BD0C
:1007D000A5642565E56484F84050204600F00AF9D8
:1007E00020688068C00024D42046FFF723FD064619
:1007F000606CC0061DD4E6B9606C20F4885040F0EF
:10080000020060642068816821F0405181602068A6
:10081000816841F0805181606D486E490068B0FB8D
:10082000F1F000EB8000400000E0401E0090002846
:10083000FBD120688168C90002D5806880000AD594
:10084000606C20F0020040F010006064A06C40F08A
:100850000100A0640126606CC00675D4002E73D11F
:100860002068816849076FD4616C21F4807141F080
:10087000020161644FF0A04E574B704501D0984281
:1008800001D1564A00E0564ADFF858C15649704532
:1008900001D100930EE0984202D1CDF800E009E0CA
:1008A000884202D1CDF800C004E0604501D100913A
:1008B00000E00095836803F00303012B02D1006878
:1008C000C00710D1009840B1806800F003000128F3
:1008D00003D100980068C00705D19068636820F4D0
:1008E000403018439060D4E902201043A26B012AE3
:1008F00002D04FF4805300E00023E26943EA423320
:100900001843636A3843012B0AD1F2B1626C22F0BA
:10091000020242F020026264A26C42F00102A26470
:10092000E26A012A21D023688B4201D0634518D1A5
:100930004FF430774FF4E071BA4213D04FF4807324
:100940009A420AD139460DE038E0228D274B03EB5D
:100950004242024342F48030E2E78A4201D1194622
:1009600000E011460143206B084321688A6812F0B9
:100970000C0F0AD1CA6844F202039A43CA60A16903
:10098000626B890341EA420108432268D168184B2F
:1009900019400143D160206901282068016B21F0D2
:1009A0000F0102D1226A521E11430163A564606CDB
:1009B00020F0020040F00100606406E0606C20F06E
:1009C000020040F01000606401263046FEE60000A0
:1009D0001000002040420F000001005000030050B2
:1009E0000007005000050050000400500000FEFF0A
:1009F00007C0F0FF10B586B0044614216846FFF723
:100A0000E6FB2068B0F1A04F1AD10E48416941F0D1
:100A100080514161416901F080510591416941F482
:100A2000800141614069694600F480000590102012
:100A300000900320019000200290034800F04CF940
:100A400006B010BD00100240001400482DE9F04728
:100A50000D46044641693F4A00684FF000084FF0D8
:100A6000A043082905D0984201D0904203D13A49C9
:100A700002E0082614E039498E68F6060CD0896831
:100A800001F4404159B1606C40F02000606484F88A
:100A900040800120BDE8F087C168C907F2E70C2655
:100AA000984201D0904202D1D3F8081302E02B49BA
:100AB0000831096811F01F0F04D0984202D028496C
:100AC000884201D1C76803E0904200D11946CF683F
:100AD00000F0CCF9814610E0681C0ED02DB100F07A
:100AE000C5F9A0EB0900A84207D9606C40F00400EA
:100AF000606484F840800320CCE7206800683042BE
:100B0000EAD0606C40F4007060642068C16811F441
:100B1000406F1AD1B90418D40168090715D5816846
:100B20004907616C0AD421F480716164616CC90465
:100B30000BD4616C41F00101616406E041F02001D9
:100B40006164A16C41F00101A164790400D40660E4
:100B500000209FE7000100500003005000070050F4
:100B6000000400502DE9F041044600688068400709
:100B700070D494F8400001280CD0012084F8400083
:100B80002046FFF789FB03004FF0000605D084F8EC
:100B9000406086E00220BDE8F081606C40F60161B3
:100BA000884340F48070606420684FF0A0413E4A62
:100BB0003E4D884201D0904202D1D1F8087300E046
:100BC0002F6817F01F0F3A4F03D0884201D0B84268
:100BD0000BD1D4F844C02CF4801CC4F844C0D0F825
:100BE0000CC05FEA8C1C14D41BE0D4F844C04CF455
:100BF000801CC4F844C0904202D1D1F80CC005E07A
:100C0000DFF8ACC00CF10C0CDCF800C01CF0007F6D
:100C100007D0D4F844C02CF4005C4CF4805CC4F8D9
:100C200044C0D4F844C05FEACC4C06D5D4F848C0E0
:100C30002CF0060CC4F848C000E0A66484F84060BC
:100C40001C2606602068884201D0904203D1D1F86A
:100C5000084301E024E02C6814F01F0F1BD08842E9
:100C600001D0904202D1D1F8084300E02C6804F092
:100C70001F04052C0FD0884201D0904202D1D1F838
:100C8000082300E02A6802F01F02092A03D08842E4
:100C900001D0B84205D1816841F00401816000E0D3
:100CA0000223184677E700000001005008070050B3
:100CB0000004005070B5044600F0D8F80546601CEA
:100CC00002D004480078044400F0D0F8401BA04251
:100CD000FAD370BD040000202DE9F84FDFF864B1AD
:100CE00000234FF0010C4FF0030A4FF00F090BF1F6
:100CF000040EA0E00CFA03F6324072D04C68022CCD
:100D000001D0122C0ED1DC0800EB8408D8F820406A
:100D10005D07EF0E09FA07F5AC430D69BD402543A9
:100D2000C8F8205007685D0091F804800AFA05F4BD
:100D300008F00308A74308FA05F848EA0708C0F8CE
:100D400000804F68012F05D0022F03D0112F01D052
:100D5000122F11D18768D1F80C80A74308FA05F843
:100D600048EA0708C0F808804768B7430E79C6F319
:100D700000169E403E434660C668A6438C68AC4061
:100D80003443C4604C68E40054D52F4CA56945F049
:100D90000105A561A46923F0030504F00104009492
:100DA0002A4C2E19B4689D072F0F09FA07F5AC439A
:100DB000B0F1904F04D0264DA84203D1012512E096
:100DC000002510E0234DA84201D102250BE0224D61
:100DD000A84201D1032506E0204DA84202D10425F6
:100DE00001E027E00525BD402543B560DBF8004064
:100DF0005D464E689443F60300D514432C60DEF83C
:100E0000004075464E689443B60300D514432C60E9
:100E10000C4D08352C684E689443F60200D51443F7
:100E20002C60084D0C352C684E689443B60200D5F2
:100E300014432C605B1C0A6832FA03F47FF45AAF47
:100E4000BDE8F88F0004014000100240000001409E
:100E50000004004800080048000C0048001000484A
:100E60000AB1816170478162704700000148806863
:100E70007047000004000020024881680278114495
:100E80008160704704000020074810B5016841F0F8
:100E900010010160032000F061F8002000F006F866
:100EA00000F024F8002010BD0020024070B50D4D68
:100EB00004464FF47A712878B1FBF0F00A490968CA
:100EC000B1FBF0F000F004FD48B9102C07D200226D
:100ED0002146501E00F022F800206C6070BD0120F9
:100EE00070BD000004000020100000200A4882B0FD
:100EF000816941F001018161816901F00101009185
:100F0000C16941F08051C161C06900F0805000901A
:100F1000072002B000F022B800100240F0B40E4BDF
:100F20001B680C46C3F30223C3F10705042D00D947
:100F30000425191D072901D2002300E0DB1E01262C
:100F400006FA05F1491E214099409E40761E164042
:100F50003143F0BC00F0B2BE0CED00E0064900F0F9
:100F6000070208684FF6FF03184040EA0220034AD0
:100F700010430860704700000CED00E00000FA0527
:100F80002DE9F84F04460068804DC0036FD5E8692D
:100F90000026C00008D4E86940F08050E861E869A4
:100FA000012600F08050009079480168C90512D4EC
:100FB0000168804641F480710160FFF757FF0746E2
:100FC00005E000BFFFF752FFC01B642835D8D8F8F2
:100FD0000000C005F6D5286A10F4407053D0A188EF
:100FE00001F4407181424ED0286A4FF4803191FA69
:100FF000A1F2B2FA82F29700664A4FF00108174454
:1010000020F44070C7F8008491FAA1F1B1FA81F19F
:1010100002EB81010023C1F800342862C00732D0FE
:10102000FFF724FF074641F2883A4FF0020907E034
:10103000FFF71CFFC11B514502D90320BDE8F88F03
:1010400099FAA9F1B1FA81F141F040014846B8EBB3
:10105000511F01D129680CE090FAA0F1B1FA81F199
:1010600041F04001B0EB511F02D1296A01E015E0C7
:10107000696A99FAA9F0B0FA80F000F01F0008FA46
:1010800000F21142D4D0286A616820F4407008430D
:1010900028621EB1E86920F08050E8612078C0071E
:1010A00005D0286BA16820F003000843286320784E
:1010B000800705D5286BE16820F440300843286399
:1010C0002078400705D5286B216920F4402008438B
:1010D00028632078800605D5286BE16920F0100090
:1010E000084328632068800305D56868A16B20F455
:1010F0008000084368602078400605D5286B216A87
:1011000020F02000084328632078000705D5286BCD
:10111000616920F44010084328632078C00605D593
:10112000286BA16920F440000843286320888005CB
:1011300005D56868E16A20F40000084368602078FB
:10114000000605D5E86A616A20F4F8700843E86291
:101150002088C00505D5E86AA16A20F478500843C4
:10116000E8622088C00405D5286B216B20F48070CC
:10117000084328632088800405D5286B616B20F420
:10118000007008432863002058E700000010024068
:1011900000700040000042422DE9F0470F46050074
:1011A00069D04A4E306800F00700B84209D2306872
:1011B00020F0070038433060306800F00700B84284
:1011C00059D12878424C800705D56068A96820F07D
:1011D000F000084360602878C0073DD069680120AE
:1011E00001290DD0022923D05FF0020393FAA3F264
:1011F000B2FA82F242F02002520904D0226803E0DF
:101200004FF40033F2E7626A93FAA3F3B3FA83F37D
:1012100003F01F03984002422DD0606820F00300C5
:1012200008436060FFF722FE804641F288390CE0F7
:101230004FF00073DAE700BFFFF718FEA0EB0801DC
:10124000494502D90320BDE8F0876068696800F06D
:101250000C00B0EB810FEFD1306800F00700B8420E
:101260000BD9306820F0070038433060306800F058
:101270000700B84201D00120E5E72878400705D5EE
:101280006068E96820F4E06008436060287800073F
:1012900006D56068296920F4605040EAC1006060AA
:1012A00000F01CF86168F02292FAA2F201F0F0015D
:1012B000B2FA82F2D140074A515CC8400649086040
:1012C0000020FFF7F3FD0020BDE7000000200240F2
:1012D00000100240E821000810000020144B10B557
:1012E0005A68144802F00C0104291DD008291BD1AA
:1012F0004FF4701494FAA4F402F47011B4FA84F464
:10130000E1400D4CDB6A615C0F2494FAA4F403F015
:101310000F03B4FA84F4E340074C1034D203E35CC7
:1013200003D5B0FBF3F0484310BD0448484310BD5B
:101330000010024000127A00C821000800093D0098
:101340002DE9F84F040071D02078FB4DC0074FF015
:10135000010625D068687704C0F38100012807D012
:101360006868C0F3810002281BD16868C00318D5E3
:1013700097FAA7F0B0FA80F040F02000400901D0C1
:10138000286800E0686A97FAA7F1B1FA81F101F0E4
:101390001F0106FA01F1084265D060680028D2D02A
:1013A00061E06068B0F5803F0BD010B1B0F5A02FC0
:1013B00017D0286820F480302860286820F4802026
:1013C00002E0286840F480302860E86AA16820F0D4
:1013D0000F000843E862606820B3FFF747FD8046CE
:1013E0000AE0286840F480202860EAE7FFF73EFD25
:1013F000A0EB0800642872D897FAA7F0B0FA80F042
:1014000040F02000400901D0286800E0686A97FA9F
:10141000A7F1B1FA81F101F01F0106FA01F10842CA
:10142000E4D020E0FFF722FD804607E0C7E000BFE0
:10143000FFF71CFDA0EB08006428DCD897FAA7F0A2
:10144000B0FA80F040F02000400901D0286800E0A8
:10145000686A97FAA7F1B1FA81F101F01F0106FA63
:1014600001F10842E4D12078DFF8D08280074FF004
:10147000000A4FF0020759D568684FF0F80B10F0DA
:101480000C0F07D06868C0F3810002281BD1686880
:10149000C00318D497FAA7F0B0FA80F040F020000B
:1014A000400901D0286800E0686A97FAA7F1B1FA0C
:1014B00081F101F01F0106FA01F108422BD02069E9
:1014C00001287CD127E0206988B396FAA6F0B0FA0B
:1014D00080F048F82060FFF7C9FC814606E055E13E
:1014E000FFF7C4FCA0EB0900022884D897FAA7F004
:1014F000B0FA80F040F02000400901D0286800E0F8
:10150000686A97FAA7F1B1FA81F101F01F0106FAB2
:1015100001F10842E4D028689BFAABF26169B2FAA3
:1015200082F220F0F80091400843286025E0FFE7B0
:1015300096FAA6F1B1FA81F148F821A0FFF796FCDE
:10154000814605E0FFF792FCA0EB09000228CCD809
:1015500097FAA7F0B0FA80F040F02000400901D0DF
:10156000286800E0686A97FAA7F1B1FA81F101F002
:101570001F0106FA01F10842E4D1207800076AD57C
:10158000A069A0B396FAA6F0B0FA80F008EB80004C
:10159000C0F88064FFF76AFC814605E0FFF766FC4F
:1015A000A0EB09000228A0D897FAA7F0B0FA80F0C3
:1015B00040F06000B6EB501F02D128680CE077E1E4
:1015C00097FAA7F0B0FA80F040F06000B7EB501F38
:1015D00001D1286A00E0686A97FAA7F1B1FA81F1AF
:1015E00001F01F0106FA01F21042D7D033E0FFE705
:1015F00096FAA6F0B0FA80F008EB8000C0F880A45C
:10160000FFF734FC814605E0FFF730FCA0EB090052
:1016100002289CD897FAA7F0B0FA80F040F060005A
:10162000B6EB501F01D128680BE097FAA7F0B0FA8B
:1016300080F040F06000B7EB501F01D1286A00E055
:10164000686A97FAA7F1B1FA81F101F01F0106FA71
:1016500001F21042D8D12078400774D5E8694FF0E4
:101660000009C00009D4E86940F08050E861E869E9
:101670004FF0010900F08050009031480168C90521
:1016800012D4016841F480710160FFF7EFFB8346DB
:1016900006E000BFFFF7EAFBA0EB0B00642875D85B
:1016A00027480068C005F5D5E06801280AD008B1D0
:1016B000052811D0286A20F001002862286A20F04D
:1016C000040002E0286A40F001002862E068C8B324
:1016D000FFF7CCFB83460DE0286A40F00400286247
:1016E000F0E700BFFFF7C2FBA0EB0B0141F288302F
:1016F00081424BD897FAA7F0B0FA80F040F0400052
:10170000B6EB501F01D128680BE097FAA7F0B0FAAA
:1017100080F040F04000B7EB501F01D1286A00E094
:10172000686A97FAA7F1B1FA81F101F01F0106FA90
:1017300001F21042D6D035E00010024000004242D3
:101740000070004000E034E0FFF790FB834607E0C4
:10175000FFF78CFBA0EB0B0141F28830814215D8DA
:1017600097FAA7F0B0FA80F040F04000B6EB501FB7
:1017700001D128680CE097FAA7F0B0FA80F040F0A9
:101780004000B7EB501F02D1286A01E083E0686A8D
:1017900097FAA7F1B1FA81F101F01F0106FA01F2FF
:1017A0001042D5D1B9F1000F03D0E86920F0805084
:1017B000E861E06980B36968C1F38101022977D0EB
:1017C0004FF080714F00022809D091FAA1F0B0FAD1
:1017D00080F048F820A0FFF749FB04465EE0504641
:1017E0008A4691FAA1F1B1FA81F1C14648F8210087
:1017F000FFF73CFB804605E0FFF738FBA0EB080055
:10180000022848D897FAA7F0B0FA80F040F02000FC
:10181000400902D0286801E056E0686A97FAA7F10B
:10182000B1FA81F101F01F0106FA01F10842E3D19A
:10183000D4E908100843696821F47411084368600A
:101840009AFAAAF0B0FA80F049F82060FFF70EFB90
:10185000044604E0FFF70AFB001B02281BD897FA96
:10186000A7F0B0FA80F040F02000400901D02868CD
:1018700000E0686A97FAA7F1B1FA81F101F01F015F
:1018800006FA01F10842E5D01EE000BFFFF7EEFACC
:10189000001B022802D90320BDE8F88F97FAA7F0B1
:1018A000B0FA80F040F02000400902D0286801E042
:1018B0000CE0686A97FAA7F1B1FA81F101F01F0113
:1018C00006FA01F10842E1D10020E5E70120E3E753
:1018D00010B5401EB0F1807F01D3012010BD4FF044
:1018E000E02460610F21601700F0E8F90020A0619A
:1018F00007202061002010BDFEE7000010B5012880
:101900000BD002280CD0002813D1012000F0A6F83B
:10191000BDE810400220FFF7CDB90021084601E0E4
:101920000021012000F087F8BDE8104001A000F080
:101930005BB810BD20202020202020202020202047
:10194000202020200000000010B5254C002201219D
:101950002046FFF785FA002202212046FFF780FA91
:10196000002204212046FFF77BFA012280211D4836
:10197000FFF776FA0F20FFF79DF9302000F096F878
:101980000520FFF797F9302000F090F80120FFF7CD
:1019900091F9302000F08AF80120FFF78BF9202020
:1019A00000F084F80120FFF785F9282000F056F8B0
:1019B0000120FFF77FF90F2000F050F80120FFF71A
:1019C00079F9012000F04AF80220FFF773F90620A8
:1019D00000F044F8BDE810400120FFF76BB90000AB
:1019E000000400480010004870B50546002406E0D9
:1019F00000F048F80120FFF75DF9641CE4B2285DAF
:101A00000028F5D170BD0000024680210148FFF793
:101A100027BA00000010004810B5012801D010B10D
:101A200004E00F2000E00C2000F018F8BDE81040A2
:101A30000120FFF73FB910B510B1012803D008E02D
:101A400041F0800003E04031C8B240F0800000F077
:101A500005F8BDE810400120FFF72CB910B5044689
:101A6000002201210648FFF7FBF904F0F00000F026
:101A70001DF82007BDE81040000E00F017B8000068
:101A80000004004810B50446012211460648FFF73D
:101A9000E7F904F0F00000F009F82007BDE8104075
:101AA000000E00F003B800000004004870B5134DAC
:101AB000044600F0800208212846FFF7D1F904F01F
:101AC000400204212846FFF7CBF904F0200202214E
:101AD0002846FFF7C5F904F0100201212846FFF758
:101AE000BFF9074C012204212046FFF7B9F920462F
:101AF000BDE8704000220421FFF7B2B90008004899
:101B00000004004830B589B00024069407941821D9
:101B100068460894FEF75BFB13484FF0A04101258F
:101B2000C0E9001484600461C5614462C0E90B54DB
:101B3000C460056204214463C0E905148463FEF7B0
:101B400035FE06A908480694FEF7D8FB052000904C
:101B50000394CDE901540494694603480594FEF7C3
:101B600057FC09B030BD0000140000202DE9F04101
:101B700086B014216846FEF72AFB4A48416941F4C1
:101B800000114161416901F400110591416941F47D
:101B900000214161416901F400210591416941F44D
:101BA00080014161416901F480010591416941F47D
:101BB00000314161416901F400310591416941F40D
:101BC000802141614069384E00F480204FF68875CD
:101BD0000590002229463046FFF742F9334F002294
:101BE0000F213846FFF73CF9DFF8C48000220721B7
:101BF0004046FFF735F9372000902E480024CDE904
:101C0000010469463046FFF767F800950125CDE9E4
:101C10000154694630460394FFF75EF80F200090A8
:101C2000CDE90154694638460394FFF755F8CDE9EC
:101C300000544FF09047694638460294FFF74CF83D
:101C4000E02000900226CDE901640520CDE90340A3
:101C500069463846FFF740F807200090CDE9015467
:101C6000694640460394FFF737F84FF4C050CDE97A
:101C700000060320CDE902400E2004906946384654
:101C8000FFF72AF8C02000901220CDE901050420BA
:101C9000CDE9034069464046FFF71EF806B0BDE8AF
:101CA000F0810000001002400010004800080048C9
:101CB0000004004800001210FEE770470907090EF3
:101CC000002806DA00F00F0000F1E02080F8141D73
:101CD000704700F1E02080F80014704770477047AB
:101CE000FFF7CAB830B59FB028216846FEF76FFAF3
:101CF000142119A8FEF76BFA3C210AA8FEF767FA2F
:101D000001204FF4A02100248DE813000490022547
:101D10000004CDE907504FF4E01009906846FFF742
:101D20000FFB0F20CDE919056802CDE91B40022108
:101D300019A81D94FFF730FA80200A9040001390F4
:101D40000AA8FFF71DF91FB030BD00001448016854
:101D500041F4700101601348016841F00101016024
:101D60004168114A114041600168104A1140016008
:101D7000016821F480210160416821F4FE01416085
:101D8000C16A21F00F01C162016B094A1140016370
:101D9000002181600249C00380390860704700005B
:101DA00088ED00E0001002400CC07FF8FFFFF6FE57
:101DB000CCFC00FFFEE700000FB4084B10B504A9EF
:101DC00002AA039800F01CF8044602A9002000F0C3
:101DD000B8F9204610BC5DF814FB00004321000850
:101DE00002E008C8121F08C1002AFAD170477047E4
:101DF000002001E001C1121F002AFBD17047000042
:101E00002DE9FF4F8BB088460546002606E02528C1
:101E10000BD0DDE90D1290476D1C761C2878002848
:101E2000F5D10FB03046BDE8F08F0024A146A246A0
:101E30000122AE4900E0044315F8013F203B02FABD
:101E400003F00842F7D128782A2810D06FF02F022B
:101E50002878A0F13001092915D809EB890102EB96
:101E6000410144F0020400EB01096D1CF0E758F851
:101E7000041B5FEA010903D544F40054C9F10009C9
:101E800044F002046D1C28782E2817D115F8010F94
:101E900044F004042A280ED06FF02F022878A0F115
:101EA000300109290AD80AEB8A0102EB410100EB53
:101EB000010A6D1CF2E758F804AB6D1C28786C28F9
:101EC0000FD006DC4C2817D068280DD06A2814D112
:101ED00004E0742810D07A280FD10DE044F40014E7
:101EE0000AE044F4801401E044F44014697881422B
:101EF00002D104F580146D1C6D1C2878692865D00A
:101F000006DC00288DD0632827D0642806D15DE048
:101F10006E2808D073282AD0752877D0DDE90D12F5
:101F20009047761CE0E0C4F30250022809D0032851
:101F30000DD0D8F8001004280DD00E6008F1040868
:101F4000D2E0D8F80010F217C1E90062F6E7D8F83D
:101F500000100E80F2E70E70F0E718F8041B8DF801
:101F6000001000208DF80100EB46012003E058F836
:101F700004BB4FF0FF3061074FF0000701D40AE0C7
:101F80007F1C57450DDA8742FADB1BF80710002942
:101F9000F6D106E07F1C8742FCDB1BF80710002906
:101FA000F8D1DDE90D23A9EB07008146214600F0B9
:101FB000B1F83044C61904E0DDE90D121BF8010B3D
:101FC00090477F1EF8D22146484688E058F8040B17
:101FD000C4F302514FF00A0B032900D100B20429C7
:101FE00000D140B2002802DA40422D2102E0210552
:101FF00005D52B218DF82410012104E006E0E1072E
:1020000010D02021F6E708AF089113E058F8040B30
:10201000C4F302514FF00A0B032900D180B2042906
:1020200000D1C0B20021EEE75946FEF7DBF83031AF
:1020300007F8011D0028F7D1ADEB070000F1200BD8
:10204000600702D524F4803401E04FF0010ADA453C
:1020500002DDAAEB0B0000E00020824600EB0B0142
:1020600008980144A9EB01000A90E00306D4DDE9D9
:102070000D2321460A9800F04DF806444FF0000960
:1020800008E009A911F80900DDE90D12904709F1EE
:102090000109761C08998945F3DBE0030CD5DDE9DD
:1020A0000D2321460A9800F035F8064404E0DDE9E6
:1020B0000D1230209047761CBAF10001AAF1010AF6
:1020C000F5DC05E0DDE90D1217F8010B9047761CF1
:1020D000BBF10001ABF1010BF4DC0A982146DDE90C
:1020E0000D2300F005F806446D1C97E60928010051
:1020F0002DE9F041044600251E461746880404D405
:1021000005E039462020B0476D1C641EF9D52846ED
:10211000BDE8F0812DE9F041044600251E469046B9
:10212000C80301D5302700E02027880404D505E046
:1021300041463846B0476D1C641EF9D52846BDE8B7
:10214000F0810A68531C0B6010707047FEF79CFE0C
:10215000FFF7C8FDFFF70AFDFFF7D4FC1448FEF7B0
:1021600001FDFFF7F1FB0020FFF7C8FB0120FFF79F
:102170004BFC0020FFF750FC0E4C64210C48FEF78E
:1021800065FC18B90A48FEF70DFB20800848228834
:1021900009A15430FFF710FE00210846FFF74BFC61
:1021A00003485430FFF720FC6420FEF783FDE4E78A
:1021B00014000020000000204144432056616C20A0
:1021C0003D20253034640000020304050607080999
:1021D0000A0B0C0D0E0F1010010203040506070870
:1021E000090A0B0C0D0E0F1000000000000000008B
:1021F0000102030406070809182200080000002055
:1022000014000000E01D00082C220008140000202B
:102210006C040000F01D0008000000000100000038
:0C222000100000000000000000127A0016
:040000050800018965
:00000001FF
