:020000040800F2
:10000000F00400209D010008BB2400081D2000080A
:10001000B924000835080008152900080000000070
:10002000000000000000000000000000DF240008C5
:100030003708000800000000DD240008E124000863
:10004000B7010008B7010008B7010008B7010008B0
:10005000B7010008B7010008B7010008B7010008A0
:10006000B7010008B7010008B7010008B701000890
:10007000B7010008B7010008B7010008B701000880
:10008000B7010008B7010008B7010008B701000870
:10009000B7010008B7010008B7010008B701000860
:1000A000B7010008B7010008B7010008B701000850
:1000B000B7010008B7010008B7010008B701000840
:1000C000B7010008B7010008B7010008B701000830
:1000D000B7010008B7010008B7010008B701000820
:1000E000B7010008B7010008B7010008B701000810
:1000F000B7010008B7010008B7010008B701000800
:10010000000000000000000000000000B70100082F
:10011000B7010008B7010008B7010008B7010008DF
:10012000B7010008B7010008B7010008B7010008CF
:10013000B7010008B701000800000000000000003F
:10014000B7010008B7010008B7010008000000006F
:10015000000000000000000000000000000000009F
:100160000000000000000000B7010008B70100080F
:10017000B7010008000000000000000000000000BF
:1001800000000000B7010008DFF80CD000F0BCFA56
:10019000004800471D320008F00400200648804750
:1001A00006480047FEE7FEE7FEE7FEE7FEE7FEE75C
:1001B000FEE7FEE7FEE7FEE751250008890100089B
:1001C000202A04DB203A21FA02F00021704721FAAC
:1001D00002F3D040C2F12002914008431946704713
:1001E000D2B201E000F8012B491EFBD27047002279
:1001F000F6E710B513460A4604461946FFF7F0FF26
:10020000204610BD2DE9FE4F81EA030404F00044AE
:1002100021F0004100944FF0000B23F0004350EA1E
:1002200001045ED052EA03045BD0C3F30A54C1F365
:100230000A552C44A4F2F3340194A0FB0254C1F3F8
:10024000130141F48011C3F3130343F4801301FB42
:10025000024400FB034E840A970A44EA815447EAA9
:100260008357A4FB076802958D0A05FB07854FEAB3
:10027000932C04FB0C542705029D4FEA065847EACD
:100280001637B5EB08056EEB070C870E920E47EAA2
:10029000811742EA8312A7FB0201B6EB0B0164EB64
:1002A00000042B0D43EA0C335E1844EB1C50DA4675
:1002B0005146E7FB0201C5F313044FEA0B3343EA4F
:1002C00014534FEA0432019C43EA0603A4F10C04E0
:1002D0000294009CCDE900B400F09AF803B0BDE8A8
:1002E000F08F00200146F9E70EB540F2334102914C
:1002F0000021CDE900110A460B4600F089F803B051
:1003000000BD000030B5041E71F1000404DB4FF0A5
:100310000044404264EB0101141E73F1000405DB4C
:100320001C464FF00043524263EB04038B4208BF6C
:10033000824230BD30B5041E71F1000404DB4FF081
:100340000044404264EB0101141E73F1000405DB1C
:100350001C464FF00043524263EB0403994208BF2E
:10036000904230BD30B50B460146002020220124CA
:1003700009E021FA02F59D4205D303FA02F5491B73
:1003800004FA02F52844151EA2F10102F1DC30BD89
:100390002DE9F05F0546002092469B4688460646BA
:1003A000814640241BE02846414647462246FFF747
:1003B00007FF53465A46C01A914110D311461846BA
:1003C000224600F0B3F92D1A67EB01084F4622468A
:1003D0000120002100F0AAF917EB00094E41201E70
:1003E000A4F10104DFDC484631462A464346BDE815
:1003F000F09F10B5141E73F1000408DA401C41F19F
:10040000000192185B411A4301D120F0010010BD98
:100410002DE9F04D92469B4611B1B1FA81F202E00E
:10042000B0FA80F22032904600F080F904460F4680
:1004300040EA0A0041EA0B0153465A46084313D0EA
:10044000114653EA010019D0C8F140025046FFF7A7
:10045000B7FE05460E4650465946424600F066F93C
:10046000084305D0012004E020463946BDE8F08D60
:100470000020054346EAE0762C4337430A9863059B
:10048000E40AA0EB08000022FD0A44EA47540A30BF
:1004900002D500200146E9E7010510196941DDE9AF
:1004A000084500196941BDE8F04DA2E72DE9FE4F6E
:1004B000804681EA0300C00F0C46009021F0004105
:1004C00023F00045B8EB0200A94105D24046214681
:1004D00090461C460B46024623F00040104347D08E
:1004E000270DC7F30A00C3F30A510290401A019086
:1004F00040286BDAC3F3130040F4801B0098924647
:1005000020B10023D2EB030A63EB0B0B0198594691
:10051000C0F14002504600F009F906460D4650462B
:100520005946019A00F011F910EB080061410024CE
:1005300087EA115284EAE7731A4340D0009A62B303
:10054000019A012A4FEA075215DC001B61EB0201F8
:100550004FF0004202EA0752CDE90042001C41F58B
:10056000801132462B46FFF753FF03B0BDE8F08FF2
:1005700040462146F9E7001B61EB0201001C41F5F2
:10058000801300185B412018A2F5001747EB030108
:1005900040EAD570B6196D4111E06D084FEA360694
:1005A00045EAC0754FEA0752001B61EB0201001CCF
:1005B00041F5801149084FEA300000195141324697
:1005C0002B4603B0BDE8F04FFFF713BF00980122A0
:1005D00040000023D0EB020263EBE0730098214659
:1005E0004FEAE074B8EB000061EB0401E9E783F047
:1005F00000435BE781F0004158E72DE9F04D81EAC7
:10060000030404F0004B21F0004514464FF0000AAB
:1006100023F0004150EA050220D054EA01021DD027
:10062000C5F30A570246C5F31303C1F31300C1F320
:100630000A5640F4801543F48013A7EB0608101BFC
:10064000D64608F2FD3873EB050002D308F1010825
:1006500001E092185B41B8F1000F03DA0020014677
:10066000BDE8F08D00204FF48011064684460EE070
:10067000171B73EB050705D3121B63EB050306433A
:100680004CEA010C49084FEA300092185B4150EAED
:100690000107EDD152EA030012D082EA040083EA96
:1006A0000501084305D0101BAB4106D201220023EF
:1006B00006E000224FF0004302E06FF00102531009
:1006C0001AEB06004CEB085110EB0A0041EB0B0152
:1006D000BDE8F04DFFF78DBEC1F30A52C1F313011F
:1006E00040F2FF3341F480119A4202DA00200146C1
:1006F000704740F233439A42A2F2334202DC524244
:10070000FFF75EBD00F012B8064C074D06E0E0684A
:1007100040F0010394E8070098471034AC42F6D348
:10072000FFF736FD0C3400082C340008202A04DBC7
:10073000203A00FA02F1002070479140C2F12003F4
:1007400020FA03F3194390407047202A06DBCB17A9
:10075000203A41FA02F043EAE07306E041FA02F37C
:10076000D040C2F120029140084319467047000072
:1007700070B504460068816801F00301012926D1A3
:100780000168C90723D0816801F00D01012910D14A
:10079000816841F00201816021680320086000F057
:1007A00003FE05460FE000BF00F0FEFD401B0228DF
:1007B00009D9606C40F010006064A06C40F001004A
:1007C000A064012070BD20688068C007ECD10020C3
:1007D00070BD000070B504460068816801F0030137
:1007E000012902D10168C90720D18168104A11424C
:1007F0000DD1816841F00101816000F0D5FD054611
:100800000FE000BF00F0D0FD401B022809D9606C4A
:1008100040F010006064A06C40F00100A064012072
:1008200070BD20680068C043C007EBD1002070BDD8
:100830003F000080FEE77047F0B5002302684FF0EC
:10084000A04C3D4C95B01F46624501D100940DE08F
:10085000A24202D1CDF800C008E0384D384EAA427D
:1008600001D1009602E0B24214D1009590F84050B8
:10087000012D12D0012580F8405095686D0752D4A3
:10088000009DAD686D074ED4624501D0A24206D1ED
:100890002C4A05E0012015B0F0BD0220FBE72A4AF2
:1008A0000D6840F61F741DB39568466B25F46045CE
:1008B00045EA46354E68354395600568AE6806F0F2
:1008C0000306012E02D12D68ED0731D1009DAD68E0
:1008D00005F00305012D03D1009D2D68ED0727D1FB
:1008E0000D6889680D439168A1430D4395601FE031
:1008F000916821F46041916001688D6805F00305FD
:10090000012D02D10968C90712D10099896801F047
:100910000301012903D100990968C90708D1916829
:10092000A143916004E0416C41F020014164012346
:1009300080F840701846AEE70001005000040050F7
:10094000000500500003005000070050F0B595B0BE
:100950000024009490F840202546012A19D0012750
:1009600080F8407003689A6852077CD44A681F2652
:10097000052A11D2D3F830C002EB42025200964051
:100980002CEA060C0E6896404CEA060CC3F830C000
:1009900035E0022015B0F0BD0A2A0FD2D3F834C0DA
:1009A000521F02EB4202520096402CEA060C0E68DF
:1009B00096404CEA060CC3F834C020E00F2A0FD250
:1009C000D3F838C00A3A02EB4202520096402CEAB1
:1009D000060C0E6896404CEA060CC3F838C00EE0D0
:1009E000D3F83CC00F3A02EB4202520096402CEA88
:1009F000060C0E6896404CEA060CC3F83CC0026830
:100A0000936813F00C0F4FF0070374D1D1F800E096
:100A1000BEF10A0F10D39669AEF10A0E0EEB4E0C22
:100A200003FA0CFE26EA0E06D1F808E00EFA0CFED8
:100A300046EA0E0696610FE0D2F814C00EEB4E06A1
:100A400003FA06FE2CEA0E0CD1F808E00EFA06FEB8
:100A50004CEA0E0CC2F814C002684E69D2F80CC001
:100A6000CCF3C10C00E0FDE04FEA4C0C06FA0CF6AA
:100A7000D1F810E0DFF848C2BEF1010F42D0BEF15C
:100A8000020F4DD0BEF1030F58D0BEF1040F63D05A
:100A9000166E91F800C006F0F846B6EB8C6F03D1E5
:100AA000166E26F0004616660268566E91F800C073
:100AB00006F0F846B6EB8C6F03D1566E26F0004672
:100AC00056660268966E91F800C006F0F846B6EBDE
:100AD0008C6F03D1966E26F0004696660268D66E3D
:100AE00091F800C006F0F846B6EB8C6F03D1D66ED5
:100AF00026F00046D6660268966806F00306012EC8
:100B00003AD136E0D2F860E00EEA0C0E91F800C05F
:100B100046EA8C664EEA060E4EF000461666EAE796
:100B2000D2F864E00EEA0C0E91F800C046EA8C663A
:100B30004EEA060E4EF000465666DCE7D2F868E054
:100B40000EEA0C0E91F800C046EA8C664EEA060EDC
:100B50004EF000469666CEE7D2F86CE00EEA0C0E38
:100B600091F800C046EA8C664EEA060E4EF000464A
:100B7000C0E71668F6077AD1CE68012E06D052F883
:100B8000B03F0E78B740BB43136021E052F8B06F1E
:100B900091F800C007FA0CF73E4316600A680A2A6B
:100BA0000BD30668B769093A02EB420293409F43B0
:100BB0008B6893401F43B7610AE007687E69521C47
:100BC00002EB420293409E438B6893401E437E613A
:100BD00003684FF0A0473B4EBB4201D0B34201D166
:100BE000394A00E0394A0968102904D0112907D090
:100BF00012290AD03BE0D2F808C04FEA0C2C08E0DA
:100C0000D2F808C04FEACC1C03E0D2F808C04FEA83
:100C10004C2CBCF1000F2ADBBB420DD0B34201D1FA
:100C200000970CE02A4EDFF8ACC0B34202D1CDF8F9
:100C300000C004E0634501D1009600E000959E6885
:100C400006F00306012E02D11E68F6070AD1009EA7
:100C50008EB1B66806F00306012E0CD1009E3668F0
:100C6000F60708D0416C41F020014164012480F86E
:100C7000405020468EE6102908D011291AD012299A
:100C8000F5D1916841F480019160F0E7BB42EED16B
:100C9000916841F4000191600F49104A0968B1FB65
:100CA000F2F101EB8101490000E0491E00910029A9
:100CB000FBD1DCE7BB42DAD1916841F08071E3E718
:100CC00000F0FF83000100500003005000070050B7
:100CD00000040050000500501000002040420F00AA
:100CE0000068006C70470000F0B54FF0000695B04A
:100CF000040037463546009605D0606CC00648D4DF
:100D0000606C18B133E0012015B0F0BDA564256515
:100D1000E56484F84050204600F00AF920688068B5
:100D2000C00024D42046FFF723FD0646606CC006B1
:100D30001DD4E6B9606C20F4885040F00200606475
:100D40002068816821F0405181602068816841F00D
:100D5000805181606D486E490068B0FBF1F000EB96
:100D60008000400000E0401E00900028FBD1206879
:100D70008168C90002D5806880000AD5606C20F0C7
:100D8000020040F010006064A06C40F00100A0641C
:100D90000126606CC00675D4002E73D1206881686E
:100DA00049076FD4616C21F4807141F002016164E4
:100DB0004FF0A04E574B704501D0984201D1564A92
:100DC00000E0564ADFF858C15649704501D10093FA
:100DD0000EE0984202D1CDF800E009E0884202D14D
:100DE000CDF800C004E0604501D1009100E000951D
:100DF000836803F00303012B02D10068C00710D100
:100E0000009840B1806800F00300012803D10098E9
:100E10000068C00705D19068636820F4403018432B
:100E20009060D4E902201043A26B012A02D04FF453
:100E3000805300E00023E26943EA42331843636AC7
:100E40003843012B0AD1F2B1626C22F0020242F067
:100E500020026264A26C42F00102A264E26A012AEA
:100E600021D023688B4201D0634518D14FF43077ED
:100E70004FF4E071BA4213D04FF480739A420AD112
:100E800039460DE038E0228D274B03EB4242024306
:100E900042F48030E2E78A4201D1194600E011466F
:100EA0000143206B084321688A6812F00C0F0AD1B5
:100EB000CA6844F202039A43CA60A169626B89035B
:100EC00041EA420108432268D168184B19400143A6
:100ED000D160206901282068016B21F00F0102D147
:100EE000226A521E11430163A564606C20F0020067
:100EF00040F00100606406E0606C20F0020040F009
:100F00001000606401263046FEE60000100000205C
:100F100040420F0000010050000300500007005045
:100F200000050050000400500000FEFF07C0F0FF65
:100F300010B586B0044614216846FFF758F92068BA
:100F4000B0F1A04F1AD10E48416941F08051416182
:100F5000416901F080510591416941F4800141618D
:100F60004069694600F4800005901020009003203D
:100F7000019000200290034800F04CF906B010BD2B
:100F800000100240001400482DE9F0470D460446C9
:100F900041693F4A00684FF000084FF0A04308291C
:100FA00005D0984201D0904203D13A4902E0082688
:100FB00014E039498E68F6060CD0896801F4404186
:100FC00059B1606C40F02000606484F840800120DA
:100FD000BDE8F087C168C907F2E70C26984201D046
:100FE000904202D1D3F8081302E02B490831096876
:100FF00011F01F0F04D0984202D02849884201D135
:10100000C76803E0904200D11946CF6800F0CCF9E0
:10101000814610E0681C0ED02DB100F0C5F9A0EBA0
:101020000900A84207D9606C40F00400606484F8AD
:1010300040800320CCE7206800683042EAD0606C32
:1010400040F4007060642068C16811F4406F1AD1E8
:10105000B90418D40168090715D581684907616C7E
:101060000AD421F480716164616CC9040BD4616C91
:1010700041F00101616406E041F020016164A16C6E
:1010800041F00101A164790400D4066000209FE7CB
:101090000001005000030050000700500004005001
:1010A0002DE9F041044600688068400770D494F848
:1010B000400001280CD0012084F840002046FFF7B2
:1010C00089FB03004FF0000605D084F8406086E0FD
:1010D0000220BDE8F081606C40F60161884340F475
:1010E0008070606420684FF0A0413E4A3E4D8842C7
:1010F00001D0904202D1D1F8087300E02F6817F0B8
:101100001F0F3A4F03D0884201D0B8420BD1D4F818
:1011100044C02CF4801CC4F844C0D0F80CC05FEA72
:101120008C1C14D41BE0D4F844C04CF4801CC4F8CC
:1011300044C0904202D1D1F80CC005E0DFF8ACC049
:101140000CF10C0CDCF800C01CF0007F07D0D4F8C8
:1011500044C02CF4005C4CF4805CC4F844C0D4F867
:1011600044C05FEACC4C06D5D4F848C02CF0060C3D
:10117000C4F848C000E0A66484F840601C260660FD
:101180002068884201D0904203D1D1F8084301E0A1
:1011900024E02C6814F01F0F1BD0884201D090422D
:1011A00002D1D1F8084300E02C6804F01F04052C9C
:1011B0000FD0884201D0904202D1D1F8082300E03C
:1011C0002A6802F01F02092A03D0884201D0B842DF
:1011D00005D1816841F00401816000E002231846D6
:1011E00077E700000001005008070050000400509D
:1011F00070B5044600F0D8F80546601C02D00448DB
:101200000078044400F0D0F8401BA042FAD370BD2F
:10121000040000202DE9F84FDFF864B100234FF0FF
:10122000010C4FF0030A4FF00F090BF1040EA0E080
:101230000CFA03F6324072D04C68022C01D0122C0A
:101240000ED1DC0800EB8408D8F820405D07EF0ED3
:1012500009FA07F5AC430D69BD402543C8F8205095
:1012600007685D0091F804800AFA05F408F00308A5
:10127000A74308FA05F848EA0708C0F800804F6855
:10128000012F05D0022F03D0112F01D0122F11D121
:101290008768D1F80C80A74308FA05F848EA0708E0
:1012A000C0F808804768B7430E79C6F300169E4021
:1012B0003E434660C668A6438C68AC403443C46075
:1012C0004C68E40054D52F4CA56945F00105A56193
:1012D000A46923F0030504F0010400942A4C2E199C
:1012E000B4689D072F0F09FA07F5AC43B0F1904F92
:1012F00004D0264DA84203D1012512E0002510E0BC
:10130000234DA84201D102250BE0224DA84201D174
:10131000032506E0204DA84202D1042501E027E084
:101320000525BD402543B560DBF800405D464E68AD
:101330009443F60300D514432C60DEF80040754654
:101340004E689443B60300D514432C600C4D083509
:101350002C684E689443F60200D514432C60084D67
:101360000C352C684E689443B60200D514432C60AB
:101370005B1C0A6832FA03F47FF45AAFBDE8F88FB9
:101380000004014000100240000001400004004839
:1013900000080048000C0048001000480AB18161B4
:1013A0007047816270470000014880687047000004
:1013B000040000200248816802781144816070476F
:1013C00004000020074810B5016841F010010160D9
:1013D000032000F061F8002000F006F800F024F887
:1013E000002010BD0020024070B50D4D04464FF4A2
:1013F0007A712878B1FBF0F00A490968B1FBF0F086
:1014000000F034FD48B9102C07D200222146501EAE
:1014100000F022F800206C6070BD012070BD00005B
:1014200004000020100000200A4882B0816941F0C9
:1014300001018161816901F001010091C16941F0FF
:101440008051C161C06900F080500090072002B057
:1014500000F022B800100240F0B40E4B1B680C469E
:10146000C3F30223C3F10705042D00D90425191D78
:10147000072901D2002300E0DB1E012606FA05F150
:10148000491E214099409E40761E16403143F0BCD3
:1014900001F014B80CED00E0064900F007020868FE
:1014A0004FF6FF03184040EA0220034A1043086049
:1014B000704700000CED00E00000FA052DE9F84F40
:1014C00004460068804DC0036FD5E8690026C0005F
:1014D00008D4E86940F08050E861E869012600F02E
:1014E0008050009079480168C90512D4016880468F
:1014F00041F480710160FFF757FF074605E000BF28
:10150000FFF752FFC01B642835D8D8F80000C0058B
:10151000F6D5286A10F4407053D0A18801F44071C8
:1015200081424ED0286A4FF4803191FAA1F2B2FA8A
:1015300082F29700664A4FF00108174420F4407089
:10154000C7F8008491FAA1F1B1FA81F102EB8101AF
:101550000023C1F800342862C00732D0FFF724FF0F
:10156000074641F2883A4FF0020907E0FFF71CFFF7
:10157000C11B514502D90320BDE8F88F99FAA9F1A2
:10158000B1FA81F141F040014846B8EB511F01D159
:1015900029680CE090FAA0F1B1FA81F141F0400124
:1015A000B0EB511F02D1296A01E015E0696A99FA8E
:1015B000A9F0B0FA80F000F01F0008FA00F2114222
:1015C000D4D0286A616820F44070084328621EB1B4
:1015D000E86920F08050E8612078C00705D0286BCA
:1015E000A16820F00300084328632078800705D510
:1015F000286BE16820F440300843286320784007D6
:1016000005D5286B216920F4402008432863207801
:10161000800605D5286BE16920F010000843286397
:101620002068800305D56868A16B20F4800008431A
:1016300068602078400605D5286B216A20F02000DC
:10164000084328632078000705D5286B616920F4DA
:101650004010084328632078C00605D5286BA1698F
:1016600020F44000084328632088800505D5686879
:10167000E16A20F40000084368602078000605D580
:10168000E86A616A20F4F8700843E8622088C005BF
:1016900005D5E86AA16A20F478500843E8622088FA
:1016A000C00405D5286B216B20F4807008432863A3
:1016B0002088800405D5286B616B20F400700843F6
:1016C0002863002058E7000000100240007000402E
:1016D000000042422DE9F0470F46050069D04A4E0E
:1016E000306800F00700B84209D2306820F00700E7
:1016F00038433060306800F00700B84259D128788C
:10170000424C800705D56068A96820F0F0000843C6
:1017100060602878C0073DD06968012001290DD09C
:10172000022923D05FF0020393FAA3F2B2FA82F205
:1017300042F02002520904D0226803E04FF4003343
:10174000F2E7626A93FAA3F3B3FA83F303F01F0399
:10175000984002422DD0606820F00300084360608A
:10176000FFF722FE804641F288390CE04FF000730B
:10177000DAE700BFFFF718FEA0EB0801494502D9E0
:101780000320BDE8F0876068696800F00C00B0EBEA
:10179000810FEFD1306800F00700B8420BD93068F4
:1017A00020F0070038433060306800F00700B8428E
:1017B00001D00120E5E72878400705D56068E96891
:1017C00020F4E060084360602878000706D5606870
:1017D000296920F4605040EAC100606000F04CF8D4
:1017E0006168F02292FAA2F201F0F001B2FA82F2FC
:1017F000D140074A515CC840064908600020FFF705
:10180000F3FD0020BDE70000002002400010024070
:10181000F4330008100000200848094900684968AE
:101820004FF4E06292FAA2F201F4E061B2FA82F2BD
:10183000D140044A515CC8407047000010000020AD
:10184000001002400434000808480949006849684B
:101850004FF4605292FAA2F201F46051B2FA82F2AD
:10186000D140044A515CC84070470000100000207D
:101870000010024004340008144B10B55A68144894
:1018800002F00C0104291DD008291BD14FF470145B
:1018900094FAA4F402F47011B4FA84F4E1400D4C0B
:1018A000DB6A615C0F2494FAA4F403F00F03B4FA2A
:1018B00084F4E340074C1034D203E35C03D5B0FB5F
:1018C000F3F0484310BD0448484310BD00100240E7
:1018D00000127A00D433000800093D002DE9F84FCA
:1018E000040071D02078FB4DC0074FF0010625D0D1
:1018F00068687704C0F38100012807D06868C0F3E6
:10190000810002281BD16868C00318D597FAA7F098
:10191000B0FA80F040F02000400901D0286800E0D3
:10192000686A97FAA7F1B1FA81F101F01F0106FA8E
:1019300001F1084265D060680028D2D061E060689B
:10194000B0F5803F0BD010B1B0F5A02F17D02868AC
:1019500020F480302860286820F4802002E0286885
:1019600040F480302860E86AA16820F00F00084346
:10197000E862606820B3FFF717FD80460AE0286838
:1019800040F480202860EAE7FFF70EFDA0EB080096
:10199000642872D897FAA7F0B0FA80F040F02000DF
:1019A000400901D0286800E0686A97FAA7F1B1FA07
:1019B00081F101F01F0106FA01F10842E4D020E0B4
:1019C000FFF7F2FC804607E0C7E000BFFFF7ECFC42
:1019D000A0EB08006428DCD897FAA7F0B0FA80F0F2
:1019E00040F02000400901D0286800E0686A97FABA
:1019F000A7F1B1FA81F101F01F0106FA01F10842E5
:101A0000E4D12078DFF8D08280074FF0000A4FF051
:101A1000020759D568684FF0F80B10F00C0F07D08B
:101A20006868C0F3810002281BD16868C00318D41D
:101A300097FAA7F0B0FA80F040F02000400901D0FA
:101A4000286800E0686A97FAA7F1B1FA81F101F01D
:101A50001F0106FA01F108422BD0206901287CD130
:101A600027E0206988B396FAA6F0B0FA80F048F82B
:101A70002060FFF799FC814606E055E1FFF794FCF2
:101A8000A0EB0900022884D897FAA7F0B0FA80F0FA
:101A900040F02000400901D0286800E0686A97FA09
:101AA000A7F1B1FA81F101F01F0106FA01F1084234
:101AB000E4D028689BFAABF26169B2FA82F220F0B6
:101AC000F80091400843286025E0FFE796FAA6F168
:101AD000B1FA81F148F821A0FFF766FC814605E0E4
:101AE000FFF762FCA0EB09000228CCD897FAA7F018
:101AF000B0FA80F040F02000400901D0286800E0F2
:101B0000686A97FAA7F1B1FA81F101F01F0106FAAC
:101B100001F10842E4D1207800076AD5A069A0B39A
:101B200096FAA6F0B0FA80F008EB8000C0F8806466
:101B3000FFF73AFC814605E0FFF736FCA0EB090011
:101B40000228A0D897FAA7F0B0FA80F040F0600021
:101B5000B6EB501F02D128680CE077E197FAA7F0A6
:101B6000B0FA80F040F06000B7EB501F01D1286A56
:101B700000E0686A97FAA7F1B1FA81F101F01F015C
:101B800006FA01F21042D7D033E0FFE796FAA6F04A
:101B9000B0FA80F008EB8000C0F880A4FFF704FCE6
:101BA000814605E0FFF700FCA0EB090002289CD865
:101BB00097FAA7F0B0FA80F040F06000B6EB501F43
:101BC00001D128680BE097FAA7F0B0FA80F040F056
:101BD0006000B7EB501F01D1286A00E0686A97FAED
:101BE000A7F1B1FA81F101F01F0106FA01F21042EA
:101BF000D8D12078400774D5E8694FF00009C000BB
:101C000009D4E86940F08050E861E8694FF00109C3
:101C100000F08050009031480168C90512D4016875
:101C200041F480710160FFF7BFFB834606E000BF0F
:101C3000FFF7BAFBA0EB0B00642875D827480068B3
:101C4000C005F5D5E06801280AD008B1052811D0F3
:101C5000286A20F001002862286A20F0040002E0CF
:101C6000286A40F001002862E068C8B3FFF79CFBD7
:101C700083460DE0286A40F004002862F0E700BFC8
:101C8000FFF792FBA0EB0B0141F2883081424BD869
:101C900097FAA7F0B0FA80F040F04000B6EB501F82
:101CA00001D128680BE097FAA7F0B0FA80F040F075
:101CB0004000B7EB501F01D1286A00E0686A97FA2C
:101CC000A7F1B1FA81F101F01F0106FA01F2104209
:101CD000D6D035E0001002400000424200700040C3
:101CE00000E034E0FFF760FB834607E0FFF75CFBB2
:101CF000A0EB0B0141F28830814215D897FAA7F08A
:101D0000B0FA80F040F04000B6EB501F01D12868D7
:101D10000CE097FAA7F0B0FA80F040F04000B7EB83
:101D2000501F02D1286A01E083E0686A97FAA7F1A0
:101D3000B1FA81F101F01F0106FA01F21042D5D18A
:101D4000B9F1000F03D0E86920F08050E861E06944
:101D500080B36968C1F38101022977D04FF08071A7
:101D60004F00022809D091FAA1F0B0FA80F048F8AB
:101D700020A0FFF719FB04465EE050468A4691FA20
:101D8000A1F1B1FA81F1C14648F82100FFF70CFB3F
:101D9000804605E0FFF708FBA0EB0800022848D8C2
:101DA00097FAA7F0B0FA80F040F02000400902D086
:101DB000286801E056E0686A97FAA7F1B1FA81F164
:101DC00001F01F0106FA01F10842E3D1D4E908103D
:101DD0000843696821F47411084368609AFAAAF00C
:101DE000B0FA80F049F82060FFF7DEFA044604E01C
:101DF000FFF7DAFA001B02281BD897FAA7F0B0FA0F
:101E000080F040F02000400901D0286800E0686AB6
:101E100097FAA7F1B1FA81F101F01F0106FA01F179
:101E20000842E5D01EE000BFFFF7BEFA001B022803
:101E300002D90320BDE8F88F97FAA7F0B0FA80F036
:101E400040F02000400902D0286801E00CE0686AF8
:101E500097FAA7F1B1FA81F101F01F0106FA01F139
:101E60000842E1D10020E5E70120E3E710B5401E7C
:101E7000B0F1807F01D3012010BD4FF0E0246061FC
:101E80000F21601700F01AFB0020A06107202061DD
:101E9000002010BD10B5040003D094F8690010B103
:101EA00007E0012010BD002084F86800204600F003
:101EB00027F8242084F869002068016821F00101D6
:101EC0000160204600F00AFC0128EBD0606A10B1E6
:101ED000204600F071FB2068416821F49041416088
:101EE0002068816821F02A0181602068016841F042
:101EF000010101602046BDE8104000F0C1BB0000B8
:101F000010B586B0044614216846FEF770F91349EF
:101F1000206888421FD11248C16941F48021C16103
:101F2000C16901F480210591416941F48021416139
:101F30004069694600F4802005904FF440600090AD
:101F400002200190002002900320039007200490BB
:101F50000448FFF75FF906B010BD000000480040DC
:101F600000100240000400482DE9F843044690F8B0
:101F700069001F4616460D4620284DD1CDB1C6B189
:101F800094F86800012847D0012084F868004FF0D9
:101F90000008C4F86C80212084F869005034FFF7F1
:101FA00003FA24F8026B814624F852694FF48056F4
:101FB00018E00120BDE8F883B4F85200401EA4F8F0
:101FC00052004B46002280212046009700F070FC12
:101FD000A0B9A068B04201D1206988B115F8010B01
:101FE00021680885B4F852000028E5D14B4600224C
:101FF00040212046009700F05BFC30B10320D9E778
:1020000035F8020BC0F30800EAE7202084F86900E5
:1020100084F868800020CDE70220CBE7FEE70000CF
:1020200010B501280BD002280CD0002813D10120B4
:1020300000F0A6F8BDE810400220FFF7D9B8002153
:10204000084601E00021012000F087F8BDE81040BB
:1020500001A000F05BB810BD20202020202020200F
:1020600020202020202020200000000010B5254C3A
:10207000002201212046FFF791F90022022120468B
:10208000FFF78CF9002204212046FFF787F901228F
:1020900080211D48FFF782F90F20FFF7A9F83020B3
:1020A00000F096F80520FFF7A3F8302000F090F834
:1020B0000120FFF79DF8302000F08AF80120FFF79B
:1020C00097F8202000F084F80120FFF791F82820ED
:1020D00000F056F80120FFF78BF80F2000F050F8C1
:1020E0000120FFF785F8012000F04AF80220FFF7F1
:1020F0007FF8062000F044F8BDE810400120FFF70B
:1021000077B80000000400480010004870B505468C
:10211000002406E000F048F80120FFF769F8641C8D
:10212000E4B2285D0028F5D170BD00000246802190
:102130000148FFF733B900000010004810B501282E
:1021400001D010B104E00F2000E00C2000F018F8DE
:10215000BDE810400120FFF74BB810B510B10128C1
:1021600003D008E041F0800003E04031C8B240F005
:10217000800000F005F8BDE810400120FFF738B8F6
:1021800010B50446002201210648FFF707F904F0C4
:10219000F00000F01DF82007BDE81040000E00F030
:1021A00017B800000004004810B50446012211468B
:1021B0000648FFF7F3F804F0F00000F009F82007F4
:1021C000BDE81040000E00F003B800000004004815
:1021D00070B5134D044600F0800208212846FFF731
:1021E000DDF804F0400204212846FFF7D7F804F098
:1021F000200202212846FFF7D1F804F01002012145
:102200002846FFF7CBF8074C012204212046FFF7B0
:10221000C5F82046BDE8704000220421FFF7BEB893
:10222000000800480004004870B5040041D00022B6
:10223000284D4FF480712846FFF7B0F8012C3AD0B2
:102240005FF000024FF400712846FFF7A7F8022C58
:1022500033D000224FF480612846FFF79FF8032C0B
:102260002DD000224FF400612846FFF797F8042C88
:1022700027D000224FF480512846FFF78FF8052C15
:1022800021D000224FF400512846FFF787F8062C92
:102290001BD000224FF480412846FFF77FF8072C1F
:1022A00015D000222846BDE870404FF40041FFF7EA
:1022B00075B80122BCE70122C4E70122CAE7012266
:1022C000D0E70122D6E70122DCE70122E2E7012282
:1022D000E8E700000010004830B589B000240694FB
:1022E0000794182168460894FDF781FF13484FF0C2
:1022F000A0410125C0E9001484600461C561446205
:10230000C0E90B54C460056204214463C0E90514AC
:102310008463FEF7E9FC06A908480694FEF78CFAE8
:10232000052000900394CDE90154049469460348C4
:102330000594FEF70BFB09B030BD0000140000202F
:102340002DE9F04186B014216846FDF750FF4A4858
:10235000416941F400114161416901F400110591A5
:10236000416941F400214161416901F40021059175
:10237000416941F480014161416901F480010591A5
:10238000416941F400314161416901F40031059135
:10239000416941F4802141614069384E00F4802058
:1023A0004FF688750590002229463046FEF7F6FF65
:1023B000334F00220F213846FEF7F0FFDFF8C480CC
:1023C000002207214046FEF7E9FF372000902E4803
:1023D0000024CDE9010469463046FEF71BFF009555
:1023E0000125CDE90154694630460394FEF712FFFA
:1023F0000F200090CDE90154694638460394FEF75A
:1024000009FFCDE900544FF09047694638460294E1
:10241000FEF700FFE02000900226CDE901640520D0
:10242000CDE9034069463846FEF7F4FE07200090E8
:10243000CDE90154694640460394FEF7EBFE4FF4A4
:10244000C050CDE900060320CDE902400E200490E3
:1024500069463846FEF7DEFEC02000901220CDE926
:1024600001050420CDE9034069464046FEF7D2FE4F
:1024700006B0BDE8F08100000010024000100048E6
:1024800000080048000400480000121009480849EC
:1024900001604FF4E1314160002181600C22C16094
:1024A000C0E904128161C16101624162FFF7F2BCBF
:1024B0000048004068000020FEE770470907090E49
:1024C000002806DA00F00F0000F1E02080F8141D6B
:1024D000704700F1E02080F80014704770477047A3
:1024E000FEF768BF30B59FB028210FA8FDF77FFE2B
:1024F000142119A8FDF77BFE3C216846FDF777FE05
:102500000FAA01204FF4A021002482E813001390A9
:1025100002250004CDE916504FF4E01018900FA8E2
:10252000FFF7DCF90F20CDE919056802CDE91B4062
:10253000022119A81D94FFF7CDF88420009004947F
:10254000E80109906846FEF7B9FF1FB030BD0000F2
:102550001448016841F4700101601348016841F0BA
:10256000010101604168114A114041600168104A4F
:1025700011400160016821F480210160416821F46B
:10258000FE014160C16A21F00F01C162016B094A7D
:1025900011400163002181600249C0038039086055
:1025A0007047000088ED00E0001002400CC07FF88A
:1025B000FFFFF6FECCFC00FF90F82410C90706D000
:1025C00001684A68836A22F400321A434A6090F82C
:1025D0002410890706D501684A68C36A22F480324C
:1025E0001A434A6090F82410490706D501684A68E2
:1025F000036B22F480221A434A6090F824100907E2
:1026000006D501684A68436B22F400421A434A60C7
:1026100090F82410C90606D501688A68836B22F4F5
:1026200080521A438A6090F82410890606D5016802
:102630008A68C36B22F400521A438A6090F824100F
:10264000490611D501684A68036C22F480121A43C6
:102650004A60016CB1F5801F06D101684A68436C7D
:1026600022F4C0021A434A6090F82410090606D5E5
:1026700001684A68806C22F4002202434A60704775
:10268000F8B500260446C666FEF78EFE05462068AD
:1026900000686FF07E47000708D52B4600224FF4F4
:1026A00000112046009700F003F960B92068006827
:1026B00040070AD52B4600224FF4800120460097A0
:1026C00000F0F6F808B10320F8BD202084F8690076
:1026D00084F86A0084F868600020F8BD2DE9F041B4
:1026E000044610202369A268E6691A436369002141
:1026F00033431A4323680D461E6849F20C67BE43F4
:1027000016431E6022685368E66823F4405333433F
:102710005360236AA2691A4323689E6826F43066D0
:1027200016439E605A4F22685A4B0603BA420CD198
:102730001B6B13F0030306D0012B4DD0022B4DD0A1
:10274000032B4CD146E0012049E0534FBA420CD153
:102750001B6B13F440333BD0B3423DD0B3F5003F85
:102760003CD0B3F5403F3AD134E04C4FBA420DD1A2
:102770001B6B13F440232BD0B3F5802F2CD0B3F573
:10278000002F2BD0B3F5402F29D123E0444FBA427C
:102790000DD11B6B13F440131AD0B3F5801F1BD05F
:1027A000B3F5001F1AD0B3F5401F18D112E03D4F0A
:1027B000BA4214D11B6B13F4400309D0B3F5800F58
:1027C0000AD0B3F5000F09D0B3F5400F07D101E0EF
:1027D000002004E0022002E0042000E00820E76975
:1027E0004FF400439F4226D109281DD2DFE800F0B4
:1027F0000508121C151C1C1C1800FFF70DF801E041
:10280000FFF722F84100606801EB5001B1FBF0F0E6
:1028100081B20AE024496068F6E7FFF72DF8F1E796
:10282000606806EB5001F1E7012521F00F00C1F3CC
:10283000420108431CE0092825D2DFE800F0050822
:102840000B24102424241C00FEF7E6FF09E0FEF709
:10285000FBFF06E01549606801EB50010EE0FFF751
:102860000BF80146606801EB5001B1FBF0F080B25B
:102870002168C86008E0606803EB5001B1FBF0F02C
:1028800080B2D06000E001252846BDE8F08100005C
:102890000038014000100240004400400048004061
:1028A000004C0040005000400024F40000127A0068
:1028B0002DE9F041984617460E460446069D1DE058
:1028C000681C1BD02DB1FEF76FFDA0EB0800A842DD
:1028D00014D92068016821F4D071016020688168F2
:1028E00021F001018160202084F8690084F86A00E9
:1028F000002084F868000320BDE8F0812068C069EA
:1029000036EA000004D00020B842D9D00020F3E716
:102910000120F9E7FEE700000FB4084B10B504A949
:1029200002AA039800F0DEF8044602A9002000F095
:1029300070FC204610BC5DF814FB00001332000848
:1029400002E008C8121F08C1002AFAD17047704778
:10295000002001E001C1121F002AFBD170470000D6
:102960002DE9FF5F82B00021DDE90430020DDDF8C2
:1029700040B0034318D044F61050A2F2FF32424355
:102980001514119801281FD0A5EB0B00401C5FEA1D
:10299000000A4FF000064E4FDFF83891B04650461F
:1029A00015D5CAF1000413E0119801244AA30128A7
:1029B00001D16FEA0B010298119AC0E90031C0E918
:1029C000024206B0BDE8F09FCBF10000DFE704460D
:1029D0000021404A491842EB0450CDE9001012E0B2
:1029E000E00707D032463B4640464946FDF70AFC21
:1029F0008046894632463B4610461946FDF702FCA2
:102A000006460F466410002CEAD1DDE90401DDE939
:102A10000023BAF1000F06DAFDF7F4FB42464B46FD
:102A2000FDF7F0FB05E0FDF7E8FD42464B46FDF7FC
:102A3000E4FD04460E460022284BFDF77BFC03D83C
:102A40004FF0FF30014607E00022254B204631467B
:102A5000FDF72CFDFDF740FE102409E0002C0ADBF9
:102A60000A220023FDF794FC039B30321A55641EA2
:102A700050EA0102F2D1641C039AC4F11103144418
:102A8000119A012A03D0012208430DD10AE008431C
:102A900004D000204FF0110B119072E7A3EB0B054F
:102AA0006D1E0DE05B4504DD4FF0000205F10105F0
:102AB00004E003DA4FF00002A5F10105002AECD092
:102AC00002981199C0E90231C0E9004579E7000098
:102AD000000014400000F03F300000000000F04310
:102AE0000000E03F2DE9FF4F95B09B468946064622
:102AF00000250FE2252877D100242746F84A012136
:102B0000059400E0044316F8013F203B01FA03F06E
:102B10001042F7D130782A2811D06FF02F03307887
:102B2000A0F13002092A16D8059A44F0020402EBFB
:102B3000820203EB42021044761C0590EFE759F83D
:102B4000042B0592002A03DA504244F40054059005
:102B500044F00204761C30782E2816D116F8010FA6
:102B600044F004042A280DD06FF02F023078A0F131
:102B70003003092B09D807EB870302EB4303C7187F
:102B8000761CF3E759F8047B761C30786C280FD05C
:102B900006DC4C2817D068280DD06A2814D104E030
:102BA000742810D07A280FD10DE044F400140AE004
:102BB00044F4801401E044F440147278824202D15B
:102BC00004F58014761C761C307866280BD013DC54
:102BD000582877D009DC002875D04528F6D046283B
:102BE000F4D047281AD19DE118E0632835D0642835
:102BF00079D0652812D195E1702873D008DC672858
:102C0000F1D069286FD06E280DD06F2806D1B5E0BD
:102C100073282CD0752875D0782874D05A46179907
:102C200090476D1C75E1C4F30250022809D00328B7
:102C30000DD0D9F8001004280DD00D6009F1040959
:102C400067E1D9F80010EA17C1E90052F6E7D9F8B0
:102C500000100D80F2E70D70F0E719F8041B8DF8F5
:102C6000001000208DF80100EA46012003E059F829
:102C700004AB4FF0FF3061074FF0000102D40DE0CC
:102C800008F101018846B9420FDA8045F8DB1AF8ED
:102C900008100029F4D108E008F1010188468142BA
:102CA000FADB1AF808100029F6D105985B46A0EB6C
:102CB000080721463846179A00F094FA284400EB9A
:102CC000080507E04DE029E10DE01AF8010B5A462E
:102CD00017999047B8F10108F7D25B46214638466C
:102CE000179A13E142E00A220092C4F302524FF015
:102CF000000A022A08D059F804CB032A4FEAEC71E3
:102D00000AD00DE029E02AE009F1070121F00702CD
:102D1000F2E802C1914609E00FFA8CFC4FEAEC712F
:102D2000042A03D14FFA8CFC4FEAEC71002907DA30
:102D30000A460021DCF1000C61EB02012D2202E0C9
:102D4000220504D52B228DF80420012203E0E2079E
:102D500001D02022F7E7904659E00A2102E0102234
:102D60000DE010214FF0000A00910BE010224FF00F
:102D7000000A44F004040827009203E008224FF000
:102D8000000A0092C4F30252022A05D059F804CB7B
:102D90000021032A08D009E009F1070121F0070208
:102DA000F2E802C1914605E01FFA8CFC042A01D129
:102DB0000CF0FF0C4FF00008220728D5702806D031
:102DC000009B83F0100353EA0A0305D00EE0402273
:102DD0008DF80420012208E05CEA010206D03022CE
:102DE0008DF804208DF8050002229046009B83F0A8
:102DF000080353EA0A030AD15CEA010201D162071F
:102E000005D530228DF804204FF001087F1E582888
:102E100004D034A003900EA802900DE036A0F9E78C
:102E200053466046009AFDF7B3FA84460398825CE5
:102E30000298401E029002705CEA0100F0D10298F4
:102E400006A9081A00F1200A600702D524F480348C
:102E500000E00127574502DDA7EB0A0000E0002053
:102E600000EB0A01009005984144401A0590E003E8
:102E700006D45B462146179A059800F0B3F905443D
:102E8000002706E001A85A46C05D179990476D1CBF
:102E90007F1C4745F6DBE0030CD55B462146179ABD
:102EA000059800F09FF9054404E030205A46179930
:102EB00090476D1C0099481E00900029F5DC08E041
:102EC000029802995A460078491C02911799904736
:102ED0006D1CBAF10001AAF1010AF1DC65E1000004
:102EE00009280100303132333435363738396162E0
:102EF00063646566000000003031323334353637A4
:102F000038394142434445460000000000F058F97A
:102F10000544761C307800287FF4ECAD19B02846C3
:102F2000BDE8F08F620700D4062709F1070222F0FE
:102F3000070CFCE80223E14603F000485FEA080CB6
:102F400002D00FF2702C0DE05FEA045C02D50FF2A4
:102F5000682C07E05FEAC47C02D00FF2602C01E02D
:102F6000AFF2700C4FF0FF3823F00043CDF850C0A3
:102F700065280CD006DC452809D046281DD04728F6
:102F80003DD13DE0662818D067287ED138E0002189
:102F9000112F01DB112000E0781CCDE9000106A90A
:102FA0000EA8FFF7DDFCDDE90F010E9A0391002169
:102FB000009207F1010A04914DE04FF000400097A4
:102FC000CDE9011006A90EA8FFF7CAFCDDE90F0242
:102FD00003920E9B11990022DDF80CA0009304923D
:102FE00011B9791C00EB010AB7EB0A0004D4C0F157
:102FF000FF3007F1010A0490AAEB0700019044E0BA
:10300000012F00DA01270021112F01DD112000E03E
:103010003846CDE9000106A90EA8FFF7A1FCDDE9BD
:103020000F010E9A0391002104910092BA462107E4
:103030000CD40399514500DA8A46BAF1010F05DD37
:10304000009AAAF10101515C302908D0B84202DA95
:1030500010F1040F06DA0121CDE9011015E0AAF103
:103060000101E9E7002805DC049901440491AAEB79
:10307000000102E0411C514500DD8A460499401AD6
:10308000401C01904FF000400290200704D40198AA
:10309000504501DBCDF8048000208DF84F000298E8
:1030A0000DF14F07B0F1004F25D02B200E90029864
:1030B0004FF0020800280CDA404202902D200E90BA
:1030C00007E00A210298FDF74DF93031029007F828
:1030D000011DB8F10001A8F10108F2DC02980028F6
:1030E000EFD1791E0E980870307800F0200040F083
:1030F000450007F8020D12A8C01B00F1070814983C
:10310000007800B1012000EB0A01019801EBE071A9
:1031100005984144401A401E0590E00306D45B46E2
:103120002146179A059800F05DF805441498007838
:1031300018B15A46179990476D1CE00324D55B4699
:103140002146179A059800F04DF805441CE00498B4
:10315000002807DBDDE90301884203DD0098405CBD
:10316000179901E0179930205A469047049805F1C5
:103170000105401C04900198401E019004D12E20AE
:103180005A46179990476D1CBAF10001AAF1010A3D
:10319000DDDC05E017F8010B5A46179990476D1CC6
:1031A000B8F10001A8F10108F4DC5B462146179A4A
:1031B0000598ABE62D0000002B0000002000000069
:1031C0002DE9F041044600251E461746880404D424
:1031D00005E039462020B0476D1C641EF9D528460D
:1031E000BDE8F0812DE9F041044600251E469046D9
:1031F000C80301D5302700E02027880404D505E066
:1032000041463846B0476D1C641EF9D52846BDE8D6
:10321000F0810A68531C0B60107070472DED068B0F
:10322000FEF7D0F8FFF75EF9FFF78AF8FFF754F8DA
:10323000FFF72CF94F48FDF733FFFEF717FF00208B
:10324000FEF7EEFE0120FEF771FF0020FEF776FF8D
:1032500000210846FEF781FF9FED479B9FED48AB9D
:10326000494C64214348FDF78FFE18B94148FDF7EA
:1032700037FD60803F48628844A1C430FFF74CFBB3
:1032800000210846FEF769FF3A48C430FEF73EFFCA
:1032900038496423C4311422A1F17000FEF764FEA2
:1032A0006088FDF721F8B0EE4A8AF0EE6A8A53ECA6
:1032B000182BFCF7A7FF41EC100B2E4853EC102BFA
:1032C00038A1C430FFF728FB00210120FEF745FF9D
:1032D0002848C430FEF71AFF26496423C43114225B
:1032E000A1F17000FEF740FE207800F00700FEF725
:1032F0009BFF6088FCF7F8FF53EC182BFCF782FF6C
:1033000053EC192BFDF716F810D86088FCF7ECFF8A
:1033100053EC182BFCF776FF9FED281B53EC112B79
:10332000FCF7F0FF02D82078401C1DE06088FCF715
:10333000DBFF53EC182BFCF765FF9FED221B53ECD2
:10334000112BFCF7F7FF10D86088FCF7CDFF53EC8A
:10335000182BFCF757FF9FED1D1B53EC112BFCF7AF
:10336000D1FF02D82078401E20706420FDF740FF76
:1033700077E70000140000200000000000000000BB
:10338000B4D934E70C684A3F000000204144432090
:1033900056616C203D202530346420202020200DF3
:1033A0000A000000566F6C74616765203D20252E71
:1033B000326676202020200D0A0000000000000068
:1033C0000000F03FCDCCCCCCCCCC0040666666662D
:1033D00066660A4002030405060708090A0B0C0D7D
:1033E0000E0F10100102030405060708090A0B0C52
:1033F0000D0E0F1000000000000000000102030489
:103400000607080900000000010203042C3400082C
:10341000000000201400000040290008403400088B
:1034200014000020DC040000502900080000000007
:1034300001000000100000000000000000127A00EF
:040000050800018965
:00000001FF
