:020000040800F2
:10000000100400209D0100083B0E0008410C000870
:10001000390E0008090200081D0F0008000000004A
:100020000000000000000000000000005F0E00085B
:100030000B020008000000005D0E0008610E0008C1
:10004000B7010008B7010008B7010008B7010008B0
:10005000B7010008B7010008B7010008B7010008A0
:10006000B7010008B7010008B7010008B701000890
:10007000B7010008B7010008B7010008B701000880
:10008000B7010008B7010008B7010008B701000870
:10009000B7010008B7010008B7010008B701000860
:1000A000B7010008B7010008B7010008B701000850
:1000B000B7010008B7010008B7010008B701000840
:1000C000B7010008B7010008B7010008B701000830
:1000D000B7010008B7010008B7010008B701000820
:1000E000B7010008B7010008B7010008B701000810
:1000F000B7010008B7010008B7010008B701000800
:10010000000000000000000000000000B70100082F
:10011000B7010008B7010008B7010008B7010008DF
:10012000B7010008B7010008B7010008B7010008CF
:10013000B7010008B701000800000000000000003F
:10014000B7010008B7010008B7010008000000006F
:10015000000000000000000000000000000000009F
:100160000000000000000000B7010008B70100080F
:10017000B7010008000000000000000000000000BF
:1001800000000000B7010008DFF80CD000F02AF8EA
:10019000004800473D0F0008100400200648804733
:1001A00006480047FEE7FEE7FEE7FEE7FEE7FEE75C
:1001B000FEE7FEE7FEE7FEE7B50E0008890100084E
:1001C000D2B201E000F8012B491EFBD27047002299
:1001D000F6E710B513460A4604461946FFF7F0FF46
:1001E000204610BD064C074D06E0E06840F00103D4
:1001F00094E8070098471034AC42F6D3FFF7C8FFE5
:100200000C1100082C110008FEE7704770B5044679
:1002100000F0DCF80546601C02D004480078044475
:1002200000F0D4F8401BA042FAD370BD00000020BB
:100230002DE9F84FDFF864B100234FF0010C4FF0C7
:10024000030A4FF00F090BF1040EA0E00CFA03F6BD
:10025000324072D04C68022C01D0122C0ED1DC0836
:1002600000EB8408D8F820405D07EF0E09FA07F587
:10027000AC430D69BD402543C8F8205007685D00B8
:1002800091F804800AFA05F408F00308A74308FA75
:1002900005F848EA0708C0F800804F68012F05D02C
:1002A000022F03D0112F01D0122F11D18768D1F85E
:1002B0000C80A74308FA05F848EA0708C0F8088048
:1002C0004768B7430E79C6F300169E403E4346602A
:1002D000C668A6438C68AC403443C4604C68E400F4
:1002E00054D52F4CA56945F00105A561A46923F0FB
:1002F000030504F0010400942A4C2E19B4689D07EC
:100300002F0F09FA07F5AC43B0F1904F04D0264DFA
:10031000A84203D1012512E0002510E0234DA84298
:1003200001D102250BE0224DA84201D1032506E0B0
:10033000204DA84202D1042501E027E00525BD405B
:100340002543B560DBF800405D464E689443F603F4
:1003500000D514432C60DEF8004075464E68944387
:10036000B60300D514432C600C4D08352C684E683C
:100370009443F60200D514432C60084D0C352C68CC
:100380004E689443B60200D514432C605B1C0A6887
:1003900032FA03F47FF45AAFBDE8F88F000401404D
:1003A000001002400000014000040048000800481E
:1003B000000C00480010004842694A404261704702
:1003C0000AB181617047816270470000014880680E
:1003D0007047000000000020024881680278114444
:1003E0008160704700000020074810B5016841F0A7
:1003F00010010160032000F061F8002000F006F811
:1004000000F024F8002010BD0020024070B50D4D12
:1004100004464FF47A712878B1FBF0F00A49096874
:10042000B1FBF0F000F0F8FB48B9102C07D2002225
:100430002146501E00F022F800206C6070BD0120A3
:1004400070BD0000000000200C0000200A4882B0AF
:10045000816941F001018161816901F0010100912F
:10046000C16941F08051C161C06900F080500090C5
:10047000072002B000F022B800100240F0B40E4B8A
:100480001B680C46C3F30223C3F10705042D00D9F2
:100490000425191D072901D2002300E0DB1E0126D7
:1004A00006FA05F1491E214099409E40761E1640ED
:1004B0003143F0BC00F0C2BC0CED00E0064900F096
:1004C000070208684FF6FF03184040EA0220034A7B
:1004D00010430860704700000CED00E00000FA05D2
:1004E0002DE9F0470F46050069D04A4E306800F00C
:1004F0000700B84209D2306820F007003843306066
:10050000306800F00700B84259D12878424C800783
:1005100005D56068A96820F0F0000843606028787D
:10052000C0073DD06968012001290DD0022923D0E0
:100530005FF0020393FAA3F2B2FA82F242F02002D1
:10054000520904D0226803E04FF40033F2E7626AF4
:1005500093FAA3F3B3FA83F303F01F039840024224
:100560002DD0606820F0030008436060FFF72EFF85
:10057000804641F288390CE04FF00073DAE700BFA3
:10058000FFF724FFA0EB0801494502D90320BDE88D
:10059000F0876068696800F00C00B0EB810FEFD164
:1005A000306800F00700B8420BD9306820F007002F
:1005B00038433060306800F00700B84201D00120B5
:1005C000E5E72878400705D56068E96820F4E06031
:1005D000084360602878000706D56068296920F420
:1005E000605040EAC100606000F01CF86168F022D1
:1005F00092FAA2F201F0F001B2FA82F2D140074A77
:10060000515CC840064908600020FFF7FFFE00204B
:10061000BDE700000020024000100240FC1000086E
:100620000C000020144B10B55A68144802F00C015D
:1006300004291DD008291BD14FF4701494FAA4F496
:1006400002F47011B4FA84F4E1400D4CDB6A615C91
:100650000F2494FAA4F403F00F03B4FA84F4E340F3
:10066000074C1034D203E35C03D5B0FBF3F04843EE
:1006700010BD0448484310BD0010024000127A002B
:10068000DC10000800093D002DE9F84F040071D08E
:100690002078FB4DC0074FF0010625D0686877042D
:1006A000C0F38100012807D06868C0F381000228E8
:1006B0001BD16868C00318D597FAA7F0B0FA80F08C
:1006C00040F02000400901D0286800E0686A97FAED
:1006D000A7F1B1FA81F101F01F0106FA01F1084218
:1006E00065D060680028D2D061E06068B0F5803FD6
:1006F0000BD010B1B0F5A02F17D0286820F48030AF
:100700002860286820F4802002E0286840F48030C7
:100710002860E86AA16820F00F000843E86260687A
:1007200020B3FFF753FE80460AE0286840F480209B
:100730002860EAE7FFF74AFEA0EB0800642872D8B9
:1007400097FAA7F0B0FA80F040F02000400901D0FD
:10075000286800E0686A97FAA7F1B1FA81F101F020
:100760001F0106FA01F10842E4D020E0FFF72EFE57
:10077000804607E0C7E000BFFFF728FEA0EB0800B7
:100780006428DCD897FAA7F0B0FA80F040F0200097
:10079000400901D0286800E0686A97FAA7F1B1FA29
:1007A00081F101F01F0106FA01F10842E4D120783D
:1007B000DFF8D08280074FF0000A4FF0020759D5CA
:1007C00068684FF0F80B10F00C0F07D06868C0F3A2
:1007D000810002281BD16868C00318D497FAA7F0DB
:1007E000B0FA80F040F02000400901D0286800E015
:1007F000686A97FAA7F1B1FA81F101F01F0106FAD0
:1008000001F108422BD0206901287CD127E0206922
:1008100088B396FAA6F0B0FA80F048F82060FFF7A7
:10082000D5FD814606E055E1FFF7D0FDA0EB0900BC
:10083000022884D897FAA7F0B0FA80F040F02000A0
:10084000400901D0286800E0686A97FAA7F1B1FA78
:1008500081F101F01F0106FA01F10842E4D0286895
:100860009BFAABF26169B2FA82F220F0F800914093
:100870000843286025E0FFE796FAA6F1B1FA81F176
:1008800048F821A0FFF7A2FD814605E0FFF79EFD95
:10089000A0EB09000228CCD897FAA7F0B0FA80F0B4
:1008A00040F02000400901D0286800E0686A97FA0B
:1008B000A7F1B1FA81F101F01F0106FA01F1084236
:1008C000E4D1207800076AD5A069A0B396FAA6F013
:1008D000B0FA80F008EB8000C0F88064FFF776FD86
:1008E000814605E0FFF772FDA0EB09000228A0D8C1
:1008F00097FAA7F0B0FA80F040F06000B6EB501F16
:1009000002D128680CE077E197FAA7F0B0FA80F0FE
:1009100040F06000B7EB501F01D1286A00E0686A20
:1009200097FAA7F1B1FA81F101F01F0106FA01F27D
:100930001042D7D033E0FFE796FAA6F0B0FA80F085
:1009400008EB8000C0F880A4FFF740FD814605E079
:10095000FFF73CFDA0EB090002289CD897FAA7F00E
:10096000B0FA80F040F06000B6EB501F01D128686B
:100970000BE097FAA7F0B0FA80F040F06000B7EB18
:10098000501F01D1286A00E0686A97FAA7F1B1FA0E
:1009900081F101F01F0106FA01F21042D8D120784E
:1009A000400774D5E8694FF00009C00009D4E86930
:1009B00040F08050E861E8694FF0010900F0805094
:1009C000009031480168C90512D4016841F4807172
:1009D0000160FFF7FBFC834606E000BFFFF7F6FC73
:1009E000A0EB0B00642875D827480068C005F5D532
:1009F000E06801280AD008B1052811D0286A20F043
:100A000001002862286A20F0040002E0286A40F011
:100A100001002862E068C8B3FFF7D8FC83460DE008
:100A2000286A40F004002862F0E700BFFFF7CEFC20
:100A3000A0EB0B0141F2883081424BD897FAA7F026
:100A4000B0FA80F040F04000B6EB501F01D12868AA
:100A50000BE097FAA7F0B0FA80F040F04000B7EB57
:100A6000501F01D1286A00E0686A97FAA7F1B1FA2D
:100A700081F101F01F0106FA01F21042D6D035E0F3
:100A800000100240000042420070004000E034E0EC
:100A9000FFF79CFC834607E0FFF798FCA0EB0B01F7
:100AA00041F28830814215D897FAA7F0B0FA80F069
:100AB00040F04000B6EB501F01D128680CE097FAD7
:100AC000A7F0B0FA80F040F04000B7EB501F02D121
:100AD000286A01E083E0686A97FAA7F1B1FA81F128
:100AE00001F01F0106FA01F21042D5D1B9F1000F51
:100AF00003D0E86920F08050E861E06980B369685C
:100B0000C1F38101022977D04FF080714F00022894
:100B100009D091FAA1F0B0FA80F048F820A0FFF7D0
:100B200055FC04465EE050468A4691FAA1F1B1FABE
:100B300081F1C14648F82100FFF748FC804605E0F6
:100B4000FFF744FCA0EB0800022848D897FAA7F06A
:100B5000B0FA80F040F02000400902D0286801E09F
:100B600056E0686A97FAA7F1B1FA81F101F01F0126
:100B700006FA01F10842E3D1D4E908100843696894
:100B800021F47411084368609AFAAAF0B0FA80F070
:100B900049F82060FFF71AFC044604E0FFF716FC52
:100BA000001B02281BD897FAA7F0B0FA80F040F09B
:100BB0002000400901D0286800E0686A97FAA7F190
:100BC000B1FA81F101F01F0106FA01F10842E5D006
:100BD0001EE000BFFFF7FAFB001B022802D903202A
:100BE000BDE8F88F97FAA7F0B0FA80F040F0200047
:100BF000400902D0286801E00CE0686A97FAA7F182
:100C0000B1FA81F101F01F0106FA01F10842E1D1C8
:100C10000020E5E70120E3E710B5401EB0F1807F3A
:100C200001D3012010BD4FF0E02460610F21601757
:100C300000F004F90020A06107202061002010BD11
:100C4000FEE7000010B50446002201210648FFF728
:100C5000B7FB04F0F00000F01DF82007BDE81040DD
:100C6000000E00F017B800000004004810B504465C
:100C7000012211460648FFF7A3FB04F0F00000F044
:100C800009F82007BDE81040000E00F003B800008E
:100C90000004004870B5134D044600F0800208219E
:100CA0002846FFF78DFB04F0400204212846FFF799
:100CB00087FB04F0200202212846FFF781FB04F0A5
:100CC000100201212846FFF77BFB074C012204217B
:100CD0002046FFF775FB2046BDE870400022042146
:100CE000FFF76EBB00080048000400482DE9F04102
:100CF00086B014216846FFF76AFA4A48416941F410
:100D000000114161416901F400110591416941F40B
:100D100000214161416901F400210591416941F4DB
:100D200080014161416901F480010591416941F40B
:100D300000314161416901F400310591416941F49B
:100D4000802141614069384E00F480204FF688755B
:100D50000590002229463046FFF732FB334F002230
:100D60000F213846FFF72CFBDFF8C4800022072153
:100D70004046FFF725FB372000902E480024CDE9A0
:100D8000010469463046FFF753FA00950125CDE985
:100D90000154694630460394FFF74AFA0F20009049
:100DA000CDE90154694638460394FFF741FACDE98D
:100DB00000544FF09047694638460294FFF738FADE
:100DC000E02000900226CDE901640520CDE9034032
:100DD00069463846FFF72CFA07200090CDE9015408
:100DE000694640460394FFF723FA4FF4C050CDE91B
:100DF00000060320CDE902400E20049069463846E3
:100E0000FFF716FAC02000901220CDE9010504205A
:100E1000CDE9034069464046FFF70AFA06B0BDE84F
:100E2000F081000000100240001000480008004857
:100E30000004004800001210FEE770470907090E81
:100E4000002806DA00F00F0000F1E02080F8141D01
:100E5000704700F1E02080F8001470477047704739
:100E6000FFF7BABA30B58FB028216846FFF7AFF95F
:100E700014210AA8FFF7ABF901204FF4A0210024A8
:100E80008DE81300049002250004CDE907504FF4CB
:100E9000E01009906846FFF7F7FB0F20CDE90A053F
:100EA0006802CDE90C4002210AA80E94FFF718FB56
:100EB0000FB030BD1448016841F47001016013485F
:100EC000016841F0010101604168114A114041602F
:100ED0000168104A11400160016821F4802101601D
:100EE000416821F4FE014160C16A21F00F01C16235
:100EF000016B094A11400163002181600249C0036E
:100F0000803908607047000088ED00E00010024062
:100F10000CC07FF8FFFFF6FECCFC00FFFEE702E00E
:100F200008C8121F08C1002AFAD170477047002074
:100F300001E001C1121F002AFBD17047FFF754FAEC
:100F4000FFF790FFFFF7D2FE624C002201212046FE
:100F5000FFF736FA002202212046FFF731FA00227D
:100F600004212046FFF72CFA5B4C01228021204609
:100F7000FFF726FA0F20FFF749F93020FFF78AFE26
:100F80000520FFF743F93020FFF784FE0120FFF72B
:100F90003DF93020FFF77EFE0120FFF737F92020D2
:100FA000FFF778FE0120FFF731F92820FFF74AFE0E
:100FB0000120FFF72BF90F20FFF744FE0120FFF778
:100FC00025F90120FFF73EFE0220FFF71FF906205A
:100FD000FFF738FE0120FFF719F98020FFF732FEF6
:100FE0000120FFF713F94320FFF740FE0120FFF730
:100FF0000DF96820FFF73AFE0120FFF707F961209D
:10100000FFF734FE0120FFF701F96920FFF72EFEFC
:101010000120FFF7FBF87720FFF728FE0120FFF7FC
:10102000F5F86920FFF722FE0120FFF7EFF87420A2
:10103000FFF71CFE0120FFF7E9F8C020FFF702FED2
:101040000120FFF7E3F83520FFF710FE0120FFF73E
:10105000DDF83920FFF70AFE0120FFF7D7F831202D
:10106000FFF704FE0120FFF7D1F83120FFF7FEFD66
:101070000120FFF7CBF83120FFF7F8FD0120FFF743
:10108000C5F83120FFF7F2FD0120FFF7BFF830204F
:10109000FFF7ECFD0120FFF7B9F83220FFF7E6FD7E
:1010A0000120FFF7B3F83220FFF7E0FD0120FFF742
:1010B000ADF83220FFF7DAFD0120FFF7A7F84FF473
:1010C000807529462046FFF777F9C820FFF79EF87C
:1010D000F7E7000000040048001000480203040580
:1010E000060708090A0B0C0D0E0F1010010203046D
:1010F00005060708090A0B0C0D0E0F100000000072
:101100000000000001020304060708092C11000872
:1011100000000020100000001E0F00083C11000815
:1011200010000020000400002E0F00080100000045
:0C113000100000000000000000127A0017
:040000050800018965
:00000001FF
